:020000040800F2
:1000000000200010E1270008A1260008A326000810
:10001000A5260008A7260008A92600080000000061
:10002000000000000000000000000000AB260008F7
:10003000AD26000800000000AF260008B126000829
:100040001D28000821280008252800082928000864
:100050002D28000831280008352800083928000814
:100060003D280008412800084528000849280008C4
:100070004D28000851280008552800085928000874
:100080005D28000861280008652800086928000824
:100090006D280008712800087528000879280008D4
:1000A0007D28000881280008852800088928000884
:1000B0008D28000891280008952800089928000834
:1000C0009D280008A1280008A5280008A9280008E4
:1000D000AD280008B9260008B1280008B528000896
:1000E000B9280008BD280008C1280008C528000854
:1000F000C9280008CD280008D1280008D528000804
:10010000D9280008DD280008E1280008E5280008B3
:10011000E9280008ED280008F1280008F528000863
:10012000F9280008FD280008C32600080129000856
:1001300005290008092900080D29000811290008CF
:1001400015290008192900081D290008212900087F
:1001500025290008292900082D290008312900082F
:1001600035290008392900083D29000841290008DF
:1001700045290008492900084D2900080000000011
:100180005129000855290008592900085D2900084F
:100190006129000865290008692900086D290008FF
:1001A00000000000000000007129000810B50400E4
:1001B000002C01D1012035E0A0690028FFD194F87E
:1001C0004100002805D1002084F84000200000F004
:1001D0006DFE242084F841002068C06830F400508F
:1001E0002168C860200000F0ADFC2068006930F490
:1001F0009040216808612068406930F02A00216839
:1002000048612068C06850F400502168C860002030
:100210006064202084F84100202084F842000020FF
:100220006063002010BD2DE9FC4106000D001400A4
:100230001F00002096F84100202851D1002D03D046
:10024000200080B2002801D101204AE00020706423
:10025000212086F8410000F0C5FE8046B484F48475
:10026000B068B0F5805F04D13069002801D1002466
:1002700012E02C0000250FE0207831684860641CF3
:1002800007E0002CF8D12888C005C00D316848600F
:10029000AD1CF08C401EF084F08C00280DD000972F
:1002A000434600228021300000F0ABFA0028E8D05D
:1002B000202086F84100032013E0009743460022E7
:1002C0004021300000F09DFA002804D0202086F85C
:1002D0004100032005E0202086F84100002000E0D6
:1002E0000220BDE8F68180B590F84230202B0DD178
:1002F000002903D013009BB2002B01D1012006E09E
:100300000023036392B200F0BDFA00E0022002BDB8
:1003100010B5040020680C3050E8001F31F4F07173
:10032000206810F10C0242E800100028F2D1206889
:10033000143050E8001F49084900206810F11402E9
:1003400042E800100028F2D1206B01280CD120686F
:100350000C3050E8001F31F01001206810F10C0241
:1003600042E800100028F2D120684069000620D53C
:100370002068143050E8001F31F08001206810F12F
:10038000140242E800100028F2D1A06B002810D01F
:100390000020A16B0865A06B00F0D4FE002808D0F7
:1003A000A06B01F035F8202803D1102060640320F1
:1003B00033E020684069400620D52068143050E8BA
:1003C000001F31F04001206810F1140242E80010D3
:1003D0000028F2D1E06B002810D00020E16B086506
:1003E000E06B00F0AFFE002808D0E06B01F010F8E1
:1003F000202803D11020606403200EE00020E08458
:100400000020E08500206064202084F84200202045
:1004100084F8410000202063002010BD38B504009E
:10042000206801682068C2682068436900200020B5
:1004300011F00F00002807D18D0605D5950603D5CC
:10044000200000F008FB47E1002879D0D80702D44B
:1004500012F4907F74D011F00100C0B2002805D0D2
:10046000D00503D5606C50F001006064480708D5E2
:1004700013F00100C0B2002803D0606C50F00200FD
:100480006064880708D513F00100C0B2002803D0CB
:10049000606C50F00400606408070AD5900604D42C
:1004A00013F00103DBB2002B03D0606C50F00800A6
:1004B0006064606C002842D0880604D5900602D59E
:1004C000200000F0C8FA20684069800910F001009F
:1004D000616C090701D400282CD0200000F043FAF9
:1004E00020684069400621D52068143050E8001F7C
:1004F00031F04001206810F1140242E80010002899
:10050000F2D1E06B00280DD00FF2BD40E16B086521
:10051000E06B00F065FE002811D0E06BE16B096D27
:1005200088470CE0200000F0EFFF08E0200000F01A
:10053000EBFF04E0200000F0E7FF00206064CBE068
:10054000206B012840F0B880C80640F1B580D00685
:1005500040F1B28000200090206800680090206880
:1005600040680090009820684069400667D5E06BBD
:1005700000684168080080B2002850D00800A28DB1
:1005800080B290424BD2E185E06BC069B0F5807FCC
:100590003BD020680C3050E8001F31F48071206897
:1005A00010F10C0242E800100028F2D1206814304B
:1005B00050E8001F49084900206810F1140242E881
:1005C00000100028F2D12068143050E8001F31F0EC
:1005D0004001206810F1140242E800100028F2D116
:1005E000202084F842000020206320680C3050E86E
:1005F000001F31F01001206810F10C0242E80010D9
:100600000028F2D1E06B00F09DFD02206063A18D17
:10061000E08D091A89B2200000F077FF0EE0A08D6E
:1006200089B281420AD1E06BC069B0F5807F05D103
:1006300002206063A18D200000F067FF4CE0A08DD8
:10064000E18D411AE08D002835D0080080B20028E5
:1006500031D020680C3050E8002F32F490722068BE
:1006600010F10C0343E800200028F2D12068143078
:1006700050E8002F52085200206810F1140343E89C
:1006800000200028F2D1202084F8420000202063BE
:1006900020680C3050E8002F32F01002206810F172
:1006A0000C0343E800200028F2D10220606389B2E5
:1006B000200000F02AFF0FE0080605D5100603D53C
:1006C000200000F089F907E0480605D5500603D55B
:1006D000200000F0B2F9FFE731BD0100002000204A
:1006E00091F8410091F842100843C0B2704780B5BC
:1006F0000100886B09680968C9053BD40021C185E0
:1007000001680C3151E8002F32F48072016811F158
:100710000C0343E800210029F2D10168143151E8AB
:10072000002F52085200016811F1140343E8002120
:100730000029F2D10168143151E8002F32F0400253
:10074000016811F1140343E800210029F2D12021AE
:1007500080F84210016B01290CD101680C3151E87D
:10076000002F32F01002016811F10C0343E8002160
:100770000029F2D100214163016B012903D1818D50
:1007800000F0C3FE01E000F0C1FE01BD80B5806B4A
:1007900001214163016B012905D1818D490889B28D
:1007A00000F0B3FE01E000F0B2FE01BD10B5002183
:1007B000846B20684069C00910F0010094F8411072
:1007C000212906D1002804D00020E084200000F078
:1007D000B9F820684069800910F0010094F84210CF
:1007E000222906D1002804D00020E085200000F056
:1007F000BAF8606C50F010006064200000F084FED5
:1008000010BD2DE9FC4105000E0090461F00089C1C
:10081000286800683040B04201D1012000E000208B
:100820004146C9B288422AD114F1010FF0D000F03C
:10083000D9FBC01B844201D3002C01D103201FE04F
:100840002868C0684007E3D5802EE1D0402EDFD075
:10085000286800680007DBD5002000902868006841
:1008600000902868406800900098280000F07BF80D
:1008700008206864002085F84000012000E0002086
:10088000BDE8F68113B5040013000198A062A385AA
:1008900000206064222084F84200DFF89005E16BBC
:1008A000C863DFF88C05E16B0864DFF88805E16B4D
:1008B000C8640020E16B086501A89BB2026820684B
:1008C000011DE06B00F004FC002806D010206064DD
:1008D000202084F84200012033E0002000902068AE
:1008E0000068009020684068009000982069002807
:1008F0000CD020680C3050E8001F51F48071206843
:1009000010F10C0242E800100028F2D120681430E7
:1009100050E8001F51F00101206810F1140242E874
:1009200000100028F2D12068143050E8001F51F068
:100930004001206810F1140242E800100028F2D1B2
:10094000002016BD01680C3151E8002F32F0C002C2
:10095000016811F10C0343E800210029F2D12021A4
:1009600080F84110704701680C3151E8002F32F4D3
:100970009072016811F10C0343E800210029F2D1C3
:100980000168143151E8002F52085200016811F13A
:10099000140343E800210029F2D1016B01290CD195
:1009A00001680C3151E8002F32F01002016811F19A
:1009B0000C0343E800210029F2D1202180F84210E5
:1009C000002101637047000080B5806B0021C18564
:1009D00000F09AFD01BD000090F8411021292AD1B4
:1009E0008168B1F5805F0CD10169002909D1016AE4
:1009F0000988C905C90D02685160016A891C016234
:100A000005E0016A4A1C0262097802685160C18CE3
:100A1000491EC18489B200290BD10168C96831F02F
:100A200080010268D1600168C96851F04001006826
:100A3000C160002000E00220704780B50168C968ED
:100A400031F040010268D160202180F8411000F0AF
:100A50005FFD002002BD80B50021002190F842100A
:100A600022296DD18168B1F5805F0CD1016900291F
:100A700009D1816A02685268D205D20D0A80816A62
:100A8000891C816216E0826A8168B1F5805F05D0B9
:100A90008168002906D10169002903D101684968EC
:100AA000117004E00168496811F07F011170816ADA
:100AB000491C8162C18D491EC18589B200293DD181
:100AC0000168C96831F020010268D1600168C96815
:100AD00031F480710268D1600168496949084900B0
:100AE00002685161202180F8421000214163016BAE
:100AF00001291FD10021016301680C3151E8002F49
:100B000032F01002016811F10C0343E800210029C2
:100B1000F2D101680968C90608D500210091016871
:100B2000096800910168496800910099818D00F081
:100B3000ECFC01E000F0EAFC002002E0002000E014
:100B4000022002BD2DE9FE4F05002868016931F43D
:100B50004051E868014328680161A9682869014398
:100B600068690143E86901432868C268B2480240E5
:100B700011432868C1602868416931F44071A8694F
:100B80000143286841612868AC49884203D028683D
:100B9000AB49884203D100F084FD040002E000F07C
:100BA00075FD0400E869B0F5004F40F09F805FF0EC
:100BB000640A022600275FF019085FF0000922008E
:100BC0000023A8FB020108FB031109FB0211CDE978
:100BD000000168680021A6FB002306FB013307FB28
:100BE0000033DDE9000100F0B5FD6421B0FBF1F058
:100BF000029022000023A8FB020108FB031109FB5D
:100C00000211CDE9000168680021A6FB002306FB64
:100C1000013307FB0033DDE9000100F09BFD834653
:100C200022000023A8FB020108FB031109FB0211AB
:100C3000CDE9000168680021A6FB002306FB013313
:100C400007FB0033DDE9000100F084FD6421B0FB07
:100C5000F1F00AFB10B0C00032306421B0FBF1F0BB
:100C6000400010F4F870029910EB0110029022007D
:100C70000023A8FB020108FB031109FB0211CDE9C7
:100C8000000168680021A6FB002306FB013307FB77
:100C90000033DDE9000100F05DFD83462000002106
:100CA00002000B00A8FB020108FB031109FB021163
:100CB0006A68002390469946A6FB082306FB093381
:100CC00007FB083300F046FD6421B0FBF1F00AFB9E
:100CD00010BA5FEACA0032306421B0FBF1F111F0C2
:100CE000070102980918286881609CE00426002703
:100CF0005FF0640A5FF019085FF00009220000232A
:100D0000A8FB020108FB031109FB0211CDE9000158
:100D100068680021A6FB002306FB013307FB0033B4
:100D2000DDE9000100F016FD6421B0FBF1F0029056
:100D300022000023A8FB020108FB031109FB02119A
:100D4000CDE9000168680021A6FB002306FB013302
:100D500007FB0033DDE9000100F0FCFC83462200C4
:100D60000023A8FB020108FB031109FB0211CDE9D6
:100D7000000168680021A6FB002306FB013307FB86
:100D80000033DDE9000100F0E5FC6421B0FBF1F087
:100D90000AFB10B0000132306421B0FBF1F010F01A
:100DA000F000029910EB0110029022000023A8FB32
:100DB000020108FB031109FB0211CDE9000168687B
:100DC0000021A6FB002306FB013307FB0033DDE90E
:100DD000000100F0BFFC83462000002102000B0050
:100DE000A8FB020108FB031109FB02116A6800233A
:100DF00090469946A6FB082306FB093307FB0833F8
:100E000000F0A8FC6421B0FBF1F00AFB10BA5FEA25
:100E10000A1032306421B0FBF1F111F00F01029899
:100E2000091828688160BDE8F78F0000EF06000808
:100E30008D070008AD070008F369FFFF00100140AF
:100E40000014014080B55D485D4901605FF4E13107
:100E50004160002181600021C160002101610C21FD
:100E60004161002181610021C161FFF79FF90028E4
:100E700001D000F0F7FD01BD80B552485249016034
:100E80005FF4E1314160002181600021C1600021F7
:100E900001610C214161002181610021C161FFF7E5
:100EA00085F9002801D000F0DDFD01BD38B586B020
:100EB000040001A8142100F0D7FD206840498842B1
:100EC0004FD1002000904148016851F010010160AD
:100ED000006810F0100000900098002000903C483E
:100EE000016851F001010160006810F001000090FC
:100EF00000984FF4C06001900220029000200390FF
:100F0000032004900720059001A9324800F0B0FDAD
:100F1000314D324828605FF0006068600020A860B2
:100F20000020E8604FF480602861002068610020A4
:100F3000A8610020E8610020286200206862280083
:100F400000F056F8002801D000F08CFDE563AC639A
:100F500000220021252000F018FF252000F026FFA8
:100F600029E020681849884225D1002000901748C0
:100F7000016851F020010160006810F0200000902D
:100F80000098002000901248016851F004010160AF
:100F9000006810F0040000900098C020019002202A
:100FA000029000200390032004900820059001A9DE
:100FB0000B4800F05DFD07B030BD00006C00002064
:100FC00000100140B40000200014014044380240E9
:100FD00030380240000002400C0000204064024013
:100FE0000008024001480068704700BF1801002057
:100FF00038B504000020FFF7F5FF0500002C01D1F3
:10100000012064E0606A0028022084F83500002096
:1010100084F83400206800684008400021680860B7
:1010200020680068C0070BD5FFF7DCFF401B0628CF
:10103000F6D320206065032084F83500032046E0C5
:1010400020680168DFF82C0401406268A068024350
:10105000E06802432069024360690243A0690243D9
:10106000E0690243206A02431143606A042803D105
:10107000E26A206B024311432068016020684569E1
:10108000ED08ED00606A0543606A042810D1A06A8B
:101090000543E06A00280BD0200000F0F1F9002899
:1010A00006D040206065012084F8350001200EE064
:1010B00020684561200000F0C4F93F22E16D8A40BC
:1010C000826000206065012084F83500002032BD78
:1010D00070B504000025A66D94F83400012801D1F4
:1010E00002202EE0012084F8340094F83500012815
:1010F00021D1022084F8350000206065200000F036
:1011000089F93F21E06D8140B1602068006850F0AE
:10111000160021680860206C002805D0206800684F
:1011200050F00800216808602068006850F0010055
:101130002168086003E0002084F8340002252800BC
:10114000C0B270BD70B50400A56DFFF74BFF06007F
:1011500094F83500022806D080206065002084F8CD
:10116000340001203BE02068006830F01600216860
:1011700008602068406930F0800021684861206C78
:10118000002802D1A06C002805D02068006830F04B
:101190000800216808602068006840084000216855
:1011A000086020680068C0070ED5FFF71BFF801B92
:1011B0000628F6D320206065032084F8350000203F
:1011C00084F8340003200AE03F21E06D8140A960EB
:1011D000012084F83500002084F83400002070BD20
:1011E00090F83510022903D080214165012009E0E3
:1011F000052180F835100168096849084900006830
:10120000016000207047F8B5040000200090DFF86E
:10121000680200684FF41651B0FBF1F5A66D37680F
:101220000821E06D11FA00F0074210D02068006834
:1012300040070CD52068006830F004002268106078
:10124000E06D8140B160606D50F001006065E06D5F
:101250003900C140C8070BD520684069000607D592
:101260000121E06D8140B160606D50F00200606569
:101270000421E06D11FA00F007420AD020680068EE
:10128000800706D5E06D8140B160606D50F00400CC
:1012900060651021E06D11FA00F007422CD0206843
:1012A0000068000728D5E06D8140B16020680068C3
:1012B000400311D520680068000306D4206C002884
:1012C0001AD02000216C884716E0A06C002813D0AB
:1012D0002000A16C88470FE020680068C00505D495
:1012E0002068006830F0080021680860206C002841
:1012F00002D02000216C88472021E06D11FA00F017
:1013000007425FD020680068C0065BD5E06D814071
:10131000B16094F83500052828D12068006830F0C5
:101320001600216808602068406930F0800021685C
:101330004861206C002802D1A06C002805D02068EC
:10134000006830F00800216808603F21E06D8140AE
:10135000B160012084F83500002084F83400206D4D
:10136000002802D02000216D884750E020680068E6
:10137000400311D520680068000306D4606C002883
:1013800020D02000616C88471CE0E06B002819D059
:101390002000E16B884715E020680068C0050BD489
:1013A0002068006830F0100021680860012084F88F
:1013B0003500002084F83400E06B002802D02000C3
:1013C000E16B8847606D002821D0606DC00718D59B
:1013D000052084F835002068006840084000216836
:1013E00008600098401C0090854204D32068006883
:1013F000C007F6D4FFE7012084F83500002084F808
:101400003400E06C002802D02000E16C8847F1BD78
:10141000406D704730B40468246834F48024056853
:101420002C60046863608368402B04D103689A6071
:101430000068C16003E0036899600068C26030BC66
:101440007047017801F0FF0110391822B1FBF2F169
:101450000A4A525CC265042905D30168890A8902D7
:10146000091D816503E00168890A89028165806D33
:10147000704700003F8010F0040000200C28000896
:1014800002000020936A9169002914D1002B05D035
:10149000022B03D007D3032B0BD00BE0D16AC90179
:1014A00000D501202EE0D16AB1F1C07F00D101202A
:1014B00028E027E026E09169B1F5005F15D1002B07
:1014C00005D0022B03D004D3032B07D00CE001205E
:1014D00018E0D16AC90100D5012013E0D16AB1F149
:1014E000C07F00D101200DE00CE0002B022B02D9BF
:1014F000DB1E02D006E0012004E0D16AC90100D55C
:101500000120FFE7C0B270477047704770477047CF
:10151000704730B4002513E050F8042BD30744BFC4
:10152000A9F101039A18091F042942F8045BFAD2B1
:1015300013468C0744BF15809B1CC90748BF1D700C
:1015400050F8041B0029E7D130BC70472DE9F04169
:1015500004000E00002C01D1012092E0564D2868B5
:1015600010F00F00B04207D22E70286810F00F0064
:10157000B04201D0012084E02078800716D5207881
:10158000400704D54D48016851F4E05101602078CE
:10159000000704D54948016851F46041016047499A
:1015A0000A6832F0F002A06802430A602078C0079F
:1015B00035D56068012805D141480068800313D4FF
:1015C00001205EE06068022802D06068032805D12F
:1015D0003B480068800107D4012052E03848006889
:1015E000800701D401204CE0344F39688908890014
:1015F000606801433960FFF7F5FC8046386810F0F9
:101600000C006168B0EB810F09D0FFF7EBFCB0EB89
:10161000080041F289318842F0D3032031E0286884
:1016200010F00F00864207D22E70286810F00F00CD
:10163000B04201D0012024E02078400706D51F49A0
:101640000A6832F4E052E06802430A60207800073A
:1016500007D51A48016831F46041226951EAC20194
:10166000016000F037F81749144A1268C2F30312F8
:10167000895CC840144908601448006800F0B0FB59
:101680000020BDE8F08110480068704780B5FFF782
:10169000FAFF0F49094A1268C2F38222895CC840E6
:1016A00002BD80B5FFF7EFFF0949044A1268C2F393
:1016B0004232895CC84002BD003C0240083802400A
:1016C00000380240D027000804000020000000205D
:1016D0001428000810B50020002000200020194820
:1016E000006810F00C00002804D0042804D008285A
:1016F00004D025E0144824E0144822E0144C226869
:1017000012F03F022068400209D52068C0F388101B
:101710000E49A1FB0001002300F01CF808E020683E
:10172000C0F388100849A1FB0001002300F012F863
:101730002168C1F30141491C4900B0FBF1F000E010
:10174000014810BD083802400024F40040787D01B3
:1017500004380240BBBBE1B1B2F5803F80F07E802F
:10176000022A1ED98C46B1FBF2F102FB11C31B0405
:1017700043EA1043B3FBF2FC02FB1C3380B240EAA5
:101780000343B3FBF2F002FB103240EA0C400023AB
:101790007047022A05D98446B0FBF2F002FB10C262
:1017A00070474AB105D100F0010249085FEA3000F4
:1017B000704700220023704700F038BB0B00020086
:1017C000002100207047904271EB030CF6D3B3F573
:1017D000803F2FD2F0B5B3FA83F7B1FA81F4A7F1C5
:1017E0000F0E3D1B5340CEF1200602FA0EF2F341DC
:1017F0005340B5F10F0746D80F3C2C444140C4F18B
:101800002006A040F1414140B1FBF3F603FB161165
:10181000A2FB0645001BA94102D2761E8018594141
:1018200080EA010221FA0EF362FA0EF200215A4018
:101830003046F0BD30B4B1FBF3FC03FB1C11A2FB3E
:101840000C45001BA94103D2ACF1010C8018594191
:1018500030BC02460B46604600217047B2F1807FE3
:1018600065D3F0B5B2FA82F7B1FA81F4C7F10F0689
:101870003D1B22FA06F307F1110EF24120355A40C2
:10188000B5F10F07B8D94140C4F12006A040F1419D
:101890004140B1FBF3FC03FB1C11A2FB0C45001BF8
:1018A000A94103D2BCF1010C801859410F2F12D36A
:1018B0000F3FC90341EA5041B1FBF3F603FB161198
:1018C000A2FB0645D4EBC030A94102D2761E801897
:1018D000594146EACC3C07B34140C7F12006B84025
:1018E000F1414140B1FBF3F603FB1611A2FB0645A3
:1018F000001BA94102D2761E8018594180EA0102DC
:1019000021FA0EF3C7F1200462FA0EF20CFA07F086
:101910005A402CFA04F13043F0BD80EA010221FA6A
:101920000EF3002162FA0EF260465A40F0BD8C467A
:10193000B1FBF2F102FB11C31B0243EA1063B3FBDC
:10194000F2FC02FB1C331B024CEA002043EA10634A
:10195000B3FBF2FC02FB1C331B024CEA002043EAFF
:101960001063B3FBF2FC02FB1C331B024CEA0020A9
:1019700043EA1063B3FBF2FC02FB1C324CEA00208A
:101980000023704780B500F053FA00F00EF800F025
:1019900069FA00F0C9FAFFF755FAFFF76DFA00F09F
:1019A0001FFB2D4880ED000AF9E780B592B006A82C
:1019B000302100F059F801A8142100F055F800205A
:1019C00000902648016851F080510160006810F0D5
:1019D000805000900098002000902148016851F448
:1019E00040410160006810F44040009000980120E0
:1019F00006905FF48030079002200C905FF4800026
:101A00000D900F200E90D8200F90022010900420EF
:101A1000119006A800F062FB002801D000F022F827
:101A200000F03EFD002801D000F01CF80F200190CE
:101A300002200290002003904FF4A05004904FF435
:101A400080500590052101A8FFF780FD002801D0F6
:101A500000F008F813B000BD140100204038024027
:101A60000070004072B6FEE7002200F057BD000093
:101A7000F8B4002200220022002337E00A2704E005
:101A8000DFF8EC219042F9D10927FFB213F00302ED
:101A9000D2B2920097403E431A00920845F8226065
:101AA000DFF8D0512A68A2434E68F60200D52243DF
:101AB0002A60DFF8C4512A68A2434E68B60200D5F6
:101AC00022432A60DFF8B4512A68A2434E68B60365
:101AD00000D522432A60DFF8A8512A68A2434E6845
:101AE000F60301D5144322002A605B1C102B80F002
:101AF000B280012515FA03F20C6814409442F4D127
:101B00000A7912F00302012A04D00A7912F00302C2
:101B1000022A16D1866803271A00D2B252009740D3
:101B2000BE43CF681A00D2B2520097403E4386604F
:101B300042689D40AA434D68C5F300159D402A4365
:101B400042600A7912F00302032A0DD0C568032609
:101B50001A00D2B252009640B5438E681A00D2B233
:101B6000520096403543C5600A7912F00302022AFA
:101B700017D11A00D20800EB8202156A0F2613F063
:101B80000702D2B292009640B5430E6913F00702E5
:101B9000D2B29200964035431A00D20800EB82027E
:101BA0001562056803261A00D2B252009640B5436A
:101BB0000E7916F003061A00D2B252009640354351
:101BC00005604A6812F4403F8FD0002200922D4AEF
:101BD000156855F480451560126812F48042009231
:101BE000009A294D1A00920855F822600F2713F029
:101BF0000302D2B292009740BE43244A904201D1E0
:101C0000002742E7224A904201D101273DE7214ABD
:101C1000904201D1022738E71F4A904201D10327A1
:101C200033E71E4A904201D104272EE71C4A904216
:101C300001D1052729E71B4A904201D1062724E755
:101C4000194A904201D107271FE7184A90427FF4B2
:101C500017AF082719E7F1BC7047D2B2002A02D0AB
:101C600089B2816102E089B2090481617047000094
:101C700000240240083C01400C3C0140043C01406F
:101C8000003C014044380240083801400000024056
:101C90000004024000080240000C02400010024014
:101CA0000014024000180240001C024000200240C4
:101CB00010F00700DFF808311A684FF6FF010A40FC
:101CC000DFF8001151EA00210A431A6070473C48CE
:101CD0000068C0F302207047010049B2002908D40F
:101CE000012210F01F018A40374940B2400941F8F3
:101CF00020207047020052B2002A04D40901334A5E
:101D000040B2115407E00901314A40B210F00F000F
:101D1000104400F8041C704710B410F00700D0F114
:101D20000703052B01D3042301E0D0F10703041DB1
:101D3000072C01D2002000E0C01E012414FA03F396
:101D40005B1E1940814014FA00F0401E1040084309
:101D500010BC704780B5411EB1F1807F01D30120D6
:101D60000EE0401E1B4908600F215FF0FF30FFF7B7
:101D7000C1FF0020184908600720184908600020AA
:101D800002BD80B5FFF794FF01BD70B504000D00E2
:101D900016000020FFF79BFF32002900FFF7BCFF71
:101DA0000100200040B2FFF7A5FF70BD80B540B232
:101DB000FFF792FF01BD80B5FFF7CCFF02BD000029
:101DC0000CED00E00000FA0500E100E000E400E0B6
:101DD00018ED00E014E000E018E000E010E000E0A2
:101DE00010B504004FF47A700D490978B0FBF1F09A
:101DF0000C490968B1FBF0F0FFF7DDFF002801D0C6
:101E000001200CE0102C09D2002221005FF0FF30ED
:101E1000FFF7BBFF04480460002000E0012010BD74
:101E2000080000200400002000000020704700008F
:101E300080B50B48016851F400710160016851F4EC
:101E400080610160016851F4807101600320FFF737
:101E500098FF0F20FFF7C4FF00F07AFB002002BDBF
:101E6000003C024038B586B001A81421FFF7FCFD04
:101E7000002000902948016851F0100101600168BC
:101E800011F010010091009900210091016851F0BA
:101E900004010160016811F0040100910099002122
:101EA0000091016851F080010160016811F080012A
:101EB0000091009900210091016851F00101016039
:101EC000006810F0010000900098154D002240219C
:101ED0002800FFF7C2FE134C00224FF400512000EF
:101EE000FFF7BBFE402001900120029000200390EC
:101EF0000020049001A92800FFF7BAFD4FF400501C
:101F0000019001200290002003900020049001A97C
:101F10002000FFF7ADFD07B030BD00BF30380240F4
:101F2000001002400008024080B5002000900948DF
:101F3000016851F480010160006810F48000009095
:101F40000098002200213A20FFF71FFF3A20FFF7F8
:101F50002DFF01BD3038024030B402004FF6FF7053
:101F6000002400E0641C2300DBB20D009BB2ADB284
:101F7000AB4215D22300DBB2D35C584000231D00D6
:101F8000EDB2082DEEDAC50702D480B2400805E0B4
:101F900080B205004AF2010090EA55005B1CEEE7B2
:101FA00080B230BC704738B50400082100222500FB
:101FB000280000F0EDFA012020700420607000205D
:101FC000A0700020E07000202071012060710621C7
:101FD0002000FFF7C1FFA07180B2000AE07131BD9F
:101FE00070B52DED028BBFEE008A374D2800FFF74C
:101FF000DAFF364C4FF47A73082229002000FEF7EE
:1020000012F9002802D0B0EE480A57E0072100225A
:102010002F4D2E00300000F0BBFA072229002000CF
:10202000FEF761F9002802D0B0EE480A46E0FEF75C
:10203000D9FF060016F57A762000FEF74EFB22281F
:1020400009D1FEF7CFFF8642F6D22000FEF760F9F5
:10205000B0EE480A32E007221E4C2600290030006C
:1020600000F0CAFA2078012805D16078042802D14E
:10207000A078022802D0B0EE480A1FE00521200017
:10208000FFF76AFFA279617951EA022180B289B231
:10209000884202D0B0EE480A10E00F49E2784FF4CF
:1020A0008073207903FB02020A80088800EE100A80
:1020B000B8EE400ADFED030A80EE200ABDEC028B89
:1020C00070BD00000000C842FC0000206C00002031
:1020D0000C010020040100201C0100202DE9FC411E
:1020E0000400002C01D10120C4E12078C0075FD595
:1020F000DFF88403016811F00C01042909D000689D
:1021000010F00C0008280ED1DFF8700300684002C0
:1021100009D5DFF86C030068800349D560680028A2
:1021200046D10120A6E16068B0F5803F06D1DFF816
:102130005003016851F48031016018E06068B0F527
:10214000A02F0AD1DFF83803016851F48021016023
:10215000016851F48031016009E0DFF8240301686F
:1021600031F480310160016831F4802101606068E0
:1021700000280ED0FEF736FF0500DFF804030068E4
:10218000800315D4FEF72EFF401B6528F5D30320EE
:1021900070E1FEF727FF0500DFF8E4020068800326
:1021A00006D5FEF71FFF401B6528F5D3032061E12C
:1021B000207880071DD5B048016811F00C0F08D0B9
:1021C000006810F00C0008282AD1AC4800684002D2
:1021D00026D4AB480168890704D5E168012901D0FC
:1021E000012047E1016831F0F801226951EAC2019A
:1021F00001602078000751D5606900283DD001209A
:10220000A0490860FEF7EEFE05009F4800688007C1
:1022100044D4FEF7E7FE401B0328F6D3032029E150
:10222000E068002818D0012098490860FEF7DAFE1F
:10223000050093480168890706D4FEF7D3FE401BCA
:102240000328F6D3032015E1016831F0F801226973
:1022500051EAC2010160CCE700208C490860FEF71A
:10226000C1FE0500864800688007C2D5FEF7BAFEA9
:10227000401B0328F6D30320FCE0002081490860BE
:10228000FEF7B0FE050080480068800706D5FEF71F
:10229000A9FE401B0328F6D30320EBE0207840077B
:1022A0006FD500267A4D2868C0000BD4002000901E
:1022B000286850F080502860286810F08050009006
:1022C00000980126734F3868C00511D4386850F45F
:1022D00080703860FEF786FE80463868C00507D4F7
:1022E000FEF780FEB0EB08000328F6D30320C1E020
:1022F000A068012805D16848016851F0010101601A
:1023000015E0A068052809D16348016851F004016F
:102310000160016851F00101016008E05E48016858
:10232000490849000160016831F004010160A068BA
:1023300000280FD0FEF756FE0700574800688007B8
:1023400018D4FEF74FFEC01B41F289318842F4D306
:1023500003208FE0FEF746FE07004F480068800725
:1023600008D5FEF73FFEC01B41F289318842F4D305
:1023700003207FE0F6B2012E03D1286830F08050B0
:102380002860A069002874D03B48006810F00C0059
:10239000082843D0A06902282FD1404E0020306089
:1023A000FEF720FE0700364D2868800106D5FEF7AF
:1023B00019FEC01B0328F6D303205BE0E169206A05
:1023C0000143606A51EA8011A06A4008401E51EA48
:1023D0000041E06A51EA0061284801600120306054
:1023E000FEF700FE04002868800142D4FEF7FAFDE3
:1023F000001B0328F7D303203CE000202749086096
:10240000FEF7F0FD04001E480068800131D5FEF79C
:10241000E9FD001B0328F6D303202BE0A069012867
:1024200001D1012026E015480068A16901291ED0CC
:1024300010F48001E269914219D110F03F01226A43
:10244000914214D147F6C0710140626AB1EB821F1C
:102450000DD110F44031A26A5208521EB1EB024F66
:1024600005D110F07060E16AB0EB016F01D001207E
:1024700000E00020BDE8F681083802400438024040
:1024800000380240800E4742743802400000474244
:1024900040380240007000407038024060004742FF
:1024A00038B50020002000901948016851F0805193
:1024B0000160006810F080500090009801201549DC
:1024C0000860FEF78FFD0500104C2068C00308D49B
:1024D000FEF788FD401B40F2E9318842F4D3032027
:1024E00012E001200C490860FEF77CFD0500206821
:1024F000800308D4FEF776FD401B40F2E9318842A4
:10250000F5D3032000E0002032BD0000047000403D
:102510004038024040000E4244000E4200B500BF69
:10252000130096469446103928BFA0E80C50FAD8FC
:102530005FEA417C28BF0CC048BF40F8042BC907A4
:1025400028BF20F8022B48BF00F8012B00BD000077
:1025500081B0002000900C48016851F48041016076
:10256000006810F480400090009800200090074818
:10257000016851F080510160006810F080500090B7
:10258000009801B0704700BF443802404038024014
:1025900062F30F2262F31F42401810F0030308D0C9
:1025A000C91A1FD3DB0748BF00F8012D28BF20F848
:1025B000022D130030B414461546103928BF20E907
:1025C0003C00FAD8490728BF20E90C0048BF40F872
:1025D000042D890028BF20F8022D48BF00F8012DE6
:1025E00030BC7047C91818BF00F8012DCB0728BFB1
:1025F00000F8012D7047000062B38B0708D0521E0F
:1026000011F8013B00F8013B00F024808B07F6D164
:10261000830740F0208000BF103A07D330B4B1E800
:102620003810103AA0E83810F9D230BC530724BF54
:10263000B1E80810A0E8081044BF51F8043B40F886
:10264000043BD20724BF31F8022B20F8022B44BFF1
:102650000B7803707047121F17D35B0009D151F834
:10266000043B20F8023B1B0C121F20F8023BF6D261
:102670000BE051F8043B00F8013B1B0A20F8023B39
:102680001B0C121F00F8013BF3D238BF121D521E63
:1026900024BF11F8013B00F8013BF8D87047000057
:1026A000FEE7FEE7FEE7FEE7FEE77047704770478C
:1026B00080B500F00FF801BD80B50448FDF7AEFE0F
:1026C00001BD80B50248FEF79EFD01BD6C000020F3
:1026D0000C00002003480168034A12788918016041
:1026E000704700BF180100200800002030B450F8E7
:1026F000041B79B10268436802440830DC0744BF18
:10270000A9F10104E31852F8045B43F8045B091FC4
:10271000F9D1ECE730BC704710B50749794418315E
:10272000064C7C44163404E00A68081D11448847AE
:102730000146A142F8D110BD2C0000004C00000061
:102740004EF68851CEF20001086840F4700008602F
:10275000BFF34F8FBFF36F8F4FF00070E1EE100AA1
:1027600070470000AFEDFFFF140100000C000020D7
:102770000000000079FFFFFF0C000000F8010000DE
:10278000000000200000000000F00DF8002801D03B
:10279000FFF7C2FFAFF300800020AFF30080FFF728
:1027A000F1F800F002F80120704700F001B80000D5
:1027B0000746384600F002F8FBE7000080B5AFF3AB
:1027C0000080024A11001820ABBEFBE72600020081
:1027D00000000000000000000102030406070809D1
:1027E0000148804701480047F127000801280008F8
:1027F0000248016851F470010160704788ED00E003
:10280000AFF30080FFF79CFFFFF7BEFF0006101636
:10281000000610160000000001020304FFF7FEBFCF
:10282000FFF7FEBFFFF7FEBFFFF7FEBFFFF7FEBFDC
:10283000FFF7FEBFFFF7FEBFFFF7FEBFFFF7FEBFCC
:10284000FFF7FEBFFFF7FEBFFFF7FEBFFFF7FEBFBC
:10285000FFF7FEBFFFF7FEBFFFF7FEBFFFF7FEBFAC
:10286000FFF7FEBFFFF7FEBFFFF7FEBFFFF7FEBF9C
:10287000FFF7FEBFFFF7FEBFFFF7FEBFFFF7FEBF8C
:10288000FFF7FEBFFFF7FEBFFFF7FEBFFFF7FEBF7C
:10289000FFF7FEBFFFF7FEBFFFF7FEBFFFF7FEBF6C
:1028A000FFF7FEBFFFF7FEBFFFF7FEBFFFF7FEBF5C
:1028B000FFF7FEBFFFF7FEBFFFF7FEBFFFF7FEBF4C
:1028C000FFF7FEBFFFF7FEBFFFF7FEBFFFF7FEBF3C
:1028D000FFF7FEBFFFF7FEBFFFF7FEBFFFF7FEBF2C
:1028E000FFF7FEBFFFF7FEBFFFF7FEBFFFF7FEBF1C
:1028F000FFF7FEBFFFF7FEBFFFF7FEBFFFF7FEBF0C
:10290000FFF7FEBFFFF7FEBFFFF7FEBFFFF7FEBFFB
:10291000FFF7FEBFFFF7FEBFFFF7FEBFFFF7FEBFEB
:10292000FFF7FEBFFFF7FEBFFFF7FEBFFFF7FEBFDB
:10293000FFF7FEBFFFF7FEBFFFF7FEBFFFF7FEBFCB
:10294000FFF7FEBFFFF7FEBFFFF7FEBFFFF7FEBFBB
:10295000FFF7FEBFFFF7FEBFFFF7FEBFFFF7FEBFAB
:10296000FFF7FEBFFFF7FEBFFFF7FEBFFFF7FEBF9B
:10297000FFF7FEBF100000000024F400010000007B
:0400000508002801C6
:00000001FF
