:020000040800F2
:100000009052002051B40008A9AE0008ABAE000821
:10001000ADAE0008AFAE0008B1AE000800000000B1
:1000200000000000000000000000000025A50008FE
:10003000B3AE000800000000CDA40008AD860008A3
:10004000F1B50008F5B50008F9B50008FDB50008E0
:1000500001B6000805B6000809B600080DB600088C
:1000600011B6000815B6000819B600081DB600083C
:1000700021B6000825B6000829B600082DB60008EC
:1000800031B6000835B6000839B600083DB600089C
:1000900041B6000845B6000849B600084DB600084C
:1000A00051B60008B5AE000855B6000859B60008AC
:1000B0005DB6000861B6000865B6000869B60008BC
:1000C0006DB6000871B6000875B6000879B600086C
:1000D0007DB60008BFAE000881B60008C9AE0008B2
:1000E00085B6000889B600088DB6000891B60008EC
:1000F00095B6000899B600089DB60008A1B600089C
:10010000A5B60008A9B60008ADB60008B1B600084B
:10011000B5B60008B9B60008BDB60008C1B60008FB
:10012000C5B60008C9B60008D3AE0008CDB60008B1
:10013000D1B60008D5B60008D9B60008DDB600086B
:10014000E1B60008E5B60008E9B60008EDB600081B
:10015000F1B60008F5B60008F9B60008FDB60008CB
:1001600001B7000805B7000809B700080DB7000877
:1001700011B7000815B7000819B700080000000003
:100180001DB7000821B7000825B7000829B70008E7
:100190002DB7000831B7000835B7000839B7000897
:1001A00000000000000000003DB7000838B5040062
:1001B000002C15D04FF4D87100222500280000F043
:1001C00099FF1E20C4F88800012084F8A0010120B6
:1001D00084F8A101DFF83C0B0460200000F0C3F8B4
:1001E00031BD80B5DFF8143A98420BD1DFF8241BFB
:1001F0000868002806D00122086810F5D67118009A
:1002000001F0CAF801BD38B50400002C05D122E088
:100210009DF80010200000F01FF86946200000F053
:10022000EAFE0028F4D101F099FE0500B4F8800040
:10023000002809D0D4F88400281AD4F888108842FD
:1002400002D3200000F0B4FE200000F087FC29005B
:10025000200000F0D5FC31BD38B504000D00002CA5
:1002600023D001F07BFEC4F884002800C0B20D2822
:1002700003D02800C0B20A2803D1200000F098FE65
:1002800013E0B4F880007F2808DB0020A4F8800089
:10029000DFF8841A200000F02AFD06E0B4F88000A0
:1002A000411CA4F8801080B2255431BD78B5C3B08C
:1002B0000400002C1DD0DFF8646A96F88B0000283B
:1002C00001D146A501E0DFF8585A307801F0D3FE9D
:1002D000030070690290706801900095DFF8482B68
:1002E0004FF4807103A802F0B5FA03A9200000F0D2
:1002F000E1FC44B070BD38B5CEB00400002C30D065
:10030000DFF8185AD5F8800002F0C6FACDE90C01E2
:10031000E86F02F0C1FACDE90A01A86F02F0BCFA59
:10032000CDE90801686F02F0B7FACDE90601286F40
:1003300002F0B2FACDE90401E86E02F0ADFACDE9BF
:100340000201A86E02F0A8FACDE90001DFF8DC2A6C
:100350004FF480710EA802F07DFA0EA9200000F083
:10036000A9FC4FB030BD80B5002806D0012210F5A1
:10037000D671DFF8880801F00FF801BD10B5DFF87D
:100380009449206800280DD0206890F8AC112068AE
:1003900000F051FE0122206810F5D671DFF85C08EC
:1003A00000F0FAFF10BD80B5DFF85018884201D187
:1003B000FFF7E4FF01BD10B50400002C01D00029B7
:1003C00000D109E0200000F00BF8002804D1DFF88C
:1003D000601A200000F06EFC10BD0000504F440079
:1003E0002DE9F8432DED088BADF50E7D04000B00D3
:1003F0000025002C01D0002B01D10020A8E3C5A6C8
:10040000320080213DA802F025FA3DA800F08AFCC8
:100410009DF8F400002801D1012099E325AB13AA2F
:10042000DFF8101A3DA802F05BFA012858D11398A2
:10043000002803D12000FFF739FF4FE0139801286F
:1004400003D12000FFF757FF48E01398022840D15E
:10045000DFF8C85895F88D00012802D1DFF8D809D7
:1004600000E0C7A0119095F88C001090686C02F025
:1004700013FACDE90E01286C02F00EFACDE90C0159
:10048000E86B02F009FACDE90A01A86B02F004FA60
:10049000CDE90801286B02F0FFF9CDE90601E86A11
:1004A00002F0FAF9CDE90401A86A02F0F5F9CDE904
:1004B0000201686A02F0F0F9CDE90001DFF87C2959
:1004C000C0215DA802F0C6F95DA9200000F0F2FB92
:1004D00004E0DFF87019200000F0ECFB012037E3A6
:1004E00000208DF8940000208DF8B40000208DF8D5
:1004F000D40035A800902DAB25AADFF84C193DA8F3
:1005000002F0EEF90128C0F29980DFF8401925A821
:1005100000F03EFD002860D09DF8B400002805D111
:10052000DFF80C19200000F0C5FB54E0DFF8EC17F1
:100530000878062802D04868002805D0DFF810198E
:10054000200000F0B7FB46E00878022805D0DFF86D
:100550000419200000F0AEFB3DE0B9A12DA800F089
:1005600017FD002815D001F05EFD01F056FD0120B9
:1005700084F8A201DFF8E018200000F09BFB94F85B
:10058000A001002827D0DFF8D418200000F092FB4B
:1005900021E0DFF88C172DA800F0FAFC002815D018
:1005A00001F047FD01F039FD012084F8A201DFF8D8
:1005B000A818200000F07EFB94F8A00100280AD0C3
:1005C000DFF89818200000F075FB04E0DFF86018F1
:1005D000200000F06FFB0120BAE2DFF8841825A8A4
:1005E00000F0D6FC002822D0DFF830070178062979
:1005F00002D04068002805D0DFF85418200000F031
:1006000059FB12E001F01BFD002084F8A201DFF885
:100610004818200000F04EFB94F8A001002804D0F8
:10062000DFF84018200000F045FB012090E2DFF8E1
:100630000018200000F03EFB012089E20422DFF8D0
:1006400028183DA802F060F9002840F043812020DE
:1006500000901DAB202215A93EA800F095FB0028B4
:1006600006D1DFF80818200000F024FB01206FE21B
:10067000DFF8A8663078062802D07068002806D017
:10068000DFF8EC17200000F015FB012060E2307865
:10069000022809D03078012806D0DFF8D8172000CA
:1006A00000F008FB012053E296ED098AD6ED0A8A94
:1006B00096ED0B9AD6ED0C9A96ED0EAAD6ED0FAAF2
:1006C00096ED10BAD6ED11BA96F88C7096F88D802A
:1006D000DFF8A41715A800F05BFC002809D012A9C8
:1006E0001DA800F01DFC002803D01298706201259F
:1006F000B9E0DFF8881715A800F04AFC00280BD0F5
:1007000012A91DA800F00CFC002805D01298B062B8
:100710000125A8E025730000DFF8641715A800F094
:1007200037FC002809D012A91DA800F0F9FB002809
:1007300003D01298F062012595E0DFF8481715A85C
:1007400000F026FC002809D012A91DA800F0E8FB43
:10075000002803D012983063012584E0DFF82817C1
:1007600015A800F015FC00280CD012A91DA800F057
:10077000D7FB002806D01298B063012573E000BFB4
:100780004E320000DFF8041715A800F001FC002825
:1007900009D012A91DA800F0C3FB002803D01298AD
:1007A000F06301255FE0DFF8E81615A800F0F0FB24
:1007B000002809D012A91DA800F0B2FB002803D020
:1007C0001298306401254EE0DFF8C81615A800F035
:1007D000DFFB002809D012A91DA800F0A1FB00280A
:1007E00003D01298706401253DE0DFF8AC1615A81F
:1007F00000F0CEFB00280FD014A91DA800F0ADFB1F
:10080000002809D01498002801D0012000E0002021
:1008100086F88C00012526E0DFF88096494615A869
:1008200000F0B6FB00280DD0B5A11DA800F0B0FB6C
:10083000002807D0002086F88D00012513E000BFB6
:10084000504F4400494615A800F0A2FB00280AD0EA
:10085000DFF8E4151DA800F09BFB002803D0012061
:1008600086F88D000125EDB2002D2CD001F0AEFBF5
:1008700000280ED0DFF82816200000F01BFA94F8AC
:10088000A001002824D0DFF81C16200000F012FA86
:100890001EE086ED098AC6ED0A8A86ED0B9AC6ED42
:1008A0000C9A86ED0EAAC6ED0FAA86ED10BAC6ED1B
:1008B00011BA86F88C7086F88D80DFF8B0152000AC
:1008C00000F0F8F904E0DFF8A415200000F0F2F9D8
:1008D00001203DE10422DFF8D0153DA802F014F814
:1008E000002840F0EE803EAB3200202115A801F038
:1008F000B1FF15A800F016FA9DF85400002806D1A3
:10090000DFF8A815200000F0D5F9012020E1DFF87C
:10091000681515A800F03CFB00280DD0DFF8FC039B
:10092000406A01F0B9FFCDE90001DFF88425C0215C
:100930005DA801F08FFFBEE0DFF8401515A800F0BC
:1009400027FB00280DD0DFF8D403806A01F0A4FF54
:10095000CDE90001DFF85C25C0215DA801F07AFF38
:10096000A9E0DFF81C1515A800F012FB00280DD037
:10097000DFF8A803C06A01F08FFFCDE90001DFF8BE
:100980003825C0215DA801F065FF94E0DFF8F4147C
:1009900015A800F0FDFA00280DD0DFF88003006BE9
:1009A00001F07AFFCDE90001DFF81025C0215DA834
:1009B00001F050FF7FE0DFF8D01415A800F0E8FA4E
:1009C00000280DD0DFF85403806B01F065FFCDE9FE
:1009D0000001DFF8EC24C0215DA801F03BFF6AE0D4
:1009E000DFF8A81415A800F0D3FA00280DD0DFF81E
:1009F0002C03C06B01F050FFCDE90001DFF8C424E7
:100A0000C0215DA801F026FF55E0DFF8841415A889
:100A100000F0BEFA00280CD0C048006C01F03CFF8A
:100A2000CDE90001DFF8A024C0215DA801F012FF8C
:100A300041E0DFF8601415A800F0AAFA00280CD0F5
:100A4000B648406C01F028FFCDE90001DFF87C24B6
:100A5000C0215DA801F0FEFE2DE0DFF83C1415A8D2
:100A600000F096FA002809D0AC4890F88C30DFF8F6
:100A70006024C0215DA801F0EDFE1CE0DFF81C142D
:100A800015A800F085FA00280FD0A44890F88D0032
:100A9000012802D1DFF8A03300E019A3DFF83424E5
:100AA000C0215DA801F0D6FE05E0DFF80024C021DA
:100AB0005DA801F0CFFE5DA9200000F0FBF8012049
:100AC00046E00522DFF810143DA801F01DFF0028C4
:100AD0003DD10DF1F9033200202125A801F0BAFE25
:100AE00025A800F01FF98D480178062902D040683A
:100AF000002807D0DFF8E413200000F0DBF824E042
:100B00004E32000081A125A800F042FA002808D04A
:100B1000012084F8A001DFF8C813200000F0CAF813
:100B200013E07BA125A800F033FA002808D00020AC
:100B300084F8A001DFF8A813200000F0BBF804E05F
:100B4000DFF8A013200000F0B5F8012000E000203D
:100B50000DF50E7DBDEC088BBDE8F28370B5040089
:100B6000002C4AD06D4E7068D4F8A85130EA0505C3
:100B7000002D03D17068C4F8A8013EE0E80704D551
:100B8000DFF86413200000F095F8E80604D5DFF8DC
:100B90005C13200000F08EF8A80604D5DFF850138F
:100BA000200000F087F8680704D5DFF8481320001C
:100BB00000F080F8280704D5DFF83C13200000F08F
:100BC00079F8A80704D5DFF83413200000F072F894
:100BD000680603D5CA49200000F06CF8280603D542
:100BE000C849200000F066F8E80503D5C649200092
:100BF00000F060F87068C4F8A80170BD3C4C00209B
:100C000038B50400002C54D094F8A00100280AD074
:100C100094F8A101002806D0002084F8A101BB4966
:100C2000200000F047F894F8A001002841D094F883
:100C3000A20100283DD0394DD4F8A4016969884249
:100C400037D02878052834D195F88600002830D090
:100C500095ED0C0AD5ED200AB4EE600AF1EE10FA1B
:100C600027DB95F88D0000280CD195F8840000282A
:100C700008D095ED0B0AD5ED1A0AB4EE600AF1EE34
:100C800010FA03DA95F88D00012812D195F88B003F
:100C9000002804D19E49200000F00CF803E09D4993
:100CA000200000F007F86869C4F8A401002084F867
:100CB000A20131BD38B505000C00002D01D0002C7B
:100CC00000D113E0200001F033FE0200100080B2DA
:100CD00000280BD04FF47A7392B221008E4800F0B6
:100CE00096FAD5F89401401CC5F8940131BD10B5B1
:100CF00090B004000B00894A4021684601F0AAFD2B
:100D000069462000FFF7D6FF10B010BD4F4E00001F
:100D10004F464600184E002060B300086C49002082
:100D200088B5000838B50500002D2CD0280001F04A
:100D3000FFFD040005E0002005EB040101F8010CB3
:100D4000641E002C07D005EB040010F8010C01F024
:100D50000AFE0028EFD1002400E0641C285D002872
:100D600004D0285D01F0FFFD0028F6D1002C0AD048
:100D700005EB040001F0DCFD0200521C05EB040150
:100D8000280001F009FE31BD2DE9F0478046894673
:100D900092461C00B8F1000F0AD0B9F1000F07D03D
:100DA000002C05D0BAF1000F02D0089D002D01D112
:100DB000002037E03D21404601F046FE0600002EAF
:100DC00001D100202EE0B6EB0807701C01F0B0FD49
:100DD000002F05D0002803D0574501D2A84201D3E7
:100DE00000201FE03A00CA464146504601F038FE56
:100DF000002009F80700731C11A22900200001F04F
:100E000029FD4846FFF78EFF2000FFF78BFF99F87A
:100E10000000002804D02078002801D0012000E044
:100E20000020C0B2BDE8F08728AE0008E0AD0008A1
:100E300070B3000880B3000890B5000890AC0008BB
:100E40002573000074B20008D4B20008ACB40008E6
:100E5000B8B40008C4B40008D0B40008E8B2000870
:100E6000DCB40008FCB2000898B5000890B3000894
:100E7000E8B40008F4B4000800B50008A0B5000804
:100E80000CB5000818B50008A0B30008B0B30008FE
:100E9000C0B30008D0B30008E0B3000824B50008D0
:100EA00030B50008F0B30008A8B5000800B4000889
:100EB00010B3000824B3000838B300088CB200084F
:100EC000E8B1000804B2000820B200083CB20008F3
:100ED00058B200084CB30008B0B5000810B40008C0
:100EE0003CB5000820B4000888AF0008ECAE00084C
:100EF00020AF0008B4AF000854AF0008E0AF00080E
:100F00000CB0000838B0000864B0000830B4000825
:100F1000A4B20008BCB200083C4C002048B5000850
:100F200038B505000C00002D01D0002C01D10020A7
:100F300012E06946280001F0EAFD0098A84203D0BB
:100F400000980078002801D0002005E051EC100B3B
:100F500001F0E2FD2060012032BD38B505000C0033
:100F6000002D01D0002C01D1002010E00A2269469A
:100F7000280001F0A5FE01000098A84203D00098C7
:100F80000078002801D0002001E02160012032BD5E
:100F900080B5002801D0002901D1002007E001F030
:100FA00093FE002801D1012000E00020C0B202BD64
:100FB00038B5A0B00400002C1BD0B4F88000002885
:100FC00017D0B4F8802021006D46280001F048FDBC
:100FD00000206946B4F8802088540020A4F88000DE
:100FE000D4F89001401CC4F8900169462000FFF736
:100FF000E2F921B030BD10B4002801D0002901D1A0
:10100000002016E0B0F88C21B0F88E311C0092B2AE
:10101000A4B2A24201D100200BE01A0092B2024415
:1010200092F88C200A705B1C03F0FF03A0F88E314D
:10103000012010BC704730B400281CD0B0F88C21BF
:10104000B0F88E31541C04F0FF042500ADB29BB201
:101050009D4205D1D0F89C11491CC0F89C110AE0B2
:1010600092B2024482F88C10A0F88C41D0F898110A
:10107000491CC0F8981130BC7047F0B402461068A3
:1010800095681318506803EB5004C0071DD54D44F4
:101090001BE013F8017B05F8017B491EF9D1A0B1D3
:1010A000B60813F8011B06F00306032E08BF13F859
:1010B000016B01EB06214942801C294405D011F83F
:1010C000016B05F8016B401EF9D1A3420ED013F855
:1010D000016B16F0030104BF13F8011BC91C300992
:1010E0000F28DAD113F8010B0F30D6E7F0BC02F16C
:1010F0000C00704762F30F2262F31F42401810F099
:10110000030308D0C91A1FD3DB0748BF00F8012D1D
:1011100028BF20F8022D130030B4144615461039AC
:1011200028BF20E93C00FAD8490728BF20E90C0075
:1011300048BF40F8042D890028BF20F8022D48BF81
:1011400000F8012D30BC7047C91818BF00F8012DF8
:10115000CB0728BF00F8012D704730B4002513E0FD
:1011600050F8042BD30744BFA9F101039A18091FB3
:10117000042942F8045BFAD213468C0744BF158059
:101180009B1CC90748BF1D7050F8041B0029E7D1FC
:1011900030BC704710B50400002C01D1012035E0AF
:1011A000A0690028FFD194F84100002805D1002053
:1011B00084F84000200001F0DFFD242084F8410085
:1011C0002068C06830F400502168C860200000F03A
:1011D00045FD2068006930F490402168086120686E
:1011E000406930F02A00216848612068C06850F4E6
:1011F00000502168C86000206064202084F841000D
:10120000202084F8420000206063002010BD2DE9FA
:10121000FC4106000D0014001F00002096F841005C
:10122000202851D1002D03D0200080B2002801D108
:1012300001204AE000207064212086F8410000F07F
:101240008DFE8046B484F484B068B0F5805F04D12C
:101250003069002801D1002412E02C0000250FE0A5
:10126000207831684860641C07E0002CF8D1288899
:10127000C005C00D31684860AD1CF08C401EF08484
:10128000F08C00280DD000974346002280213000CA
:1012900000F025FB0028E8D0202086F8410003203C
:1012A00013E00097434600224021300000F017FB76
:1012B000002804D0202086F84100032005E02020EB
:1012C00086F84100002000E00220BDE8F6812DE90B
:1012D000FC4106000D0014009846002096F84200DC
:1012E000202856D1002D03D0200080B2002801D143
:1012F00001204FE000207064222086F84200002088
:10130000306300F02BFE0700B485F485B068B0F5BB
:10131000805F04D13069002801D1002413E02C0043
:10132000002510E03068406810F07F00207029E050
:10133000002C1AD130684068C005C00D2880AD1C53
:10134000F08D401EF085F08D00281DD0CDF8008076
:101350003B0000222021300000F0C1FA0028E7D035
:10136000202086F84200032014E0B068B0F5805FCA
:1013700005D0B0680028D5D130690028D2D13068B6
:1013800040682070641CDBE7202086F842000020C3
:1013900000E00220BDE8F68180B590F84230202BB5
:1013A0000DD1002903D013009BB2002B01D10120E5
:1013B00006E00023036392B200F0D2FA00E00220BC
:1013C00002BD80B590F84230202B0DD1002903D00A
:1013D00013009BB2002B01D1012006E00023036320
:1013E00092B200F0DCFA00E0022002BD10B5040069
:1013F00020680C3050E8001F31F4F071206810F1C3
:101400000C0242E800100028F2D12068143050E8A5
:10141000001F49084900206810F1140242E800103A
:101420000028F2D1206B01280CD120680C3050E844
:10143000001F31F01001206810F10C0242E800108A
:101440000028F2D120684069000620D520681430B9
:1014500050E8001F31F08001206810F1140242E8CA
:1014600000100028F2D1A06B002810D00020A16B42
:101470000865A06B01F002FE002808D0A06B01F007
:1014800063FF202803D110206064032033E020682C
:101490004069400620D52068143050E8001F31F024
:1014A0004001206810F1140242E800100028F2D137
:1014B000E06B002810D00020E16B0865E06B01F0C4
:1014C000DDFD002808D0E06B01F03EFF202803D1AD
:1014D0001020606403200EE00020E0840020E085FE
:1014E00000206064202084F84200202084F841001D
:1014F00000202063002010BD38B50400206801687A
:101500002068C268206843690020002011F00F00A5
:10151000002807D18D0605D5950603D5200000F0DB
:1015200026FB47E1002879D0D80702D412F4907F37
:1015300074D011F00100C0B2002805D0D00503D549
:10154000606C50F001006064480708D513F001009A
:10155000C0B2002803D0606C50F0020060648807BD
:1015600008D513F00100C0B2002803D0606C50F021
:101570000400606408070AD5900604D413F0010340
:10158000DBB2002B03D0606C50F008006064606C2C
:10159000002842D0880604D5900602D5200000F02D
:1015A000E6FA20684069800910F00100616C0907C3
:1015B00001D400282CD0200000F062FA2068406995
:1015C000400621D52068143050E8001F31F040015A
:1015D000206810F1140242E800100028F2D1E06BFC
:1015E00000280DD00FF2F940E16B0865E06B01F0C7
:1015F00093FD002811D0E06BE16B096D88470CE08A
:101600002000FEF7EEFD08E02000FEF7EAFD04E012
:101610002000FEF7E6FD00206064CBE0206B01288F
:1016200040F0B880C80640F1B580D00640F1B280E5
:1016300000200090206800680090206840680090BA
:10164000009820684069400667D5E06B00684168F3
:10165000080080B2002850D00800A28D80B29042CD
:101660004BD2E185E06BC069B0F5807F3BD020684C
:101670000C3050E8001F31F48071206810F10C022A
:1016800042E800100028F2D12068143050E8001F12
:1016900049084900206810F1140242E800100028AF
:1016A000F2D12068143050E8001F31F0400120686A
:1016B00010F1140242E800100028F2D1202084F832
:1016C00042000020206320680C3050E8001F31F0F9
:1016D0001001206810F10C0242E800100028F2D13D
:1016E000E06B01F0CBFC02206063A18DE08D091A54
:1016F00089B2200001F0A4FE0EE0A08D89B28142E3
:101700000AD1E06BC069B0F5807F05D1022060632B
:10171000A18D200001F094FE4CE0A08DE18D411AD6
:10172000E08D002835D0080080B2002831D0206834
:101730000C3050E8002F32F49072206810F10C0346
:1017400043E800200028F2D12068143050E8002F30
:1017500052085200206810F1140343E800200028CA
:10176000F2D1202084F842000020206320680C3051
:1017700050E8002F32F01002206810F10C0343E80B
:1017800000200028F2D10220606389B2200001F01D
:1017900057FE0FE0080605D5100603D5200000F01F
:1017A000A7F907E0480605D5500603D5200000F04C
:1017B000D0F9FFE731BD01000020002091F8410081
:1017C00091F842100843C0B2704780B50100886BA1
:1017D00009680968C9053BD40021C18501680C313D
:1017E00051E8002F32F48072016811F10C0343E8D4
:1017F00000210029F2D10168143151E8002F52086C
:101800005200016811F1140343E800210029F2D1CC
:101810000168143151E8002F32F04002016811F1E3
:10182000140343E800210029F2D1202180F842105E
:10183000016B01290CD101680C3151E8002F32F005
:101840001002016811F10C0343E800210029F2D1D4
:1018500000214163016B012903D1818D01F0F0FD6D
:1018600001E0FEF7A0FD01BD80B5806B0121416361
:10187000016B012905D1818D490889B201F0E0FD94
:1018800001E001F0DEFD01BD10B50021846B206890
:101890004069C00910F0010094F84110212906D1D7
:1018A000002804D00020E084200000F0D8F8206850
:1018B0004069800910F0010094F84210222906D1F5
:1018C000002804D00020E085200000F0D9F8606CEA
:1018D00050F0100060642000FEF783FC10BD2DE97D
:1018E000FC4105000E0090461F00089C2868006817
:1018F0003040B04201D1012000E000204146C9B291
:1019000088422AD114F1010FF0D000F027FBC01B50
:10191000844201D3002C01D103201FE02868C06855
:101920004007E3D5802EE1D0402EDFD02868006844
:101930000007DBD500200090286800680090286828
:10194000406800900098280000F09AF80820686429
:10195000002085F84000012000E00020BDE8F6816D
:1019600081628285C28500214164222180F8421073
:101970000169002905D00168C96851F480710268C5
:10198000D1600168496951F0010102685161016843
:10199000C96851F020010068C1600020704713B58C
:1019A000040013000198A062A38500206064222037
:1019B00084F84200DFF88C05E16BC863DFF8880526
:1019C000E16B0864DFF88405E16BC8640020E16B1B
:1019D000086501A89BB202682068011DE06B01F058
:1019E00013FB002806D010206064202084F84200F9
:1019F000012033E0002000902068006800902068FB
:101A0000406800900098206900280CD020680C30B5
:101A100050E8001F51F48071206810F10C0242E878
:101A200000100028F2D12068143050E8001F51F057
:101A30000101206810F1140242E800100028F2D1E0
:101A40002068143050E8001F51F04001206810F168
:101A5000140242E800100028F2D1002016BD0168EF
:101A60000C3151E8002F32F0C002016811F10C0373
:101A700043E800210029F2D1202180F8411070476D
:101A800001680C3151E8002F32F49072016811F1B5
:101A90000C0343E800210029F2D10168143151E818
:101AA000002F52085200016811F1140343E800218D
:101AB0000029F2D1016B01290CD101680C3151E8E8
:101AC000002F32F01002016811F10C0343E80021ED
:101AD0000029F2D1202180F84210002101637047D3
:101AE00080B5806B0021C185FEF77BFB01BD000046
:101AF00090F8411021292AD18168B1F5805F0CD17D
:101B00000169002909D1016A0988C905C90D02685E
:101B10005160016A891C016205E0016A4A1C026287
:101B2000097802685160C18C491EC18489B20029BC
:101B30000BD10168C96831F080010268D160016889
:101B4000C96851F040010068C160002000E0022037
:101B5000704780B50168C96831F040010268D16002
:101B6000202180F8411001F06DFC002002BD80B5FD
:101B70000021002190F8421022296DD18168B1F531
:101B8000805F0CD10169002909D1816A026852681D
:101B9000D205D20D0A80816A891C816216E0826AB0
:101BA0008168B1F5805F05D08168002906D101699F
:101BB000002903D101684968117004E0016849688F
:101BC00011F07F011170816A491C8162C18D491E2B
:101BD000C18589B200293DD10168C96831F0200171
:101BE0000268D1600168C96831F480710268D1600F
:101BF000016849694908490002685161202180F85B
:101C0000421000214163016B01291FD100210163B2
:101C100001680C3151E8002F32F01002016811F117
:101C20000C0343E800210029F2D101680968C906C4
:101C300008D5002100910168096800910168496890
:101C400000910099818D01F0FBFB01E0FEF7ABFBF9
:101C5000002002E0002000E0022002BD2DE9FE4F3E
:101C600005002868016931F44051E868014328689B
:101C70000161A9682869014368690143E869014372
:101C80002868C268B248024011432868C1602868C9
:101C9000416931F44071A8690143286841612868AD
:101CA000AC49884203D02868AB49884203D101F08F
:101CB00076FC040002E001F067FC0400E869B0F57E
:101CC000004F40F09F805FF0640A022600275FF01B
:101CD00019085FF0000922000023A8FB020108FB9D
:101CE000031109FB0211CDE9000168680021A6FB80
:101CF000002306FB013307FB0033DDE9000101F09F
:101D0000C1FC6421B0FBF1F0029022000023A8FB8B
:101D1000020108FB031109FB0211CDE9000168680B
:101D20000021A6FB002306FB013307FB0033DDE99E
:101D3000000101F0A7FC834622000023A8FB02015A
:101D400008FB031109FB0211CDE9000168680021BD
:101D5000A6FB002306FB013307FB0033DDE900018E
:101D600001F090FC6421B0FBF1F00AFB10B0C00060
:101D700032306421B0FBF1F0400010F4F8700299A9
:101D800010EB0110029022000023A8FB020108FBC7
:101D9000031109FB0211CDE9000168680021A6FBCF
:101DA000002306FB013307FB0033DDE9000101F0EE
:101DB00069FC83462000002102000B00A8FB020101
:101DC00008FB031109FB02116A680023904699463B
:101DD000A6FB082306FB093307FB083301F052FC7E
:101DE0006421B0FBF1F00AFB10BA5FEACA0032309E
:101DF0006421B0FBF1F111F007010298091828687D
:101E000081609CE0042600275FF0640A5FF01908F7
:101E10005FF0000922000023A8FB020108FB031168
:101E200009FB0211CDE9000168680021A6FB00232F
:101E300006FB013307FB0033DDE9000101F022FC62
:101E40006421B0FBF1F0029022000023A8FB020104
:101E500008FB031109FB0211CDE9000168680021AC
:101E6000A6FB002306FB013307FB0033DDE900017D
:101E700001F008FC834622000023A8FB020108FBB6
:101E8000031109FB0211CDE9000168680021A6FBDE
:101E9000002306FB013307FB0033DDE9000101F0FD
:101EA000F1FB6421B0FBF1F00AFB10B0000132300D
:101EB0006421B0FBF1F010F0F000029910EB01107A
:101EC000029022000023A8FB020108FB031109FB7A
:101ED0000211CDE9000168680021A6FB002306FB82
:101EE000013307FB0033DDE9000101F0CBFB834642
:101EF0002000002102000B00A8FB020108FB0311D7
:101F000009FB02116A68002390469946A6FB082344
:101F100006FB093307FB083301F0B4FB6421B0FB77
:101F2000F1F00AFB10BA5FEA0A1032306421B0FB0C
:101F3000F1F111F00F010298091828688160BDE8DD
:101F4000F78F0000CB1700086918000889180008EF
:101F5000F369FFFF001001400014014001480068D0
:101F6000704700BF284E002038B590210022DFF8CE
:101F7000804825002800FFF7BDF800F0A0F801F028
:101F800099FC01F052FE00F061F8A06ADFF86418D5
:101F90000860DFF864085FF07E510160DFF85C08DC
:101FA0005FF08041016041F28830DFF8541808602A
:101FB0000020DFF8501808700020DFF84C18086087
:101FC00000202070012084F88A0031BD80B501F026
:101FD00081FC02BD38B50400DFF8145895F88A007A
:101FE000002819D0E868201AA96C884206D3EC6052
:101FF000200000F09BF8200000F0FCF82869201A6F
:10200000E96C884208D3142001F0A4FE2C61200062
:1020100000F0AAF900F05FFA31BD0120DFF8D01717
:1020200081F8870070470020DFF8C41781F88B0023
:1020300070470120DFF8B81781F88B007047012046
:10204000DFF8AC1781F888007047000080B50020E9
:1020500000F065FB002000F072FB002000F081FB27
:10206000002000F0A0FB002000F0ADFB9FEDBC0ABB
:1020700001F084FE01BDC0B2002809D002280DD0B5
:1020800009D3042810D00CD3062812D00FD313E0A4
:10209000DFF8780712E0DFF878070FE0DFF8740761
:1020A0000CE0DFF8740709E0DFF8700706E0ADA088
:1020B00004E0DFF86C0701E0DFF868077047DFF83D
:1020C0003007DFF864174162DFF860178162B1EE14
:1020D000040A80ED0B0ADFF858170163DFF8541784
:1020E000816380ED0F0ADFF850170164DFF84C17A9
:1020F00041644FF4967181643221C1644FF4FA5106
:10210000016549F64041416541F28831816540F6FB
:10211000B832C26540F2DC5202664166002180F8A6
:102120008C10002180F88D107047000038B5040035
:1021300000200090BFEE000A684601F071FE002802
:1021400015D19DED000AF1EE000AB4EE600AF1EE41
:1021500010FA02D59FED820A01E09DED000ADFF83A
:10216000900680ED1B0A012180F88510C4614FF4B0
:10217000FA7001F0EFFD01F0FBFEB5EE400AF1EE62
:1021800010FA07DBDFF8680680ED1A0A012180F8F3
:1021900084108461DFF8585601F0B0FF85ED1D0A08
:1021A00001F0CAFF85ED1E0A01F0EAFF85ED1C0A69
:1021B00095ED1C0AF0EE000AB4EE600AF1EE10FA9A
:1021C00002D59FED670A01E095ED1C0A85ED1C0A1A
:1021D00001F040FD00280CD1DFF864060068E867D4
:1021E000DFF860060068C5F88000012085F88600E9
:1021F0002C6231BD70B504000025DFF8F46596F857
:102200008500002809D0326EF169200000F06EF9D7
:10221000002802D0002086F8850096F88400002867
:1022200009D0F26DB169200000F060F9002802D0F9
:10223000002086F8840096F88600002809D0726E87
:10224000316A200000F052F9002802D0002086F800
:10225000860096F88D00002808D196F884000028A2
:1022600004D1F06D844201D355F002053078032883
:1022700002D03078052808D196F88500002804D1CE
:10228000306E844201D355F0040596F8860000288C
:1022900004D1706E844201D355F0080530780328CC
:1022A00005D03078042802D03078052813D196ED77
:1022B0000E0AD6ED1D0AB4EE600AF1EE10FA08D44B
:1022C00096ED1D0AD6ED0F0AB4EE600AF1EE10FA93
:1022D00001D555F010053078032802D03078052854
:1022E0001BD14FF47A72B168200000F0FFF800288B
:1022F00013D096ED1E0AD6ED110AB4EE600AF1EE87
:1023000010FA08D496ED100AD6ED1E0AB4EE600A53
:10231000F1EE10FA01D555F020053078032808D1E8
:10232000726DB168200000F0E1F8002801D055F08E
:1023300080053078052811D1DFF8C804007800281E
:102340000CD0DFF8BC040268DFF8BC040168200090
:1023500000F0CCF8002801D055F48075756070BD90
:102360000000000052554E0038B50400DFF88054DC
:102370006868002803D02100062000F090F8287833
:1023800000280AD001280FD002281CD0032828D00A
:1023900005285DD0062869D078E0FFF757FE2100B8
:1023A000012000F07CF879E0FFF750FE95F88500F9
:1023B000002807D095F88600002803D021000220CD
:1023C00000F06DF86AE0FFF741FE95F887000028FD
:1023D00006D06869401C68612100032000F05FF8A6
:1023E0005CE095ED090A00F006F995F888000028F0
:1023F00004D02100022000F052F828E095F88D006A
:1024000000280CD195F88400002808D095ED0B0A1F
:10241000D5ED1A0AB4EE600AF1EE10FA03DA95F877
:102420008D00012813D195ED0C0AD5ED200AB4EEEC
:10243000600AF1EE10FA0ADBAA6DA968200000F02C
:1024400055F8002803D02100052000F028F825E0E9
:10245000200000F053F800F018F995F888000028E3
:1024600003D02100022000F01AF817E0FFF7EEFD7C
:102470006868002803D095F88900002805D000205E
:1024800068602100012000F00AF807E0FFF7DEFD98
:10249000012068602100062000F001F831BD10B471
:1024A000DFF84C2313780400E4B2A34211D00300F8
:1024B000DBB2052B0BD0936ADFF83843236000238F
:1024C000DFF8404323700023DFF83C4323601070A3
:1024D000916010BC7047C648002180F88710002129
:1024E00080F88810002180F889107047401A9042C7
:1024F00001D3012000E00020C0B27047BC4B93ED37
:102500000A0A002293F88510002916D0D3ED1B0A81
:1025100093ED1C1AF4EE410AF1EE10FA0DD5D3ED4D
:102520001C0AB54991ED001A70EE810AB4EE600AFA
:10253000F1EE10FA01D5B0EE600A93F8861000298A
:1025400009D0D3ED0C0A93ED201AF4EE410AF1EE16
:1025500010FA00D5012293F88D1000290DD193F8BF
:102560008410002909D0D3ED0B0A93ED1A1AF4EE6A
:10257000410AF1EE10FA00D50122D2B2002A1ED093
:10258000A04A1178002906D1012111709E490860E6
:10259000984880ED000A99489649D1ED000A90EDDF
:1025A000001A70EE810AB4EE600AF1EE10FA0CD552
:1025B00091ED000AD0ED000A30EE200A05E000207F
:1025C00090490870002090490860D3ED0A0AB4EEE3
:1025D000600AF1EE10FA01D593ED0A0ADFED820AE6
:1025E000B4EE600AF1EE10FA01DB9FED800A81483B
:1025F00080ED000A704710B501F0C0FB92490870E9
:102600007B4C94F88B0000281DD1002000F0B9F815
:10261000012000F0A6F894F88C00012809D10020D0
:1026200000F07DF8002000F08AF8012000F0BBF8EF
:102630002AE0012000F073F8012000F080F800206B
:1026400000F0B1F820E094F88B0001281CD10120A3
:1026500000F097F8002000F084F894F88C0001282E
:1026600009D1002000F05BF8002000F068F801209C
:1026700000F099F808E0012000F051F8012000F086
:102680005EF8002000F08FF810BD10B501F076FB69
:102690006D490870564C94F88B0000281DD100201D
:1026A00000F06FF8012000F05CF894F88C0001282D
:1026B00009D1002000F033F8002000F040F801209C
:1026C00000F071F82AE0012000F029F8012000F064
:1026D00036F8002000F067F820E094F88B0001281D
:1026E0001CD1012000F04DF8002000F03AF894F8D9
:1026F0008C00012809D1002000F011F8002000F022
:102700001EF8012000F04FF808E0012000F007F863
:10271000012000F014F8002000F045F810BD80B54D
:10272000C0B2002805D000224021484801F066FED2
:1027300004E001224021454801F060FE01BD80B562
:10274000C0B2002806D001224FF400713F4801F0CA
:1027500055FE05E000224FF400713C4801F04EFEAA
:1027600001BD80B5C0B2002805D0002280213748C5
:1027700001F044FE04E001228021344801F03EFED5
:1027800001BD80B5C0B2002806D000224FF4807190
:102790002E4801F033FE05E001224FF480712B48F2
:1027A00001F02CFE01BD80B5C0B2002805D000228A
:1027B0000121274801F022FE04E0012201212448E2
:1027C00001F01CFE01BD80B5C0B2002805D0012279
:1027D00002211F4801F012FE04E0002202211C48E1
:1027E00001F00CFE01BD0000010048430000484319
:1027F0006C490020104E002004000020080000203A
:102800000C000020884E0020144E002060B5000807
:1028100094B4000868B5000870B50008A0B40008BA
:1028200078B5000880B500080000A0420000A04173
:10283000000020410000E0408FC275BD666666BFA3
:10284000204E0020244E0020874E0020000402402D
:102850000010024008B438B585B009AC00250494D6
:10286000039500290EBF01950190491E0291009524
:1028700004AB01A9074878441A3001F0F3FD01992F
:1028800001B10D70002858BF039806B030BC5DF848
:1028900008FB00BF9B010000C0F3C75181B1FF29B5
:1028A00006D0C110400721F0E04101F160517047AE
:1028B00041020CBF40F4E0016FF00041002070477E
:1028C00000F0004100020AD0B0FA80FC00FA0CF0DF
:1028D00001F16051A1EB0C5101EBD0214005704793
:1028E0000DB4C0B50A4604A800210190009101ABC7
:1028F00003A9044878440C3002F0CCFC06BC5DF817
:1029000010FB00BF7700000004E010F8013B6BB142
:10291000491C521E52B10B7890F800C09C45F4D06F
:1029200002D24FF0FF3070470120704700207047FF
:1029300000F10103810704D010F8011B820781B167
:10294000FAD10268A2F10131914311F0803104BF44
:1029500050F8042FF6E709BAB1FA81F100EBD10083
:10296000401CC01A704710B5044603F0FBFA01463C
:102970002046096ABDE81040084703681AB95A1E84
:10298000026008467047197811B94FF0FF30704760
:10299000591C01601878704781423ABF5318984219
:1029A00000F05EB88018990707D0521E24BF13F8B4
:1029B000011D00F8011DF6D8704781071BD1103AA0
:1029C00007D330B433E93210103A20E93210F9D28B
:1029D00030BC1032121F24BF53F8041D40F8041DF0
:1029E000F8D838BF121D521E24BF13F8011D00F87D
:1029F000011DF8D87047121FF3D3C10709D153F84E
:102A0000041D121F20F8041D4FEA31414180F6D207
:102A1000E7E753F8041D121F00F8041D4FEA3121A7
:102A2000A0F801104FEA3141C170F2D2D9E78268B3
:102A3000521C8260426832B10268531C03601170FC
:102A40004168491E41607047C9B202788A421AB192
:102A50001CBF10F8012FF9E718BF002070470000D5
:102A600062B38B0708D0521E11F8013B00F8013BFE
:102A700000F024808B07F6D1830740F0208000BF50
:102A8000103A07D330B4B1E83810103AA0E8381043
:102A9000F9D230BC530724BFB1E80810A0E80810F1
:102AA00044BF51F8043B40F8043BD20724BF31F83F
:102AB000022B20F8022B44BF0B7803707047121FC3
:102AC00017D35B0009D151F8043B20F8023B1B0CE3
:102AD000121F20F8023BF6D20BE051F8043B00F83D
:102AE000013B1B0A20F8023B1B0C121F00F8013BA4
:102AF000F3D238BF121D521E24BF11F8013B00F85B
:102B0000013BF8D87047000041EC100B01BD80B5C7
:102B100003F0BAFCF8E7000001F000428B1AA3F1C1
:102B20006051B1F5801F0ADBB1F17F6F1FD242EA1D
:102B3000C102C10071F1004142EB507070470B15AA
:102B4000C3F10903212B10D2890241EA905180027E
:102B50000128494141F0004121FA03F0C3F120036B
:102B6000994071F1004150417047100070476FF07B
:102B7000000013EB103F5CBF000E42EAC0507047EC
:102B80002DE9F84F84B00E4617460BB100221A60AB
:102B90000446A04601E008F1010898F80000FFF79C
:102BA000E2FE0028F7D198F800002D2816BF2B2848
:102BB00018F8015B2B25002F019603D4012F01D0BB
:102BC000252F03DB002E55D0346053E0002F0CDDA1
:102BD000102F04BF98F80000302802BF98F80100B9
:102BE00040F02000782811D10CE098F8000030283F
:102BF00018BF0A270AD198F8010040F02000782871
:102C000003D1102708F1020800E00827CDF80C8056
:102C100001E008F1010898F800003028F9D0064ECC
:102C20007E4414364FF0000906F12800CDF80880E4
:102C3000CA468DF800000BE0088100009DF80010E6
:102C4000401ACA465FFA80FB07FB09B908F1010880
:102C500098F8000003F01BFC01463A4606F12800F4
:102C600003F020FC0028E9D10399414504D10198E3
:102C700000B10460002020E00299F05DA8EB0101A2
:102C8000081A002810D406DCB9EB0B0103D3B1FB02
:102C9000F7F0504508D0AFF30080049808B1012147
:102CA00001604FF0FF3903E02D2D08BFC9F1000985
:102CB000019808B1C0F80080484605B0BDE8F08F23
:102CC00000BF00235CE7000010F8012B11F8013B66
:102CD0000AB19A42F8D0D01A7047000080B58448F3
:102CE000844901605FF4E13141600021816000218D
:102CF000C160002101610C2141610021816100213D
:102D0000C161FEF747FA002801D003F072FC01BD53
:102D100080B57948794901605FF4E1314160002173
:102D200081600021C160002101610C21416100210D
:102D300081610021C161FEF72DFA002801D003F066
:102D400058FC01BD80B56E486E4901605FF4E13109
:102D50004160002181600021C160002101610C21DE
:102D60004161002181610021C161FEF713FA002851
:102D700001D003F03EFC01BD38B586B004006846C2
:102D8000142103F047FC20685A4988424FD10020A3
:102D900005905D48016851F010010160006810F075
:102DA000100005900598002005905848016851F0E2
:102DB00001010160006810F00100059005984FF4D2
:102DC000C060009002200190002002900320039038
:102DD0000720049069464E4801F012FA4D4D4E48C6
:102DE00028605FF0006068600020A8600020E86054
:102DF0004FF480602861002068610020A8610020F5
:102E0000E8610020286200206862280000F08CF849
:102E1000002801D003F0EDFBE563AC63002205213F
:102E2000252003F051FC252003F05FFC5DE02068C5
:102E3000324988422FD1002005903848016851F46A
:102E400080210160006810F4802005900598002022
:102E500005902E48016851F008010160006810F0EB
:102E60000800059005984FF44070009002200190F2
:102E70000020029003200390072004906946284810
:102E800001F0BEF900220521272003F01DFC2720B8
:102E900003F02BFC29E020681A49884225D1002044
:102EA00005901948016851F020010160006810F098
:102EB000200005900598002005901448016851F005
:102EC00004010160006810F0040005900598C0201E
:102ED000009002200190002002900320039008201F
:102EE000049069460F4801F08BF907B030BD00002F
:102EF000F44B0020001001403C4C002000480040F2
:102F0000844C002000140140443802403038024014
:102F100000000240FC49002040640240403802406A
:102F2000000C02400008024038B504000020FFF702
:102F300015F80500002C01D1012064E0606A00282A
:102F4000022084F83500002084F8340020680068EE
:102F5000400840002168086020680068C0070BD561
:102F6000FEF7FCFF401B0628F6D3202060650320F7
:102F700084F83500032046E020680168DFF82C045F
:102F800001406268A0680243E0680243206902438E
:102F900060690243A0690243E0690243206A024378
:102FA0001143606A042803D1E26A206B0243114393
:102FB0002068016020684569ED08ED00606A0543FE
:102FC000606A042810D1A06A0543E06A00280BD08B
:102FD000200000F0F1F9002806D0402060650120B3
:102FE00084F8350001200EE020684561200000F0E3
:102FF000C4F93F22E16D8A408260002060650120B3
:1030000084F83500002032BD70B504000025A66D9F
:1030100094F83400012801D102202EE0012084F828
:10302000340094F83500012821D1022084F83500BD
:1030300000206065200000F089F93F21E06D8140AB
:10304000B1602068006850F0160021680860206CAC
:10305000002805D02068006850F00800216808604A
:103060002068006850F001002168086003E000203B
:1030700084F8340002252800C0B270BD70B5040089
:10308000A56DFEF76BFF060094F83500022806D008
:1030900080206065002084F8340001203BE0206837
:1030A000006830F01600216808602068406930F040
:1030B000800021684861206C002802D1A06C0028A3
:1030C00005D02068006830F008002168086020689A
:1030D0000068400840002168086020680068C00758
:1030E0000ED5FEF73BFF801B0628F6D32020606537
:1030F000032084F83500002084F8340003200AE01F
:103100003F21E06D8140A960012084F83500002056
:1031100084F83400002070BD90F83510022903D0E7
:1031200080214165012009E0052180F83510016802
:103130000968490849000068016000207047F8B537
:10314000040000200090DFF8680200684FF4165178
:10315000B0FBF1F5A66D37680821E06D11FA00F0BB
:10316000074210D02068006840070CD5206800682E
:1031700030F0040022681060E06D8140B160606D45
:1031800050F001006065E06D3900C140C8070BD503
:1031900020684069000607D50121E06D8140B160DB
:1031A000606D50F0020060650421E06D11FA00F0DE
:1031B00007420AD020680068800706D5E06D81408C
:1031C000B160606D50F0040060651021E06D11FA8F
:1031D00000F007422CD020680068000728D5E06D79
:1031E0008140B16020680068400311D52068006804
:1031F000000306D4206C00281AD02000216C8847D8
:1032000016E0A06C002813D02000A16C88470FE0C6
:1032100020680068C00505D42068006830F0080008
:1032200021680860206C002802D02000216C8847AB
:103230002021E06D11FA00F007425FD0206800689D
:10324000C0065BD5E06D8140B16094F8350005287B
:1032500028D12068006830F01600216808602068D6
:10326000406930F0800021684861206C002802D15C
:10327000A06C002805D02068006830F008002168A4
:1032800008603F21E06D8140B160012084F8350085
:10329000002084F83400206D002802D02000216D29
:1032A000884750E020680068400311D52068006816
:1032B000000306D4606C002820D02000616C884791
:1032C0001CE0E06B002819D02000E16B884715E076
:1032D00020680068C0050BD42068006830F010003A
:1032E00021680860012084F83500002084F834004B
:1032F000E06B002802D02000E16B8847606D002859
:1033000021D0606DC00718D5052084F835002068ED
:10331000006840084000216808600098401C009048
:10332000854204D320680068C007F6D4FFE7012077
:1033300084F83500002084F83400E06C002802D0C6
:103340002000E16C8847F1BD406D704730B40468DF
:10335000246834F4802405682C6004686360836802
:10336000402B04D103689A600068C16003E00368E1
:1033700099600068C26030BC7047017801F0FF01BD
:1033800010391822B1FBF2F10A4A525CC2650429D5
:1033900005D30168890A8902091D816503E0016876
:1033A000890A89028165806D704700003F8010F0B6
:1033B00034000020B8B5000802000020936A91692B
:1033C000002914D1002B05D0022B03D007D3032BE7
:1033D0000BD00BE0D16AC90100D501202EE0D16AE3
:1033E000B1F1C07F00D1012028E027E026E09169FB
:1033F000B1F5005F15D1002B05D0022B03D004D30B
:10340000032B07D00CE0012018E0D16AC90100D5D8
:10341000012013E0D16AB1F1C07F00D101200DE09D
:103420000CE0002B022B02D9DB1E02D006E00120AB
:1034300004E0D16AC90100D50120FFE7C0B270479E
:1034400070477047704700002DE9F04104000E00FE
:10345000002C01D1012092E0634D286810F00F008C
:10346000B04207D22E70286810F00F00B04201D091
:10347000012084E02078800716D52078400704D505
:103480005A48016851F4E05101602078000704D5E2
:103490005648016851F46041016054490A6832F0AD
:1034A000F002A06802430A602078C00735D5606842
:1034B000012805D14E480068800313D401205EE046
:1034C0006068022802D06068032805D14848006877
:1034D000800107D4012052E045480068800701D4EC
:1034E00001204CE0414F3968890889006068014338
:1034F0003960FEF733FD8046386810F00C006168D3
:10350000B0EB810F09D0FEF729FDB0EB080041F2C6
:1035100089318842F0D3032031E0286810F00F0091
:10352000864207D22E70286810F00F00B04201D0FA
:10353000012024E02078400706D52C490A6832F49F
:10354000E052E06802430A602078000707D5274868
:10355000016831F46041226951EAC201016000F062
:1035600051F82449214A1268C2F30312895CC84009
:10357000214908602148006803F0C6F80020BDE832
:10358000F0811D480068704780B5FFF7FAFF1C49BD
:10359000164A1268C2F38222895CC84002BD80B517
:1035A000FFF7EFFF1649114A1268C2F34232895CF5
:1035B000C84002BD0F2202600C4A136813F00303D7
:1035C0004360136813F0F0038360136813F4E0534F
:1035D000C3601268D20812F4E05202610248006827
:1035E00010F00F0008607047003C024008380240AD
:1035F0000038024040B400083400002010000020D1
:10360000C0B5000810B50020002000200020194897
:10361000006810F00C00002804D0042804D008280A
:1036200004D025E0144824E0144822E0144C226819
:1036300012F03F022068400209D52068C0F38810CC
:103640000E49A1FB0001002300F01CF808E02068EF
:10365000C0F388100849A1FB0001002300F012F814
:103660002168C1F30141491C4900B0FBF1F000E0C1
:10367000014810BD083802400024F40040787D0164
:1036800004380240BBBBE1B1B2F5803F80F07E80E0
:10369000022A1ED98C46B1FBF2F102FB11C31B04B6
:1036A00043EA1043B3FBF2FC02FB1C3380B240EA56
:1036B0000343B3FBF2F002FB103240EA0C4000235C
:1036C0007047022A05D98446B0FBF2F002FB10C213
:1036D00070474AB105D100F0010249085FEA3000A5
:1036E000704700220023704703F064B80B0002000B
:1036F000002100207047904271EB030CF6D3B3F524
:10370000803F2FD2F0B5B3FA83F7B1FA81F4A7F175
:103710000F0E3D1B5340CEF1200602FA0EF2F3418C
:103720005340B5F10F0746D80F3C2C444140C4F13B
:103730002006A040F1414140B1FBF3F603FB161116
:10374000A2FB0645001BA94102D2761E80185941F2
:1037500080EA010221FA0EF362FA0EF200215A40C9
:103760003046F0BD30B4B1FBF3FC03FB1C11A2FBEF
:103770000C45001BA94103D2ACF1010C8018594142
:1037800030BC02460B46604600217047B2F1807F94
:1037900065D3F0B5B2FA82F7B1FA81F4C7F10F063A
:1037A0003D1B22FA06F307F1110EF24120355A4073
:1037B000B5F10F07B8D94140C4F12006A040F1414E
:1037C0004140B1FBF3FC03FB1C11A2FB0C45001BA9
:1037D000A94103D2BCF1010C801859410F2F12D31B
:1037E0000F3FC90341EA5041B1FBF3F603FB161149
:1037F000A2FB0645D4EBC030A94102D2761E801848
:10380000594146EACC3C07B34140C7F12006B840D5
:10381000F1414140B1FBF3F603FB1611A2FB064553
:10382000001BA94102D2761E8018594180EA01028C
:1038300021FA0EF3C7F1200462FA0EF20CFA07F037
:103840005A402CFA04F13043F0BD80EA010221FA1B
:103850000EF3002162FA0EF260465A40F0BD8C462B
:10386000B1FBF2F102FB11C31B0243EA1063B3FB8D
:10387000F2FC02FB1C331B024CEA002043EA1063FB
:10388000B3FBF2FC02FB1C331B024CEA002043EAB0
:103890001063B3FBF2FC02FB1C331B024CEA00205A
:1038A00043EA1063B3FBF2FC02FB1C324CEA00203B
:1038B0000023704710B500F006F90400200000F066
:1038C000C6F8002801D1002003E0200000F09BF89A
:1038D000012010BDF8B594B000200090002006A88B
:1038E00000F060F800F0EFF80400200000F0AFF8FE
:1038F000002808D0382206A9200002F05DFF002829
:1039000001D101204CE01421002201AC2000FDF780
:10391000F1FB00200190012002900B200390012078
:1039200004900220059002F0BAFF40F2F3106749BC
:103930000860694601A803F07DF807003800C0B2AE
:10394000002814D1624E0E24002501E0361D6D1CA6
:10395000A5420CD206A850F82520002331000220F1
:1039600002F05EFF07003800C0B20028EED002F07F
:10397000A6FFFFB2002F01D0002011E000F0A3F855
:103980000400200000F063F8002806D0382206A9C1
:10399000200002F011FF002801D0002000E00120EB
:1039A00015B0F0BD38B50400002C2BD03821002212
:1039B00025002800FDF79EFB46482060012060603E
:1039C0003820A0604449486AE060886A2061C86A7B
:1039D0006061086BA061886BE061C86B2062086C55
:1039E0006062486CA06291F88C00002801D0012030
:1039F00000E00020E06291F88D002063200000F0DC
:103A000053F8606331BD002820D0334AC168516249
:103A1000016991624169D16281691163C1699163F0
:103A2000016AD163416A1164816A5164C16A0029E3
:103A300001D0012100E0002182F88C10006B0128E8
:103A400001D1012000E0002082F88D00704710B500
:103A50000400002C01D1002025E020681D49884287
:103A600001D000201FE06068012801D000201AE08A
:103A7000A068382801D0002015E0E06A022801D3B0
:103A8000002010E0206B002804D0206B012801D01A
:103A9000002008E0200000F007F8616B814201D0AF
:103AA000002000E0012010BD10B401000B483424B8
:103AB000002304E0CA5C5040094A50435B1CA34207
:103AC000F8D310BC70470248704700000C3C02401D
:103AD00000000E08474643506C490020C59D1C81DC
:103AE0009301000180B503F0AEF801BD80B503F08D
:103AF000C4F801BD80B5882003F01DF9C0B202BD35
:103B000080B5892003F017F9C0B202BD10B50400DA
:103B1000200080B2000AC0B203F00DF9C0B2002844
:103B200001D0012004E02000C0B203F004F9C0B2CB
:103B300010BD10B5FFF7D6FFFFF7DCFF0400200033
:103B4000C0B2002804D143F2A200FFF7DFFF040057
:103B5000FFF7CCFF2000C0B210BD3EB5FFF7C2FF9B
:103B6000FFF7C8FF04002000C0B2002804D143F2D0
:103B70008260FFF7CBFF04002000C0B2002808D10C
:103B80004FF47A7003F030F8FFF7ACFFFFF7B8FF9F
:103B900004002000C0B200281AD16D46002003F0B6
:103BA000F5F86871002003F0F1F82871002003F0A7
:103BB000EDF88DF80300002003F0E8F8A87000206D
:103BC00003F0E4F86870012003F0E0F88DF80000DD
:103BD000FFF78CFF2000C0B2002814D15A49684674
:103BE0000A68437952EA03620A600A68037952EA72
:103BF00003420A600A68837852EA03220A600A686C
:103C0000407802430A602000C0B23EBD80B5FFF795
:103C100069FFFFF76FFF0100C9B2002903D142F22B
:103C20003010FFF773FFC0B202BD10B5FFF781FF80
:103C30000400142000F08EF82000C0B2002802D149
:103C4000FFF78BFF0400E4B2002C01D1FFF7DEFF89
:103C500010BD0000FEB500240025FFF743FFFFF76D
:103C600049FF06003000C0B2002804D14FF4604084
:103C7000FFF74CFF06003000C0B2002804D1FFF768
:103C800031FFFFF73DFF06003000C0B200281AD117
:103C90006F46002003F07AF87871002003F076F880
:103CA0003871002003F072F88DF80300002003F053
:103CB0006DF8B870002003F069F87870012003F007
:103CC00065F88DF80000FFF711FF3000C0B2002842
:103CD0002ED16946487954EA00240879044388784B
:103CE00055EA002548780543A4B200EE104AB8EE24
:103CF000400ADFED110A20EE200ADFED100A80EE07
:103D0000200ADFED0F0A30EE200A104880ED000A8D
:103D1000ADB200EE105AB8EE400ADFED0A0A20EE0E
:103D2000200ADFED060A80EE200A094880ED000A2D
:103D30003000C0B2FEBD000000002F4300FF7F47EF
:103D4000000034C20000C8421C4E0020204E00205B
:103D5000244E002038B50400FEF700F9050014F1E8
:103D6000010F02D0044800782418FEF7F7F8401B32
:103D7000A042FAD331BD00BFB800002070B5DFED1E
:103D8000530A20EE200ABDEEC00A10EE100A504C75
:103D900002212170062161700021A1700021E170D3
:103DA000010089B2090A217160710621200000F02A
:103DB0009BF8A07180B2000AE071464E4FF4FA738E
:103DC000082221003000FDF722FA002801D001204E
:103DD00024E0414D4FF4FA73082229003000FDF72A
:103DE00076FA002801D0012018E02878022814D1A2
:103DF0006878062811D1A878A17888420DD1E87892
:103E0000E178884209D128792179884205D16879F9
:103E10006179884201D1002000E0012070BD0000DE
:103E2000F8B504002D4D0220287004206870002091
:103E3000A8700020E8700020287101206871062118
:103E4000280000F051F8A87180B2000AE87108213A
:103E50000022234E37003800FDF74CF91D4F4FF478
:103E6000FA73082229003800FDF7D1F9002801D0A3
:103E700001202AE00120FFF76DFF4FF4FA730722BB
:103E800031003800FDF723FA002801D001201CE0A2
:103E90003078022805D17078042802D1B078022841
:103EA00001D0012011E00F48F178327952EA012265
:103EB0000280008800EE100AB8EE400ADFED030A27
:103EC00080EE200A84ED000A0020F2BD0000C84206
:103ED000B84D0020F44B0020C04D0020C84D0020FC
:103EE000D04D0020844E002030B402004FF6FF7009
:103EF000002400E0641C2300DBB20D009BB2ADB2D5
:103F0000AB4215D22300DBB2D35C584000231D0026
:103F1000EDB2082DEEDAC50702D480B2400805E004
:103F200080B205004AF2010090EA55005B1CEEE702
:103F300080B230BC704738B504000821002225004B
:103F40002800FDF7D7F801202070042060700020C1
:103F5000A0700020E0700020207101206071062117
:103F60002000FFF7C1FFA07180B2000AE07131BDEF
:103F7000F8B52DED028BBFEE008A3A4D2800FFF711
:103F8000DAFF394C4FF47A73082229002000FDF73C
:103F90003EF9002802D0B0EE480A5DE00721002279
:103FA000324D2E003000FDF7A5F808210022304EDA
:103FB00037003800FDF79EF8072229002000FDF7A2
:103FC00000FA002802D0B0EE480A45E0FDF7C6FF2F
:103FD000070017F57A772000FDF7EDFB222809D1BD
:103FE000FDF7BCFF8742F6D22000FDF7FFF9B0EEE7
:103FF000480A31E00722340029002000FEF730FD96
:104000003078012805D17078042802D1B0780228D0
:1040100002D0B0EE480A1FE005213000FFF764FF30
:10402000B279717951EA022180B289B2884202D014
:10403000B0EE480A10E00F49F2784FF480733079FF
:1040400003FB02020A80088800EE100AB8EE400A5C
:10405000DFED030A80EE200ABDEC028BF1BD00000B
:104060000000C842A04D0020F44B0020B04D0020BD
:10407000A84D0020804E002038B584B0040068466A
:10408000102102F0C7FA0094012001900420029050
:10409000564C6946200002F0D6FF002801D002F0FD
:1040A000A8FA200002F0DCFE002801D002F0A1FAFC
:1040B0000A21200002F06BFF002806D14C4D2000A1
:1040C00002F0BEFF2880288800E0002005B030BD47
:1040D00070B504000025002605E02000FFF7CCFFA6
:1040E00015FA80F5761C0A2EF7DB00EE105AB8EEB2
:1040F000400AF2EE040A80EE200A70BD80B502206C
:10410000FFF7E6FFDFED340A20EE200ADFED330A89
:1041100020EE200ADFED320A80EE200ADFED310AC0
:1041200020EE200A3348F7EE000A20EE200A80ED48
:10413000000A90ED000A01BD80B50120FFF7C8FF1D
:10414000DFED250A20EE200ADFED240A20EE200A0A
:10415000DFED230A80EE200ADFED220A20EE200A9E
:104160002548F2EE040A80EE200AF0EE000ABFEEC7
:10417000001A00EE201A80ED001A90ED000A01BD31
:1041800080B50520FFF7A4FFDFED130A20EE200A1B
:10419000DFED120A20EE200ADFED110A80EE200A80
:1041A000DFED100A20EE200A1448F2EE040A80EE39
:1041B000200ADFED0D0A20EE200A80ED000A90EDC6
:1041C000000AB5EE400AF1EE10FA01D500210160B7
:1041D00090ED000A01BD0000CDCC8C3F333353403D
:1041E0000000804585EB414000004843644B0020BF
:1041F000824E0020004E0020044E0020084E002079
:10420000F8B4002200220022002337E00A2704E04D
:10421000DFF810229042F9D10927FFB213F0030210
:10422000D2B2920097403E431A00920845F82260AD
:10423000DFF8F4512A68A2434E68F60200D5224303
:104240002A60DFF8E8512A68A2434E68B60200D51A
:1042500022432A60DFF8D8512A68A2434E68B60389
:1042600000D522432A60DFF8CC512A68A2434E6869
:10427000F60301D5144322002A605B1C102B80F04A
:10428000B280012515FA03F20C6814409442F4D16F
:104290000A7912F00302012A04D00A7912F003020B
:1042A000022A16D1866803271A00D2B2520097401C
:1042B000BE43CF681A00D2B2520097403E43866098
:1042C00042689D40AA434D68C5F300159D402A43AE
:1042D00042600A7912F00302032A0DD0C568032652
:1042E0001A00D2B252009640B5438E681A00D2B27C
:1042F000520096403543C5600A7912F00302022A43
:1043000017D11A00D20800EB8202156A0F2613F0AB
:104310000702D2B292009640B5430E6913F007022D
:10432000D2B29200964035431A00D20800EB8202C6
:104330001562056803261A00D2B252009640B543B2
:104340000E7916F003061A00D2B252009640354399
:1043500005604A6812F4403F8FD000220092364A2E
:10436000156855F480451560126812F48042009279
:10437000009A324D1A00920855F822600F2713F068
:104380000302D2B292009740BE432D4A904201D11F
:10439000002742E72B4A904201D101273DE72A4AF4
:1043A000904201D1022738E7284A904201D10327E1
:1043B00033E7274A904201D104272EE7254A90424D
:1043C00001D1052729E7244A904201D1062724E795
:1043D000224A904201D107271FE7214A90427FF4E9
:1043E00017AF082719E7F1BC7047006989B2084286
:1043F00001D0012000E00020C0B27047D2B2002AF4
:1044000002D089B2816102E089B2090481617047FA
:1044100042690B009BB2134089B2914351EA0341B8
:104420008161704700240240083C01400C3C01407F
:10443000043C0140003C014044380240083801403F
:10444000000002400004024000080240000C02404C
:10445000001002400014024000180240001C0240FC
:10446000002002402DE9F0439FB000BF65A6269CC6
:10447000DFF8B48A8DF83B40029100240B944FF092
:10448000FF37044691461D460AE019F8011B0298C1
:10449000A0470028029000F0A1800B98401C0B90D0
:1044A00099F8000050B12528EFD100210022059194
:1044B00006920791089209910A9203E00B98A5E0F1
:1044C00041F0010119F8010F2028F9D023280CD060
:1044D0002B2804D02D2805D0302809D080E041F0C9
:1044E0000201EFE741F00401ECE741F00801E9E7E0
:1044F00041F01001E6E70D920AE00D98404505DA1B
:1045000000EB800002EB4002303A0D9209F1010904
:1045100099F80020A2F130000A28EED399F80000A3
:104520002E2818BF0C9726D119F8010F2A2808D178
:104530002868286009F1010950F8042B28600C92C2
:1045400019E02D280CBF09F10109002000220C926E
:104550000BE040B90C9A424505DA02EB820203EB0C
:104560004203303B0C9309F1010999F80030A3F1A3
:1045700030020A2AEDD3ADF83810304699F8001011
:10458000FEF762FA08B119F8010B8DF83A009DF8B0
:104590003A00682805D199F8000068280CD16221FA
:1045A00006E06C2804BF99F800006C2804D1712142
:1045B0008DF83A1009F1010910A804902A4619F85B
:1045C000013B6946204600F061F838B910AA6946F7
:1045D000204600F08FF900287FF562AF384615E0DD
:1045E0002A2888D12A682A6052F8040B2A600028F9
:1045F0000D9003D540420D9041F0040109F10109ED
:104600008CE70000686A6C747A4C00001FB0BDE84B
:10461000F083622820D0682811D06A2803D06C2843
:1046200027D0712825D10868C01D20F00700086038
:10463000D0E9002308300860194610467047002A68
:104640000A680A60106803D0121D0A6000B217E001
:10465000121D0A6080B217E0002A0A680A6010681A
:1046600003D0121D0A6040B20AE0121D0A60C0B2F7
:104670000AE0002A0A680A60106803D0121D0A6066
:10468000C1177047121D0A600021704770B51C46A3
:104690000D46B4F125002E69114600F019811C3831
:1046A00068D0001F022865D9133842D0093861D07C
:1046B000801E16D0401E1ED0401E02285AD9001F50
:1046C00019D0401F00F08180401E32D0401E00F003
:1046D000CB80C01E00F0DA80801E2AD0C01E28D0F9
:1046E000FCE06869421C6A610A680A6052F8043B8F
:1046F0000A603354FCE095F83A000122FFF789FF85
:10470000C5E90001002904D56869411C69612D22B1
:104710000DE0288F810704D56869411C69612B224F
:1047200005E0C00721D56869411C69612022325427
:104730001BE095F83A000022FFF76BFFC5E9000186
:1047400095F83800010710D5D5E90023002B08BFE4
:10475000002A0AD044F02000782806D16869302168
:104760003154401C421C6A6134542146686930440B
:10477000E86087E00868C01D20F007000860D0E905
:10478000002308300860C5E90023D5E90001C80FFF
:1047900004D06869411C69612D220DE0288F8107D2
:1047A00004D56869411C69612B2205E0C00704D566
:1047B0006869411C69612022325468693044E860AC
:1047C0002146284600F0C4F992E005F13A025078FB
:1047D00020B14FF0FF340FF6202062E010786228FD
:1047E00008D0682824D06A2812D06C282ED07128CE
:1047F0000ED02BE00A680A6052F8040B0A6020B958
:104800004FF0FF340FF608204BE0E96A01706FE0CB
:104810000A680A6052F8040B0A6020B94FF0FF34AE
:104820000FF6EC103DE0EA6AD317C0E900235FE021
:104830000A680A6052F8040B0A6020B94FF0FF348E
:104840000FF6CC102DE0E96A018051E00A680A6099
:1048500052F8040B0A6020B94FF0FF340FF6B01085
:104860001FE0E96A016043E00A680A6052F8040B3D
:104870000A60002120F0000221F0FF33C5E9002387
:10488000EE607821284600F0BBF831E00868086047
:1048900050F8044B0860EC603CB94FF0FF340FF661
:1048A000881002F059FD201A70BD2E6B002E04D521
:1048B0002046FEF73DF8044608E032460021204637
:1048C00001F0F0FD002814BF041B3446AC610FE07A
:1048D0006869411C69612522325409E06969481CF4
:1048E000686125227254210002D0431C6B6134544C
:1048F000002070BD2DE9FC410F46064690467A6BBC
:104900007869396ABC6A121AB869521A796A121A35
:10491000F869521A121A97F83800141B41070FD47D
:104920002020002C8DF800000ADD254601236A4670
:104930003946304600F048FC00285DD16D1EF5D1A7
:104940007B6942463946304600F03EFC002853D190
:1049500030208DF800003D6A002D09DD01236A46F4
:104960003946304600F030FC002845D16D1EF5D1A7
:10497000BB69FA683946304600F026FC00283BD176
:1049800030208DF800007D6A002D08DD01236A4685
:104990003946304600F018FC70BB6D1EF6D1F86841
:1049A000B969FB6942183946304600F00DFC18BB66
:1049B00030208DF80000BD6A002D08DD01236A4615
:1049C0003946304600F000FCB0B96D1EF6D197F8BC
:1049D000380041070DD52020002C8DF8000008DD9F
:1049E00001236A463946304600F0EEFB20B9641ECA
:1049F000F6D10020BDE8F6814FF0FF30BDE8F6812A
:104A00002DE9FC4307466F293E6908BF082405D0FD
:104A100041F02000782814BF0A2410243C25D7E94F
:104A20000023642918BF69299046994605D1002BB7
:104A300003D5D8F1000869EB4909B9F1000F08BFA7
:104A4000B8F1000F1FD1386BE8B9082C4CD197F89A
:104A50003800010748D530203B2586F83B0043E06D
:104A600000280ED597F8380000F01400102808D15F
:104A70007B6B7969386A5B1A1B1A9A1A002AC8BFBD
:104A80003A62BDE8F3838DF800104046494622465D
:104A9000E317FEF7F7FD3032D0B26D1E3A280195CC
:104AA00004DB9DF80000A0F151018A1872554046C0
:104AB00049462246E317FEF7E5FD80465FEA010915
:104AC00008BFB8F1000F03D0F86871198842DCD331
:104AD000082C09D197F83800010705D5705D3028FA
:104AE00002D06D1E30207055C5F13C02BA617119BB
:104AF000F960386B8242B3DA821A3A624FF6EF708D
:104B0000398F01403987BDE8F3832DE9D04306464C
:104B10000F4614464FF00008DFF8109412E0E0074B
:104B200007D542464B463046394602F035FC06462C
:104B30000F464046494642464B4602F02DFC641063
:104B400080468946002CEAD130463946BDE8D083FC
:104B50002DE9F84F05468A464AF020048EB0D5E983
:104B60000089612C02AE09D0286B002848BF0620BE
:104B700003D408BF672C01D101202863D5E90001C7
:104B80004A005215521C0DD10B030BD0AAF1610142
:104B900003201A29A86102D20FF2A86110E00FF2D7
:104BA000A8610DE04A005215521C0ED10B030CD126
:104BB000AAF1610103201A29A86116D30FF29061AE
:104BC000E8680322FDF74CFFC0E1CDE90C01DDE907
:104BD0000C2323F00043B3F5801F0DD20027002BD8
:104BE00008BF002A019703D111E00FF26061E7E7E7
:104BF00001AA02F0A3FC0AE0CD48CE4900EB135015
:104C0000DDE90C2301900B40CB4910461943C5E95F
:104C10000001612C0DD1E86830210170821CBAF1CD
:104C2000610FEA600CBF7821582141706869801CCF
:104C30006861D5E90001CDE90C01DDE90C2333F011
:104C4000004104BF0028002300F04881612C40F09F
:104C5000A080286B494600284CBF4FF0210B00F183
:104C6000010B404600220023DDE90C8902F09EFC86
:104C700001990BF1010738BF89F00049091F002F86
:104C800001918DF808200DF1090040F33581A94903
:104C900000910646404649460022002302F09EFC51
:104CA00080F029814800400D00F11C0211D0002A3B
:104CB0000FDD40F2FF739A4205DBA04909F0004086
:104CC0000143002011E0009B194041EA0251404697
:104CD0000BE028F0000039F0004108BF00280FBFAA
:104CE00049461C22494602F091FC8046894602F062
:104CF0002BFDFF1F002F044609DD02F043FD024695
:104D00000B464046494602F04FFD80468946F01D5D
:104D1000072104E004F00F0200F8012D2411002CFB
:104D200001DD491EF6D5491E5CBF002200F8012DA9
:104D3000F9D5DCE00020194602AA0A4400E05B1E17
:104D400012F80149491E8442F9D00F2804D10DF10F
:104D50000900425C521C4254002904D50198001DF0
:104D600002AE5B1C0190581E0CD43118AAF13A0413
:104D70000A783032D7B23A2FA8BFA218401E01F8E5
:104D80000129F5D5286B002840F1A780591E296319
:104D9000A3E001996A4A47F29750414391FBF2F22E
:104DA000019229F00046D2F1070204DD4046314667
:104DB000FFF7ABFE0AE0524200206249FFF7A5FE72
:104DC00002460B464046314602F060FD8046662CA6
:104DD000286B06BF019F0A3706273F18142FC8BF4C
:104DE000142730208DF8080089460DF1090000E0F5
:104DF0003046002F34DD06464046494602F06AFE42
:104E000001460A4606F1080304200A26B2FBF6F61C
:104E100006EB860EA2EB4E02303203F8012C0A227A
:104E2000B6FBF2F202EB820EA6EB4E063036401EC7
:104E300003F8026DE9D1083F002F03F10806D7DD22
:104E4000084602F05BFE02460B464046494602F029
:104E5000ABFC00223C4B02F09FFA80468946CBE730
:104E60000DF10901401A0DF1090604E00199491EEE
:104E7000401E0191761C31783029F7D0662C02D182
:104E80000199491C03E0652C0CBF012100212B6B0B
:104E9000CB189842B8BF431E002B1ED4834204DABD
:104EA000F05C3528A8BF392000DA30201946721E80
:104EB00002EB010800E05B1E18F80199491E8145CC
:104EC000F9D0392802D1705C401C7054002904D5F7
:104ED0000198401C16465B1C0190019800B200909E
:104EE0001BB232465146284600F034F82EE0C61D6B
:104EF000002F3FF7CFAE30460DF10901401A0346AF
:104F00005845C8BF5B46002B0DF109063FF53AAF87
:104F10008342BFF60FAF0DF10900C15C07297FF78F
:104F200009AF0F2007E70000CBCCCC0C00002440D9
:104F300002FCFFFFFFFF0F800000E03F0000F07F5A
:104F4000A08601000000F03F84D797410FB0BDE874
:104F5000F08F00002DE9F84783B006468A461746D1
:104F6000984601F001F8B8F1000F406A356B90F8EF
:104F7000009002DC4FF00108B6A74AF02000BDF90E
:104F80003040662808BF641C15D0672840F0848034
:104F900014F1040FC0F28680AC4280F2838096F850
:104FA0003800641C010702D4A845B8BF454620B2AA
:104FB0002D1A48BF00250FFA84FAF068B169BAF1DA
:104FC000000F25DC4A1C30234354002D03DC96F8E7
:104FD0003800010703D5F06800F80290521C15EB69
:104FE0000A0FB8BF6C4220B2441941424445B8BFD1
:104FF000A046B26171620FFA88F5F561F068B36995
:105000002A4639461844FDF72BFD641BB462C4E000
:1050100022B29045084417DA42463946FDF720FD92
:10502000B0694044B061AAEB0801002D716203DC55
:1050300096F838100A0705D5F16801F80090F06974
:10504000401CF061B562A8E03946FDF709FDB06982
:10505000002D5044A8EB040803DC96F838100A072A
:1050600003D5F16801F80090401CB0610FFA88F098
:105070008542F368B069B8BFA8460FFA88F207EB1B
:105080000A011844FDF7ECFCB1690FFA88F00144FD
:10509000B161281A706280E0BAF1610F14D14FF04B
:1050A000700A16E0A84504DA96F838100A0758BFC7
:1050B00045466D1E48BF0025BAF1670F14BF4FF07B
:1050C000450A4FF0650A04E0BAF1410F08BF4FF0FE
:1050D000500AB169F368481CB061002D17F8012B24
:1050E0005A5403DC96F838100A071BD5F168431CA4
:1050F000B36101F80090002D14DDA8F101080FFA4A
:1051000088F039468542F768B8BFA8460FFA88F29A
:10511000F818FDF7A5FCB0690FFA88F108446D1A7C
:10512000B0617562F068B1690844002C80F800A095
:1051300003D42B224270811C03E02D214170644274
:10514000811C00206A460AE023460A2493FBF4F4FB
:1051500004EB8405A3EB450302F8013B401C24B299
:10516000002CF1DC012806DC4AF02002652A04BF8D
:10517000302201F8012B48B9302001F8010B07E07B
:10518000401E1DF80030303301F8013B0028F7DCE9
:10519000F268B0691044091AF16196F8380000F01D
:1051A000140010280DD17269B169706A8A18F1690A
:1051B0008218B06A8A188218706B8242BCBF821A49
:1051C000326204B0BDE8F087F8B505460E461746D2
:1051D0001C46002074B117F8011BB068A847B060E6
:1051E00030B1F06A401CF0620020641EF3D1F2BDC1
:1051F0004FF0FF30F2BD00007072696E74665F732D
:105200003A20256E20646973616C6C6F7765640069
:105210007072696E74663A2062616420256E206146
:105220007267756D656E74007072696E74665F7317
:105230003A2062616420257320617267756D656E26
:10524000740000006E616E004E414E00696E660093
:10525000494E46003000000003460846C168026916
:10526000491C521E002A0261C16003D40068012259
:10527000002118474FF0FF3070470346084611469B
:10528000C268521E11F1010FC26002D000680022F4
:10529000184770472DE9F84F88B04FF0FF3600915E
:1052A00037461B68129CDFF8045C01938DF81F40A1
:1052B0000023039302920FF60C480FF60049834631
:1052C00002E00298411C029102990878FDF74BFB1D
:1052D000B0B10398401C0390012200980021D847E8
:1052E0008246FDF740FB0028F3D10398401E1AF1D7
:1052F000010F0390E5D0009800225146D847E0E71F
:10530000DDF808A09AF8000028B9B84200DA38465B
:1053100009B0BDE8F08F25280BD10AF101000290F9
:1053200001782A2903BF401C029010F8011D0021BA
:1053300011E00398401C0390012200980021D847F7
:105340009AF800108842BCD0024669465846FFF7DA
:1053500094FF0020D9E78DF81C10002105910AE088
:105360000598A84205DA00EB800301EB43013039D0
:105370000591501C0290029A1178A1F130000A2880
:10538000EED3069648461178FDF75EFB20B10298F1
:10539000401C0290401E00788DF81D009DF81D00F5
:1053A000682805D10299087868280CD1622206E0A5
:1053B0006C2802BF029908786C2804D17122491C1C
:1053C0008DF81D200291029801784046FDF73CFBC4
:1053D000A8B90398401C0390012200980021D847E7
:1053E0008246FDF7C0FA0028F3D10398401E1AF157
:1053F000010F039003D0009800225146D847694618
:10540000584600F018F8002809DD002F9DF81E000E
:1054100048BF002700283FF454AF7F1C51E72CB150
:1054200010F1230F08BF30463FF472AF002F7FF515
:105430006EAF07466BE770B505460C460020A368C3
:10544000A0771E78253E6AD01C3E23D0361F022E40
:1054500020D9133E1AD0F61E7AD0B61F1AD0B61E27
:1054600012D0761E12D0761E022E13D9361F0DD002
:10547000761F13D0761E012E08D9361F4DD0B61ECA
:1054800004D0F61E02D070BD002263E02846BDE8BD
:10549000704058E12846BDE8704067E2207F002850
:1054A00047D1607F622808D068281CD06A280ED0B7
:1054B0006C2821D071280AD01EE06168616051F823
:1054C000040B616000281DD0E168017031E0616863
:1054D000616051F8040B6160002813D0E268D317B3
:1054E000C0E9002325E06168616051F8040B616048
:1054F00040B1E16801801CE06168616051F8040B13
:10550000616038B90FF6C41001F026FF4FF0FF3488
:10551000201A70BDE16801600BE001221AE0E0682A
:10552000401CE060012220680021A8470646252E85
:1055300001D1012070BD324621462846FFF79DFE6D
:1055400016F1010F02D14FF0FF3070BD002070BD89
:105550004FF0FF322846BDE8704021E0C9B208E0B4
:1055600003789942A4BF90F802C08C4514DAC01C9D
:10557000D21E032A09D343782D2BF1D010F801CB8A
:105580008C4518BF521EF4D106E03AB110F8013B29
:105590008B4218BF521EF8D101207047002070477F
:1055A0002DE9F04F14460026002C83B080460D46AE
:1055B0004FF0000B25D5A868411CA960084601786A
:1055C0005E2903BF401CA86010F801ADB246AF6869
:1055D00038785D280CBF781C38465D21FDF734FA19
:1055E000002800F0A080C11B0091A860009803284B
:1055F00007DB821E2D21781C00F054FF08B14FF00C
:10560000010B6869002804DC002C14BF6FF0004017
:1056100001202861287F70B96868686050F8049B91
:105620006860B9F1000F06D14FF0FF344348784469
:1056300000F585700FE0287FB0B9E87FA0B16968F8
:10564000696051F8040B6960B0F1004F07D34FF067
:10565000FF340FF6940001F07FFE201A70E0A96974
:10566000884288BF0846A861CDF808B0CDF804A0EC
:10567000DDF800B02969491E2961E868401C00294D
:10568000E86057D4286801220021C04782461AF1F9
:10569000010F32D0002C0FDDFDF765F968BB287FC4
:1056A00040B9A86940B309F801AB0121A977A869FD
:1056B000401EA8610226DDE7F1D502980028019876
:1056C0000DD100285A465146384604D100F0EAFE72
:1056D0000028E4D111E000F0E5FE70B9DFE7002812
:1056E0005A465146384604D1FFF738FF0028D6D134
:1056F00003E0FFF733FFF0E7012652462946404614
:10570000FFF7BBFD0CB1022E09D0022E10D0F0071E
:1057100002D41AF1010F06D14FF0FF3010E0287FBC
:1057200030B9A86908B900200AE0002089F8000013
:10573000012005E04FF0FF3ADFE700BF105A0000FC
:1057400003B0BDE8F08F2DE9F8450D4688B08046DE
:1057500068690028D8BF6FF000402861EA464046DB
:10576000FFF77AFD2B2818BF2D2807D18DF80000F0
:1057700029464046FFF770FD0DF1010AA968097836
:105780000022642914BF75290A240DD0692908BF95
:10579000002409D06F2908BF082405D070291ABF3A
:1057A00041F0200178291024302817D1294640469D
:1057B000FFF752FD40F020010126C9B278290AD135
:1057C000002C18BF102C13D129464046FFF744FD8A
:1057D000102400260CE05CB9082409E004B90A246E
:1057E000564601461AE0286801220021C0470126DA
:1057F000302840F0AB80E8682969401C491E002928
:105800002961E860EFD54FF0FF300122A2E0E960A6
:10581000012228680021C0470146012211F1010F31
:1058200000F09C80C8B26128A8BFA1F157030ADA32
:105830004128A8BFA1F1370305DA30380A2834BF60
:10584000A1F13003FF23DBB2E0B2834280F0868017
:105850000DF11F00864238BF06F8011BE968286970
:10586000491C401E00282861D1D54046E9604FF010
:10587000FF38012742462946FFF7FFFC3FB96E4536
:105880000ABF18F1010F00204FF0FF306AE000213D
:105890003170287F002857D1A8680078642818BF85
:1058A000692811D12246684602F082F96B7F0122F5
:1058B000622BAA771ED0682B2FD06A2B23D06C2B9B
:1058C00033D0712B1FD030E02246684602F04AFAEE
:1058D0000122AB68AA771A78702A26D06A7F622ADA
:1058E00008D0682A19D06A2A0DD06C2A1DD0712AD6
:1058F00009D01AE06B686B6053F8042B6B60002AC8
:1059000019D0107020E06B686B6053F8042B6B604B
:10591000002A10D0C2E9000116E06B686B6053F8F2
:10592000042B6B603AB110800EE06B686B6053F82B
:10593000042B6B603AB90FF2D05001F00DFD4FF01F
:10594000FF35281A0EE0106001200BE032461100EE
:105950003FF446AF30210AF8011B41E74046884634
:10596000174687E709B0BDE8F08500002DE9F84F3C
:105970000E4692B071690029D8BF6FF000413161C5
:1059800081463146FFF768FC00272B2818BF2D28D9
:105990000DF10C0807D18DF80C0031464846FFF791
:1059A0005BFC0DF10D080A2130288DF80010BA4675
:1059B0001BD131464846FFF74FFC40F02001C9B2E9
:1059C000782903D04FF0010A5146CAE0302088F808
:1059D000000088F8011048463146FFF73DFC1021D1
:1059E00008F102088DF80010EEE740F02001CAB27D
:1059F0006E2A52D18DF800A06E2108F8011B48468E
:105A00003146FFF729FC044644F02000C0B261286B
:105A100040F02482612108F8011B48463146FFF717
:105A20001BFC044644F02000C0B26E2840F01682F1
:105A300031464846FFF710FC0246282A00F0D48180
:105A400031464846FFF719FC6E2008F8010B00218B
:105A500088F80010307F002840F0C4819DF80000D5
:105A60000B280B4680F277813A4603A800F020FC11
:105A700096E14FF0FF35284602F077F900282C46D2
:105A800040F0B281303D0A2DC0F0AE815F2C00F0B5
:105A9000AB81292C40F0E281D6E7C9B2692940F0F8
:105AA000B8818DF800A008F8011B48463146FFF781
:105AB000D3FB044644F02000C0B26E2840F0CE81F3
:105AC0006E2108F8011B48463146FFF7C5FB044626
:105AD00044F02000C0B2662840F0C08131464846FC
