:020000040800F2
:1000000090520020E9B60008B9B00008BBB0000863
:10001000BDB00008BFB00008C1B00008000000007B
:100020000000000000000000000000005DA70008C4
:10003000C3B000080000000005A70008E58800081C
:10004000DDB80008E1B80008E5B80008E9B8000824
:10005000EDB80008F1B80008F5B80008F9B80008D4
:10006000FDB8000801B9000805B9000809B9000881
:100070000DB9000811B9000815B9000819B9000830
:100080001DB9000821B9000825B9000829B90008E0
:100090002DB9000831B9000835B9000839B9000890
:1000A0003DB90008C5B0000841B9000845B90008CD
:1000B00049B900084DB9000851B9000855B9000800
:1000C00059B900085DB9000861B9000865B90008B0
:1000D00069B90008CFB000086DB90008D9B00008B0
:1000E00071B9000875B9000879B900087DB9000830
:1000F00081B9000885B9000889B900088DB90008E0
:1001000091B9000895B9000899B900089DB900088F
:10011000A1B90008A5B90008A9B90008ADB900083F
:10012000B1B90008B5B90008E3B00008B9B90008D2
:10013000BDB90008C1B90008C5B90008C9B90008AF
:10014000CDB90008D1B90008D5B90008D9B900085F
:10015000DDB90008E1B90008E5B90008E9B900080F
:10016000EDB90008F1B90008F5B90008F9B90008BF
:10017000FDB9000801BA000805BA00080000000037
:1001800009BA00080DBA000811BA000815BA00082B
:1001900019BA00081DBA000821BA000825BA0008DB
:1001A000000000000000000029BA000838B5040073
:1001B000002C15D04FF4D87100222500280001F042
:1001C0005FF81E20C4F88800012084F8A0010120F7
:1001D00084F8A101DFF8800B0460200000F0C5F86E
:1001E00031BD80B5AB4B98420BD1DFF86C1B086872
:1001F000002806D00122086810F5D671180001F019
:1002000091F901BD38B50400002C05D122E09DF81C
:100210000010200000F01FF86946200000F0B1FF38
:100220000028F4D101F060FF0500B4F88000002838
:1002300009D0D4F88400281AD4F88810884202D350
:10024000200000F07BFF200000F032FD290020009C
:1002500000F084FD31BD38B504000D00002C23D022
:1002600001F042FFC4F884002800C0B20D2803D07A
:100270002800C0B20A2803D1200000F05FFF13E07D
:10028000B4F880007F2808DB0020A4F88000DFF8A5
:10029000E01B200000F0DDFD06E0B4F88000411C0A
:1002A000A4F8801080B2255431BD70B5C4B00400EC
:1002B000002C20D0DFF8EC6996F88B00002801D1E3
:1002C00073A501E0DFF8E059307801F0B2FF0300D8
:1002D000DFF8D8090390706902907068019000956A
:1002E000DFF8902B4FF4807104A802F0CBFB04A937
:1002F000200000F091FD44B070BD38B5CEB00400D0
:10030000002C30D0DFF89C59D5F8800002F0DCFBDF
:10031000CDE90C01E86F02F0D7FBCDE90A01A86F27
:1003200002F0D2FBCDE90801686F02F0CDFBCDE908
:100330000601286F02F0C8FBCDE90401E86E02F067
:10034000C3FBCDE90201A86E02F0BEFBCDE90001BE
:10035000DFF82C2B4FF480710EA802F093FB0EA94E
:10036000200000F059FD4FB030BD80B5002805D009
:10037000012210F5D671474801F0D4F801BD10B53F
:10038000DFF8D449206800280CD0206890F8AC1120
:10039000206800F016FF0122206810F5D6713D4854
:1003A00001F0C0F810BD80B53A49884201D1FFF78D
:1003B000E6FF01BD38B505000C00002D01D0002C72
:1003C00000D10FE0200000F00EF800280AD1210033
:1003D000280000F061F8002804D1DFF8CC1B2800C9
:1003E00000F01AFD31BD10B50400002C01D1002031
:1003F0004CE000E0641C2078002804D0207802F053
:1004000087FB0028F6D10422DFF8781A200002F0DA
:1004100089FB002837D00422DFF86C1A200002F094
:1004200081FB00282FD00422DFF8601A200002F0A0
:1004300079FB002827D00422DFF8541A200002F0AC
:1004400071FB00281FD00522DFF8481A200002F0B7
:1004500069FB002817D00522DFF83C1A200002F0C3
:1004600061FB00280FD00422DFF8301A200002F0D0
:1004700059FB002807D00422DFF8301B200002F0CF
:1004800051FB002801D1012000E0002010BD000038
:10049000504F44003C4C00202DE9F0472DED088BD7
:1004A000ADF51E7D04000B000025002C01D0002BB3
:1004B00001D10020F0E3BAA6320080213EA802F06C
:1004C000E1FA3EA800F0EEFC9DF8F800002801D10A
:1004D0000120E1E326AB15AADFF8C4193EA802F01B
:1004E00035FB01285BD11598002803D12000FFF7C8
:1004F000DCFE52E01598012803D12000FFF7FDFE35
:100500004BE01598022843D1DFF8985795F88D00F5
:10051000012802D1DFF8980A00E0C6A0129095F8F1
:100520008C001190686D1090686C02F0CDFACDE9E6
:100530000E01286C02F0C8FACDE90C01E86B02F05C
:10054000C3FACDE90A01A86B02F0BEFACDE90801B1
:10055000286B02F0B9FACDE90601E86A02F0B4FAB4
:10056000CDE90401A86A02F0AFFACDE90201686A98
:1005700002F0AAFACDE90001DFF8382A4FF48071C1
:100580005EA802F07FFA5EA9200000F045FC04E0BE
:10059000DFF8241A200000F03FFC01207CE300205B
:1005A0008DF8980000208DF8B80000208DF8D80054
:1005B00036A800902EAB26AADFF8001A3EA802F05B
:1005C000C5FA0128C0F2B580DFF8F41926A800F0BA
:1005D000A5FD002814D001F0FCFD002084F8A20144
:1005E000DFF8E019200000F017FC94F8A0010028C3
:1005F00004D0DFF8D419200000F00EFC01204BE3FA
:10060000DFF8C81926A800F089FD002860D09DF801
:10061000B800002805D1DFF89019200000F0FCFB9D
:1006200054E0DFF880160878062802D048680028D1
:1006300005D0DFF89C19200000F0EEFB46E00878BA
:10064000022805D0DFF88C19200000F0E5FB3DE022
:10065000B5A12EA800F062FD002815D001F0A9FD7B
:1006600001F0A1FD012084F8A201DFF85819200053
:1006700000F0D2FB94F8A001002827D0DFF85C1925
:10068000200000F0C9FB21E0DFF81C162EA800F0C6
:1006900045FD002815D001F092FD01F084FD0120F8
:1006A00084F8A201DFF81C19200000F0B5FB94F8D3
:1006B000A00100280AD0DFF82419200000F0ACFBCC
:1006C00004E0DFF8E418200000F0A6FB0120E3E2DC
:1006D000DFF80C1926A800F021FD002822D0DFF851
:1006E000C4050178062902D04068002805D0DFF84B
:1006F000E018200000F090FB12E001F066FD002001
:1007000084F8A201DFF8BC18200000F085FB94F803
:10071000A001002804D0DFF8CC18200000F07CFBFA
:100720000120B9E2DFF88018200000F075FB0120FD
:10073000B2E20422DFF8B0183EA802F0F3F9002874
:1007400040F05581202000901EAB202216A93FA822
:1007500000F0DAFB002806D1DFF89018200000F046
:100760005BFB012098E2DFF83C653078062802D078
:100770007068002806D0DFF87818200000F04CFBE5
:10078000012089E2307802280CD03078012809D085
:10079000DFF86018200000F03FFB01207CE200BF82
:1007A0002573000096ED098AD6ED0A8A96ED0B9A1C
:1007B000D6ED0C9A96ED0EAAD6ED0FAA96ED10BACC
:1007C000D6ED11BA776D96F88C8096F88D90DFF89B
:1007D000281816A800F0A2FC002809D013A91EA80A
:1007E00000F064FC002803D0139870620125C6E075
:1007F000DFF8081816A800F091FC002809D013A90A
:100800001EA800F053FC002803D01398B062012505
:10081000B5E0DFF8EC1716A800F080FC00280BD03C
:1008200013A91EA800F042FC002805D01398F0621E
:100830000125A4E04E320000DFF8C81716A800F02A
:100840006DFC002809D013A91EA800F02FFC002879
:1008500003D013983063012591E0DFF8AC1716A898
:1008600000F05CFC002809D013A91EA800F01EFCB3
:10087000002803D01398B063012580E0DFF88C17BF
:1008800016A800F04BFC002809D013A91EA800F000
:100890000DFC002803D01398F06301256FE0DFF80A
:1008A000701716A800F03AFC002809D013A91EA85A
:1008B00000F0FCFB002803D01398306401255EE0B3
:1008C000DFF8501716A800F029FC002809D013A95A
:1008D0001EA800F0EBFB002803D0139870640125DC
:1008E0004DE0DFF8341716A800F018FC002809D0F6
:1008F00014A91EA800F0F7FB002803D01498706517
:1009000001253CE0DFF8141716A800F007FC0028CA
:1009100011D014A91EA800F0E6FB00280BD01498F3
:10092000002803D0012002E0504F4400002086F848
:100930008C00012523E0DFF8E8A6514616A800F058
:10094000EDFB00280AD0C0A11EA800F0E7FB00289C
:1009500004D0002086F88D00012510E0514616A82D
:1009600000F0DCFB00280AD0DFF844161EA800F0D7
:10097000D5FB002803D0012086F88D000125EDB2BB
:10098000002D2DD001F0E8FB00280ED0DFF89416E2
:10099000200000F041FA94F8A001002825D0DFF8EB
:1009A0008816200000F038FA1FE086ED098AC6EDAF
:1009B0000A8A86ED0B9AC6ED0C9A86ED0EAAC6ED54
:1009C0000FAA86ED10BAC6ED11BA776586F88C804D
:1009D00086F88D90DFF81416200000F01DFA04E070
:1009E000DFF80816200000F017FA012054E1042275
:1009F000DFF838163EA802F095F8002840F0048190
:100A00003FAB3200202116A802F03CF816A800F0F7
:100A100049FA9DF85800002806D1DFF81416200086
:100A200000F0FAF9012037E1DFF8CC1516A800F044
:100A300075FB00280DD09B48406A02F045F8CDE9CF
:100A40000001DFF8F0254FF480715EA802F01AF87B
:100A5000D4E0DFF8A81516A800F060FB00280DD040
:100A60009048806A02F030F8CDE90001DFF8C8252F
:100A70004FF480715EA802F005F8BFE0DFF8801542
:100A800016A800F04BFB00280DD08648C06A02F083
:100A90001BF8CDE90001DFF8A4254FF480715EA8B2
:100AA00001F0F0FFAAE0DFF85C1516A800F036FBB5
:100AB00000280DD07B48006B02F006F8CDE900015C
:100AC000DFF87C254FF480715EA801F0DBFF95E034
:100AD000DFF8341516A800F021FB00280DD071486E
:100AE000806B01F0F1FFCDE90001DFF858254FF4EC
:100AF00080715EA801F0C6FF80E0DFF8101516A82F
:100B000000F00CFB00280DD06648C06B01F0DCFF44
:100B1000CDE90001DFF830254FF480715EA801F0C7
:100B2000B1FF6BE0DFF8E81416A800F0F7FA002830
:100B30000DD05C48006C01F0C7FFCDE90001DFF883
:100B40000C254FF480715EA801F09CFF56E0DFF8A1
:100B5000C41416A800F0E2FA00280DD05148406CE9
:100B600001F0B2FFCDE90001DFF8E4244FF4807119
:100B70005EA801F087FF41E0DFF89C1416A800F0A2
:100B8000CDFA002809D04748436DDFF8C8244FF458
:100B900080715EA801F076FF30E0DFF8801416A8BF
:100BA00000F0BCFA00280AD03E4890F88C30DFF8FC
:100BB000A8244FF480715EA801F064FF1EE0DFF806
:100BC000601416A800F0AAFA002810D0354890F852
:100BD0008D00012802D1DFF8D83300E01AA3DFF836
:100BE0007C244FF480715EA801F04CFF06E0DFF832
:100BF00040244FF480715EA801F044FF5EA92000FC
:100C000000F00AF9012047E00522DFF854143EA85D
:100C100001F088FF00283ED10DF1FD0332002021B4
:100C200026A801F02FFF26A800F03CF91D48017806
:100C3000062902D04068002808D0DFF828142000D8
:100C400000F0EAF825E000BF4E3200008AA126A895
:100C500000F064FA002808D0012084F8A001DFF831
:100C60000814200000F0D8F813E084A126A800F0B2
:100C700055FA002808D0002084F8A001DFF8E81316
:100C8000200000F0C9F804E0DFF8E013200000F0D5
:100C9000C3F8012000E000200DF51E7DBDEC088B9F
:100CA000BDE8F0876C4900202CB8000898B3000814
:100CB00070B50400002C4ED0DFF8B4637068D4F82F
:100CC000A85130EA0505002D03D17068C4F8A801C9
:100CD00041E0E80704D5DFF89C13200000F09CF801
:100CE000E80604D5DFF89013200000F095F8A80678
:100CF00004D5DFF88813200000F08EF8680704D5CB
:100D0000DFF87C13200000F087F8280704D5DFF80F
:100D10007413200000F080F8A80704D5DFF86813EA
:100D2000200000F079F8680604D5DFF86013200091
:100D300000F072F8280604D5DFF85413200000F004
:100D40006BF8E80504D5DFF84C13200000F064F8D8
:100D50007068C4F8A80170BD184E002038B50400B2
:100D6000002C58D094F8A00100280AD094F8A101D2
:100D7000002806D0002084F8A101C749200000F017
:100D80004BF894F8A001002845D094F8A20100285F
:100D900041D0B74DD4F8A401696988423BD0287886
:100DA000052838D195F88B00012821D095F88600C8
:100DB000002830D095ED0C0AD5ED200AB4EE600A7B
:100DC000F1EE10FA27DB95F88D0000280CD195F88C
:100DD0008400002808D095ED0B0AD5ED1A0AB4EE70
:100DE000600AF1EE10FA03DA95F88D00012812D1AD
:100DF00095F88B00002804D1A849200000F00CF8D9
:100E000003E0A749200000F007F86869C4F8A401CE
:100E1000002084F8A20131BD38B505000C00002D7A
:100E200001D0002C00D113E0200001F0A3FE02004D
:100E3000100080B200280BD04FF47A7392B22100D8
:100E4000984800F0AAFAD5F89401401CC5F894011E
:100E500031BD10B590B004000B00934A40216846A4
:100E600001F010FE69462000FFF7D6FF10B010BD5C
:100E7000F8B50008FCB000084F4E00004F46460091
:100E800024B0000834B800083CB8000844B8000892
:100E90004CB8000854B800085CB8000864B80008F2
:100EA00018B6000838B50500002D2CD0280001F038
:100EB00061FE040005E0002005EB040101F8010CCF
:100EC000641E002C07D005EB040010F8010C01F0A3
:100ED0001FFE0028EFD1002400E0641C285D0028DC
:100EE00004D0285D01F014FE0028F6D1002C0AD0B1
:100EF00005EB040001F03EFE0200521C05EB04016C
:100F0000280001F061FE31BD2DE9F0478046894699
:100F100092461C00B8F1000F0AD0B9F1000F07D0BB
:100F2000002C05D0BAF1000F02D0089D002D01D190
:100F3000002037E03D21404601F09EFE0600002ED5
:100F400001D100202EE0B6EB0807701C01F012FE64
:100F5000002F05D0002803D0574501D2A84201D365
:100F600000201FE03A00CA464146504601F090FE7C
:100F7000002009F80700731C17A22900200001F0C7
:100F800081FD4846FFF78EFF2000FFF78BFF99F8A1
:100F90000000002804D02078002801D0012000E0C3
:100FA0000020C0B2BDE8F08708B600086CB80008A1
:100FB00074B80008C8AE0008E4B4000844B50008DE
:100FC0007CB8000844B7000858B5000850B70008BE
:100FD0005CB7000868B70008257300006CB500080E
:100FE00074B7000880B5000884B8000828B6000867
:100FF00080B700088CB7000898B700088CB80008C4
:10100000A4B70008B0B7000838B6000848B6000812
:1010100058B6000868B60008BCB7000878B60008E3
:10102000C8B70008D4B7000888B6000894B800080C
:1010300098B6000894B50008A8B50008BCB500082B
:10104000FCB4000858B4000874B4000890B4000858
:10105000ACB40008D0B50008C8B40008E4B5000876
:101060009CB80008A8B60008E0B70008B8B60008A9
:101070006C490020D4B1000838B100086CB10008F8
:1010800000B20008A0B100082CB2000858B2000855
:1010900084B20008B0B20008C8B6000814B5000851
:1010A0002CB500083C4C0020ECB7000838B5050012
:1010B0000C00002D01D0002C01D1002012E0694667
:1010C000280001F03CFE0098A84203D00098007868
:1010D000002801D0002005E051EC100B01F034FE97
:1010E0002060012032BD38B505000C00002D01D074
:1010F000002C01D1002010E00A226946280001F0EE
:10110000F7FE01000098A84203D00098007800285C
:1011100001D0002001E02160012032BD80B500280F
:1011200001D0002901D1002007E001F0E5FE0028F0
:1011300001D1012000E00020C0B202BD38B5A0B04E
:101140000400002C1BD0B4F88000002817D0B4F89D
:10115000802021006D46280001F09AFD002069469C
:10116000B4F8802088540020A4F88000D4F89001BE
:10117000401CC4F8900169462000FFF71BF921B01C
:1011800030BD10B4002801D0002901D1002016E0A4
:10119000B0F88C21B0F88E311C0092B2A4B2A242F9
:1011A00001D100200BE01A0092B2024492F88C2088
:1011B0000A705B1C03F0FF03A0F88E31012010BC05
:1011C000704730B400281CD0B0F88C21B0F88E31B4
:1011D000541C04F0FF042500ADB29BB29D4205D122
:1011E000D0F89C11491CC0F89C110AE092B202444C
:1011F00082F88C10A0F88C41D0F89811491CC0F8E6
:10120000981130BC7047F0B4024610689568131806
:10121000506803EB5004C0071DD54D441BE013F884
:10122000017B05F8017B491EF9D1A0B1B60813F87E
:10123000011B06F00306032E08BF13F8016B01EB38
:1012400006214942801C294405D011F8016B05F89C
:10125000016B401EF9D1A3420ED013F8016B16F0BA
:10126000030104BF13F8011BC91C30090F28DAD190
:1012700013F8010B0F30D6E7F0BC02F10C007047F9
:1012800062F30F2262F31F42401810F0030308D0EC
:10129000C91A1FD3DB0748BF00F8012D28BF20F86B
:1012A000022D130030B414461546103928BF20E92A
:1012B0003C00FAD8490728BF20E90C0048BF40F895
:1012C000042D890028BF20F8022D48BF00F8012D09
:1012D00030BC7047C91818BF00F8012DCB0728BFD4
:1012E00000F8012D704730B4002513E050F8042BAE
:1012F000D30744BFA9F101039A18091F042942F832
:10130000045BFAD213468C0744BF15809B1CC907A7
:1013100048BF1D7050F8041B0029E7D130BC70474E
:1013200010B50400002C01D1012035E0A06900288F
:10133000FFD194F84100002805D1002084F8400036
:10134000200001F031FE242084F841002068C068AC
:1013500030F400502168C860200000F045FD20688E
:10136000006930F49040216808612068406930F0DD
:101370002A00216848612068C06850F40050216844
:10138000C86000206064202084F84100202084F898
:10139000420000206063002010BD2DE9FC410600E2
:1013A0000D0014001F00002096F84100202851D1A4
:1013B000002D03D0200080B2002801D101204AE096
:1013C00000207064212086F8410000F08DFE8046E8
:1013D000B484F484B068B0F5805F04D1306900282B
:1013E00001D1002412E02C0000250FE020783168A4
:1013F0004860641C07E0002CF8D12888C005C00DA7
:1014000031684860AD1CF08C401EF084F08C0028E0
:101410000DD00097434600228021300000F025FBCC
:101420000028E8D0202086F84100032013E0009730
:10143000434600224021300000F017FB002804D072
:10144000202086F84100032005E0202086F8410096
:10145000002000E00220BDE8F6812DE9FC410600F5
:101460000D0014009846002096F84200202856D11E
:10147000002D03D0200080B2002801D101204FE0D0
:1014800000207064222086F842000020306300F0C3
:101490002BFE0700B485F485B068B0F5805F04D1F9
:1014A0003069002801D1002413E02C00002510E051
:1014B0003068406810F07F00207029E0002C1AD1BD
:1014C00030684068C005C00D2880AD1CF08D401EFE
:1014D000F085F08D00281DD0CDF800803B00002263
:1014E0002021300000F0C1FA0028E7D0202086F843
:1014F0004200032014E0B068B0F5805F05D0B0680A
:101500000028D5D130690028D2D1306840682070D9
:10151000641CDBE7202086F84200002000E0022067
:10152000BDE8F68180B590F84230202B0DD100291E
:1015300003D013009BB2002B01D1012006E0002351
:10154000036392B200F0D2FA00E0022002BD80B53F
:1015500090F84230202B0DD1002903D013009BB20C
:10156000002B01D1012006E00023036392B200F0BA
:10157000DCFA00E0022002BD10B5040020680C3047
:1015800050E8001F31F4F071206810F10C0242E8BD
:1015900000100028F2D12068143050E8001F4908DC
:1015A0004900206810F1140242E800100028F2D12E
:1015B000206B01280CD120680C3050E8001F31F05E
:1015C0001001206810F10C0242E800100028F2D14E
:1015D00020684069000620D52068143050E8001FBC
:1015E00031F08001206810F1140242E80010002858
:1015F000F2D1A06B002810D00020A16B0865A06B71
:1016000001F054FE002808D0A06B01F0B5FF20289F
:1016100003D110206064032033E020684069400655
:1016200020D52068143050E8001F31F040012068B8
:1016300010F1140242E800100028F2D1E06B0028FB
:1016400010D00020E16B0865E06B01F02FFE002850
:1016500008D0E06B01F090FF202803D110206064D7
:1016600003200EE00020E0840020E085002060647C
:10167000202084F84200202084F8410000202063CC
:10168000002010BD38B50400206801682068C268D9
:10169000206843690020002011F00F00002807D1C6
:1016A0008D0605D5950603D5200000F026FB47E101
:1016B000002879D0D80702D412F4907F74D011F0AA
:1016C0000100C0B2002805D0D00503D5606C50F0F1
:1016D00001006064480708D513F00100C0B200287B
:1016E00003D0606C50F002006064880708D513F0E6
:1016F0000100C0B2002803D0606C50F004006064A8
:1017000008070AD5900604D413F00103DBB2002BBE
:1017100003D0606C50F008006064606C002842D018
:10172000880604D5900602D5200000F0E6FA20686D
:101730004069800910F00100616C090701D400289C
:101740002CD0200000F062FA20684069400621D5C4
:101750002068143050E8001F31F04001206810F17B
:10176000140242E800100028F2D1E06B00280DD0EE
:101770000FF2F940E16B0865E06B01F0E5FD002830
:1017800011D0E06BE16B096D88470CE02000FEF79B
:1017900028FD08E02000FEF724FD04E02000FEF70D
:1017A00020FD00206064CBE0206B012840F0B88071
:1017B000C80640F1B580D00640F1B280002000900C
:1017C00020680068009020684068009000982068B9
:1017D0004069400667D5E06B00684168080080B248
:1017E000002850D00800A28D80B290424BD2E185F3
:1017F000E06BC069B0F5807F3BD020680C3050E8CA
:10180000001F31F48071206810F10C0242E80010D2
:101810000028F2D12068143050E8001F4908490020
:10182000206810F1140242E800100028F2D120686C
:10183000143050E8001F31F04001206810F114020C
:1018400042E800100028F2D1202084F84200002055
:10185000206320680C3050E8001F31F01001206830
:1018600010F10C0242E800100028F2D1E06B01F008
:101870001DFD02206063A18DE08D091A89B2200050
:1018800001F0F6FE0EE0A08D89B281420AD1E06B34
:10189000C069B0F5807F05D102206063A18D200072
:1018A00001F0E6FE4CE0A08DE18D411AE08D0028AC
:1018B00035D0080080B2002831D020680C3050E8C4
:1018C000002F32F49072206810F10C0343E80020DE
:1018D0000028F2D12068143050E8002F520852003E
:1018E000206810F1140343E800200028F2D12020E2
:1018F00084F842000020206320680C3050E8002F5C
:1019000032F01002206810F10C0343E80020002898
:10191000F2D10220606389B2200001F0A9FE0FE03D
:10192000080605D5100603D5200000F0A7F907E04A
:10193000480605D5500603D5200000F0D0F9FFE792
:1019400031BD01000020002091F8410091F84210C3
:101950000843C0B2704780B50100886B0968096808
:10196000C9053BD40021C18501680C3151E8002F25
:1019700032F48072016811F10C0343E80021002960
:10198000F2D10168143151E8002F52085200016869
:1019900011F1140343E800210029F2D10168143148
:1019A00051E8002F32F04002016811F1140343E8BE
:1019B00000210029F2D1202180F84210016B012979
:1019C0000CD101680C3151E8002F32F0100201688F
:1019D00011F10C0343E800210029F2D100214163F9
:1019E000016B012903D1818D01F042FE01E0FEF778
:1019F000DAFC01BD80B5806B01214163016B0129D7
:101A000005D1818D490889B201F032FE01E001F073
:101A100030FE01BD10B50021846B20684069C0090B
:101A200010F0010094F84110212906D1002804D0BB
:101A30000020E084200000F0D8F820684069800988
:101A400010F0010094F84210222906D1002804D099
:101A50000020E085200000F0D9F8606C50F0100004
:101A600060642000FEF7BDFB10BD2DE9FC410500C0
:101A70000E0090461F00089C286800683040B04265
:101A800001D1012000E000204146C9B288422AD19C
:101A900014F1010FF0D000F027FBC01B844201D3EA
:101AA000002C01D103201FE02868C0684007E3D55F
:101AB000802EE1D0402EDFD0286800680007DBD5FB
:101AC0000020009028680068009028684068009016
:101AD0000098280000F09AF808206864002085F833
:101AE0004000012000E00020BDE8F681816282858F
:101AF000C28500214164222180F842100169002939
:101B000005D00168C96851F480710268D16001682C
:101B1000496951F00101026851610168C96851F0D9
:101B200020010068C1600020704713B50400130055
:101B30000198A062A38500206064222084F84200FE
:101B4000DFF88C05E16BC863DFF88805E16B08649A
:101B5000DFF88405E16BC8640020E16B086501A82B
:101B60009BB202682068011DE06B01F065FB002854
:101B700006D010206064202084F84200012033E069
:101B80000020009020680068009020684068009065
:101B90000098206900280CD020680C3050E8001F05
:101BA00051F48071206810F10C0242E80010002806
:101BB000F2D12068143050E8001F51F00101206874
:101BC00010F1140242E800100028F2D1206814300D
:101BD00050E8001F51F04001206810F1140242E863
:101BE00000100028F2D1002016BD01680C3151E828
:101BF000002F32F0C002016811F10C0343E800210C
:101C00000029F2D1202180F84110704701680C3181
:101C100051E8002F32F49072016811F10C0343E88F
:101C200000210029F2D10168143151E8002F520837
:101C30005200016811F1140343E800210029F2D198
:101C4000016B01290CD101680C3151E8002F32F0F1
:101C50001002016811F10C0343E800210029F2D1C0
:101C6000202180F8421000210163704780B5806B0D
:101C70000021C185FEF7B5FA01BD000090F84110C2
:101C800021292AD18168B1F5805F0CD10169002931
:101C900009D1016A0988C905C90D02685160016A44
:101CA000891C016205E0016A4A1C02620978026827
:101CB0005160C18C491EC18489B200290BD10168D1
:101CC000C96831F080010268D1600168C96851F0CB
:101CD00040010068C160002000E00220704780B52C
:101CE0000168C96831F040010268D160202180F8A4
:101CF000411001F0BFFC002002BD80B50021002191
:101D000090F8421022296DD18168B1F5805F0CD125
:101D10000169002909D1816A02685268D205D20D91
:101D20000A80816A891C816216E0826A8168B1F545
:101D3000805F05D08168002906D10169002903D19F
:101D400001684968117004E00168496811F07F0179
:101D50001170816A491C8162C18D491EC18589B299
:101D600000293DD10168C96831F020010268D160C5
:101D70000168C96831F480710268D16001684969FD
:101D80004908490002685161202180F84210002171
:101D90004163016B01291FD10021016301680C31EE
:101DA00051E8002F32F01002016811F10C0343E8F2
:101DB00000210029F2D101680968C90608D500216F
:101DC00000910168096800910168496800910099D3
:101DD000818D01F04DFC01E0FEF7E5FA002002E004
:101DE000002000E0022002BD2DE9FE4F050028681A
:101DF000016931F44051E868014328680161A9682C
:101E00002869014368690143E86901432868C26899
:101E1000B248024011432868C1602868416931F422
:101E20004071A8690143286841612868AC4988422B
:101E300003D02868AB49884203D101F0C8FC0400F4
:101E400002E001F0B9FC0400E869B0F5004F40F091
:101E50009F805FF0640A022600275FF019085FF098
:101E6000000922000023A8FB020108FB031109FB63
:101E70000211CDE9000168680021A6FB002306FBE2
:101E8000013307FB0033DDE9000101F013FD64219C
:101E9000B0FBF1F0029022000023A8FB020108FB36
:101EA000031109FB0211CDE9000168680021A6FBBE
:101EB000002306FB013307FB0033DDE9000101F0DD
:101EC000F9FC834622000023A8FB020108FB031152
:101ED00009FB0211CDE9000168680021A6FB00237F
:101EE00006FB013307FB0033DDE9000101F0E2FCF2
:101EF0006421B0FBF1F00AFB10B0C0003230642165
:101F0000B0FBF1F0400010F4F870029910EB0110F2
:101F1000029022000023A8FB020108FB031109FB29
:101F20000211CDE9000168680021A6FB002306FB31
:101F3000013307FB0033DDE9000101F0BBFC834600
:101F40002000002102000B00A8FB020108FB031186
:101F500009FB02116A68002390469946A6FB0823F4
:101F600006FB093307FB083301F0A4FC6421B0FB36
:101F7000F1F00AFB10BA5FEACA0032306421B0FB0C
:101F8000F1F111F0070102980918286881609CE0BE
:101F9000042600275FF0640A5FF019085FF000096B
:101FA00022000023A8FB020108FB031109FB021118
:101FB000CDE9000168680021A6FB002306FB013380
:101FC00007FB0033DDE9000101F074FC6421B0FB84
:101FD000F1F0029022000023A8FB020108FB03118C
:101FE00009FB0211CDE9000168680021A6FB00236E
:101FF00006FB013307FB0033DDE9000101F05AFC69
:10200000834622000023A8FB020108FB031109FB01
:102010000211CDE9000168680021A6FB002306FB40
:10202000013307FB0033DDE9000101F043FC6421CB
:10203000B0FBF1F00AFB10B0000132306421B0FBBC
:10204000F1F010F0F000029910EB01100290220064
:102050000023A8FB020108FB031109FB0211CDE9D3
:10206000000168680021A6FB002306FB013307FB83
:102070000033DDE9000101F01DFC83462000002152
:1020800002000B00A8FB020108FB031109FB02116F
:102090006A68002390469946A6FB082306FB09338D
:1020A00007FB083301F006FC6421B0FBF1F00AFBEA
:1020B00010BA5FEA0A1032306421B0FBF1F111F07E
:1020C0000F010298091828688160BDE8F78F0000A9
:1020D00057190008F5190008151A0008F369FFFFE1
:1020E000001001400014014001480068704700BF23
:1020F000284E002038B590210022DFF82049250025
:102100002800FFF7BDF800F0B8F801F0EBFC01F093
:10211000A8FE00F079F8A06ADFF804190860DFF87B
:1021200004095FF07E510160DFF8FC085FF0804138
:10213000016041F28830DFF8F41808600020DFF811
:10214000F01808700020DFF8EC18086000202070FC
:10215000012084F88A0031BD80B501F0D3FC02BDB6
:1021600038B50400DFF8B45895F88A00002819D073
:10217000E868201AA96C884206D3EC60200000F0C1
:10218000B3F8200000F018F92869201AE96C884299
:1021900008D3142001F0FAFE2C61200000F0D4F9DD
:1021A00000F094FA31BD0120DFF8701881F8870043
:1021B00070470020DFF8641881F88B007047012019
:1021C000DFF8581881F88B00704780B500F010F8E0
:1021D00001BD10B5DFF844480020606000F014F83D
:1021E00000F074FA00202070FFF77EFFA06010BDA1
:1021F00080B5DFF82808022101700021816000F01D
:1022000003F800F063FA01BD80B5002000F09DFBEB
:10221000002000F0AAFB002000F0B9FB002000F035
:10222000DBFB002000F0EAFB9FED610A01F0C2FE3B
:1022300001BDC0B2002809D002280DD009D304285E
:1022400010D00CD3062812D00FD313E0DFF8E80724
:1022500012E0DFF8E8070FE0DFF8E4070CE0DFF852
:10226000E40709E0DFF8E00706E052A004E0DFF849
:10227000DC0701E0DFF8D8077047DFF8A007DFF8D8
:10228000D4174162DFF8D0178162B1EE040A80ED05
:102290000B0ADFF8C8170163DFF8C417816380ED0C
:1022A0000F0ADFF8C0170164DFF8BC1741644FF470
:1022B000967181643221C1644FF4FA510165DFF8EF
:1022C000AC17416541F28831816540F6B832C2658C
:1022D00040F2DC5202664166002180F88C10002139
:1022E00080F88D107047000038B504000020009081
:1022F000BFEE000A684601F0AFFE002815D19DED43
:10230000000AF1EE000AB4EE600AF1EE10FA02D50E
:102310009FED270A01E09DED000ADFF8000780ED40
:102320001B0A012180F88510C4614FF4FA7001F096
:102330002DFE01F039FFB5EE400AF1EE10FA07DB91
:10234000DFF8D80680ED1A0A012180F88410846134
:10235000DFF8C85601F0EEFF85ED1D0A02F008F81F
:1023600085ED1E0A02F028F885ED1C0A95ED1C0A81
:10237000F0EE000AB4EE600AF1EE10FA02D59FED1D
:102380000C0A01E095ED1C0A85ED1C0A01F07EFDAA
:1023900000280CD1DFF8D8060068E867DFF8D4061B
:1023A0000068C5F88000012085F886002C6231BDE8
:1023B0000000000052554E00F8B507000024DFF879
:1023C0005C5695F88B00012801D1012600E000261B
:1023D00095F88500002809D02A6EE969380000F0D8
:1023E00081F9002802D0002085F8850095F8840046
:1023F000002809D0EA6DA969380000F073F90028B7
:1024000002D0002085F8840095F88600002809D0C5
:102410006A6E296A380000F065F9002802D00020B1
:1024200085F886003000C0B200280CD195F88D00E8
:10243000002808D195F88400002804D1E86D87426F
:1024400001D354F002042878032802D02878052804
:1024500008D195F88500002804D1286E874201D361
:1024600054F004043000C0B2002808D195F886006A
:10247000002804D1686E874201D354F008042878FC
:10248000032805D02878042802D02878052813D1FD
:1024900095ED0E0AD5ED1D0AB4EE600AF1EE10FAC4
:1024A00008D495ED1D0AD5ED0F0AB4EE600AF1EEE1
:1024B00010FA01D554F010042878032802D02878A7
:1024C00005281BD14FF4FA62A968380000F00AF918
:1024D000002813D095ED1E0AD5ED110AB4EE600A5E
:1024E000F1EE10FA08D495ED100AD5ED1E0AB4EEFF
:1024F000600AF1EE10FA01D554F020042878032880
:1025000008D16A6DA968380000F0ECF8002801D005
:1025100054F08004F6B2002E14D12878052811D189
:10252000DFF80C05007800280CD0DFF80005026801
:10253000DFF800050168380000F0D4F8002801D069
:1025400054F480746C60F1BD38B50400DFF8CC54ED
:102550006868002803D02100062000F09BF8287846
:1025600000280AD001280FD002281CD0032828D028
:10257000052868D0062874D083E0FFF745FE2100C7
:10258000012000F087F884E0FFF73EFE95F8850013
:10259000002807D095F88600002803D021000220EB
:1025A00000F078F875E0FFF72FFE95F88700002817
:1025B00006D06869401C68612100032000F06AF8B9
:1025C00067E095ED090A00F02CF995F888000028DD
:1025D00004D02100022000F05DF833E095F88B0074
:1025E000012806D1AA6DA968200000F07BF8002818
:1025F00024D195F88D0000280CD195F8840000288E
:1026000008D095ED0B0AD5ED1A0AB4EE600AF1EE8A
:1026100010FA03DA95F88D00012813D195ED0C0A14
:10262000D5ED200AB4EE600AF1EE10FA0ADBAA6DCD
:10263000A968200000F056F8002803D021000520EA
:1026400000F028F825E0200000F054F800F033F9FD
:1026500095F88800002803D02100022000F01AF825
:1026600017E0FFF7D1FD6868002803D095F88900CE
:10267000002805D0002068602100012000F00AF841
:1026800007E0FFF7C1FD012068602100062000F08F
:1026900001F831BD10B4DFF8842313780400E4B2EC
:1026A000A34211D00300DBB2052B0BD0936ADFF8F5
:1026B000704323600023DFF8784323700023DFF8A2
:1026C000744323601070916010BC7047DFF84C03B6
:1026D000002180F88710002180F88810002180F800
:1026E00089107047401A904201D3012000E0002079
:1026F000C0B27047DFF8243393ED0A0A002293F842
:102700008B10012914D193ED090ADFEDB20AB4EE62
:10271000600AF1EE10FA01DB9FEDB70A0020C44910
:1027200008700020C3490860BD4880ED000A77E0CA
:1027300093F88510002916D0D3ED1B0A93ED1C1ACF
:10274000F4EE410AF1EE10FA0DD5D3ED1C0AB549AD
:1027500091ED001A70EE810AB4EE600AF1EE10FA03
:1027600001D5B0EE600A93F88610002909D0D3EDA8
:102770000C0A93ED201AF4EE410AF1EE10FA00D59E
:10278000012293F88D1000290DD193F884100029AF
:1027900009D0D3ED0B0A93ED1A1AF4EE410AF1EECB
:1027A00010FA00D50122D2B2002A1ED0A04A117818
:1027B000002906D1012111709E490860984880EDDA
:1027C000000A99489649D1ED000A90ED001A70EE82
:1027D000810AB4EE600AF1EE10FA0CD591ED000A10
:1027E000D0ED000A30EE200A05E000209049087084
:1027F000002090490860D3ED0A0AB4EE600AF1EEB9
:1028000010FA01D593ED0A0ADFED720AB4EE600A00
:10281000F1EE10FA01DB9FED780A814880ED000AA5
:10282000704710B501F0C6FB934908707B4C94F8D3
:102830008B0000281DD1002000F0B9F8012000F025
:10284000A6F894F88C00012809D1002000F07DF84A
:10285000002000F08AF8012000F0BEF82AE00120F4
:1028600000F073F8012000F080F8002000F0B4F8C8
:1028700020E094F88B0001281CD1012000F097F88B
:10288000002000F084F894F88C00012809D1002081
:1028900000F05BF8002000F068F8012000F09CF8E0
:1028A00008E0012000F051F8012000F05EF800205F
:1028B00000F092F810BD10B501F07CFB6E49087075
:1028C000564C94F88B0000281DD1002000F06FF8C2
:1028D000012000F05CF894F88C00012809D1002058
:1028E00000F033F8002000F040F8012000F074F808
:1028F0002AE0012000F029F8012000F036F800203D
:1029000000F06AF820E094F88B0001281CD1012027
:1029100000F04DF8002000F03AF894F88C000128FF
:1029200009D1002000F011F8002000F01EF801206D
:1029300000F052F808E0012000F007F8012000F054
:1029400014F8002000F048F810BD80B5C0B200288F
:1029500005D000224021494801F06CFE04E001222C
:102960004021464801F066FE01BD80B5C0B2002896
:1029700006D001224FF40071404801F05BFE05E0F3
:1029800000224FF400713D4801F054FE01BD80B5B6
:10299000C0B2002805D000228021384801F04AFE4C
:1029A00004E001228021354801F044FE01BD80B5DC
:1029B000C0B2002806D000224FF480712F4801F0E9
:1029C00039FE05E001224FF480712C4801F032FEFF
:1029D00001BD00000100484380B5C0B2002805D009
:1029E00000220121264801F025FE04E001220121F8
:1029F000234801F01FFE01BD0000484380B5C0B26E
:102A0000002805D0012202211D4801F013FE04E038
:102A1000002202211A4801F00DFE01BD6C49002080
:102A2000104E002004000020080000200C000020B0
:102A3000884E0020144E002004B800082CB700086F
:102A40000CB8000814B8000838B700081CB8000813
:102A500024B800080000A0420000A041000020416E
:102A60000000E0408FC2F5BC666666BFE0930400DC
:102A7000204E0020244E0020874E002000040240FB
:102A80000010024008B438B585B009AC00250494A4
:102A9000039500290EBF01950190491E02910095F2
:102AA00004AB01A9074878441A3001F0F7FD0199F9
:102AB00001B10D70002858BF039806B030BC5DF816
:102AC00008FB00BF9B010000C0F3C75181B1FF2983
:102AD00006D0C110400721F0E04101F1605170477C
:102AE00041020CBF40F4E0016FF00041002070474C
:102AF00000F0004100020AD0B0FA80FC00FA0CF0AD
:102B000001F16051A1EB0C5101EBD0214005704760
:102B100010B5044602F0DAFC01462046096ABDE819
:102B20001040084704E010F8013B6BB1491C521EED
:102B300052B10B7890F800C09C45F4D002D24FF00F
:102B4000FF30704701207047002070470DB4C0B5BA
:102B50000A4604A800210190009101AB03A9044892
:102B600078440C3002F0D8FC06BC5DF810FB00BFC6
:102B70003B00000000F10103810704D010F8011BA5
:102B8000820781B1FAD10268A2F10131914311F0BB
:102B9000803104BF50F8042FF6E709BAB1FA81F189
:102BA00000EBD100401CC01A704703681AB95A1EC6
:102BB000026008467047197811B94FF0FF3070472E
:102BC000591C01601878704781423ABF53189842E7
:102BD00000F05EB88018990707D0521E24BF13F882
:102BE000011D00F8011DF6D8704781071BD1103A6E
:102BF00007D330B433E93210103A20E93210F9D259
:102C000030BC1032121F24BF53F8041D40F8041DBD
:102C1000F8D838BF121D521E24BF13F8011D00F84A
:102C2000011DF8D87047121FF3D3C10709D153F81B
:102C3000041D121F20F8041D4FEA31414180F6D2D5
:102C4000E7E753F8041D121F00F8041D4FEA312175
:102C5000A0F801104FEA3141C170F2D2D9E7826881
:102C6000521C8260426832B10268531C03601170CA
:102C70004168491E41607047C9B202788A421AB160
:102C80001CBF10F8012FF9E718BF002070470000A3
:102C900062B38B0708D0521E11F8013B00F8013BCC
:102CA00000F024808B07F6D1830740F0208000BF1E
:102CB000103A07D330B4B1E83810103AA0E8381011
:102CC000F9D230BC530724BFB1E80810A0E80810BF
:102CD00044BF51F8043B40F8043BD20724BF31F80D
:102CE000022B20F8022B44BF0B7803707047121F91
:102CF00017D35B0009D151F8043B20F8023B1B0CB1
:102D0000121F20F8023BF6D20BE051F8043B00F80A
:102D1000013B1B0A20F8023B1B0C121F00F8013B71
:102D2000F3D238BF121D521E24BF11F8013B00F828
:102D3000013BF8D87047000041EC100B01BD80B595
:102D400003F0BEFCF8E7000001F000428B1AA3F18B
:102D50006051B1F5801F0ADBB1F17F6F1FD242EAEB
:102D6000C102C10071F1004142EB507070470B1578
:102D7000C3F10903212B10D2890241EA905180024C
:102D80000128494141F0004121FA03F0C3F1200339
:102D9000994071F1004150417047100070476FF049
:102DA000000013EB103F5CBF000E42EAC0507047BA
:102DB0002DE9F84F84B00E4617460BB100221A6079
:102DC0000446A04601E008F1010898F80000FFF76A
:102DD0009FFE0028F7D198F800002D2816BF2B2859
:102DE00018F8015B2B25002F019603D4012F01D089
:102DF000252F03DB002E55D0346053E0002F0CDD6F
:102E0000102F04BF98F80000302802BF98F8010086
:102E100040F02000782811D10CE098F8000030280C
:102E200018BF0A270AD198F8010040F0200078283E
:102E300003D1102708F1020800E00827CDF80C8024
:102E400001E008F1010898F800003028F9D0064E9A
:102E50007E4414364FF0000906F12800CDF80880B2
:102E6000CA468DF800000BE01C8100009DF80010A0
:102E7000401ACA465FFA80FB07FB09B908F101084E
:102E800098F8000003F01FFC01463A4606F12800BE
:102E900003F024FC0028E9D10399414504D10198AD
:102EA00000B10460002020E00299F05DA8EB010170
:102EB000081A002810D406DCB9EB0B0103D3B1FBD0
:102EC000F7F0504508D0AFF30080049808B1012115
:102ED00001604FF0FF3903E02D2D08BFC9F1000953
:102EE000019808B1C0F80080484605B0BDE8F08FF1
:102EF00000BF00235CE7000010F8012B11F8013B34
:102F00000AB19A42F8D0D01A7047000080B58448C0
:102F1000844901605FF4E13141600021816000215A
:102F2000C160002101610C2141610021816100210A
:102F3000C161FEF7F5F9002801D003F076FC01BD70
:102F400080B57948794901605FF4E1314160002141
:102F500081600021C160002101610C2141610021DB
:102F600081610021C161FEF7DBF9002801D003F087
:102F70005CFC01BD80B56E486E4901605FF4E131D3
:102F80004160002181600021C160002101610C21AC
:102F90004161002181610021C161FEF7C1F9002872
:102FA00001D003F042FC01BD38B586B0040068468C
:102FB000142103F04BFC20685A4988424FD100206D
:102FC00005905D48016851F010010160006810F043
:102FD000100005900598002005905848016851F0B0
:102FE00001010160006810F00100059005984FF4A0
:102FF000C060009002200190002002900320039006
:103000000720049069464E4801F016FA4D4D4E488F
:1030100028605FF0006068600020A8600020E86021
:103020004FF480602861002068610020A8610020C2
:10303000E8610020286200206862280000F08CF817
:10304000002801D003F0F1FBE563AC630022052109
:10305000252003F055FC252003F063FC5DE020688B
:10306000324988422FD1002005903848016851F438
:1030700080210160006810F48020059005980020F0
:1030800005902E48016851F008010160006810F0B9
:103090000800059005984FF44070009002200190C0
:1030A00000200290032003900720049069462848DE
:1030B00001F0C2F900220521272003F021FC27207E
:1030C00003F02FFC29E020681A49884225D100200E
:1030D00005901948016851F020010160006810F066
:1030E000200005900598002005901448016851F0D3
:1030F00004010160006810F0040005900598C020EC
:1031000000900220019000200290032003900820EC
:10311000049069460F4801F08FF907B030BD0000F8
:10312000F44B0020001001403C4C002000480040BF
:10313000844C0020001401404438024030380240E2
:1031400000000240FC490020406402404038024038
:10315000000C02400008024038B504000020FEF7D1
:10316000C3FF0500002C01D1012064E0606A002843
:10317000022084F83500002084F8340020680068BC
:10318000400840002168086020680068C0070BD52F
:10319000FEF7AAFF401B0628F6D320206065032017
:1031A00084F83500032046E020680168DFF82C042D
:1031B00001406268A0680243E0680243206902435C
:1031C00060690243A0690243E0690243206A024346
:1031D0001143606A042803D1E26A206B0243114361
:1031E0002068016020684569ED08ED00606A0543CC
:1031F000606A042810D1A06A0543E06A00280BD059
:10320000200000F0F1F9002806D040206065012080
:1032100084F8350001200EE020684561200000F0B0
:10322000C4F93F22E16D8A40826000206065012080
:1032300084F83500002032BD70B504000025A66D6D
:1032400094F83400012801D102202EE0012084F8F6
:10325000340094F83500012821D1022084F835008B
:1032600000206065200000F089F93F21E06D814079
:10327000B1602068006850F0160021680860206C7A
:10328000002805D02068006850F008002168086018
:103290002068006850F001002168086003E0002009
:1032A00084F8340002252800C0B270BD70B5040057
:1032B000A56DFEF719FF060094F83500022806D028
:1032C00080206065002084F8340001203BE0206805
:1032D000006830F01600216808602068406930F00E
:1032E000800021684861206C002802D1A06C002871
:1032F00005D02068006830F0080021680860206868
:103300000068400840002168086020680068C00725
:103310000ED5FEF7E9FE801B0628F6D32020606557
:10332000032084F83500002084F8340003200AE0EC
:103330003F21E06D8140A960012084F83500002024
:1033400084F83400002070BD90F83510022903D0B5
:1033500080214165012009E0052180F835100168D0
:103360000968490849000068016000207047F8B505
:10337000040000200090DFF8680200684FF4165146
:10338000B0FBF1F5A66D37680821E06D11FA00F089
:10339000074210D02068006840070CD520680068FC
:1033A00030F0040022681060E06D8140B160606D13
:1033B00050F001006065E06D3900C140C8070BD5D1
:1033C00020684069000607D50121E06D8140B160A9
:1033D000606D50F0020060650421E06D11FA00F0AC
:1033E00007420AD020680068800706D5E06D81405A
:1033F000B160606D50F0040060651021E06D11FA5D
:1034000000F007422CD020680068000728D5E06D46
:103410008140B16020680068400311D520680068D1
:10342000000306D4206C00281AD02000216C8847A5
:1034300016E0A06C002813D02000A16C88470FE094
:1034400020680068C00505D42068006830F00800D6
:1034500021680860206C002802D02000216C884779
:103460002021E06D11FA00F007425FD0206800686B
:10347000C0065BD5E06D8140B16094F83500052849
:1034800028D12068006830F01600216808602068A4
:10349000406930F0800021684861206C002802D12A
:1034A000A06C002805D02068006830F00800216872
:1034B00008603F21E06D8140B160012084F8350053
:1034C000002084F83400206D002802D02000216DF7
:1034D000884750E020680068400311D520680068E4
:1034E000000306D4606C002820D02000616C88475F
:1034F0001CE0E06B002819D02000E16B884715E044
:1035000020680068C0050BD42068006830F0100007
:1035100021680860012084F83500002084F8340018
:10352000E06B002802D02000E16B8847606D002826
:1035300021D0606DC00718D5052084F835002068BB
:10354000006840084000216808600098401C009016
:10355000854204D320680068C007F6D4FFE7012045
:1035600084F83500002084F83400E06C002802D094
:103570002000E16C8847F1BD406D704730B40468AD
:10358000246834F4802405682C60046863608368D0
:10359000402B04D103689A600068C16003E00368AF
:1035A00099600068C26030BC7047017801F0FF018B
:1035B00010391822B1FBF2F10A4A525CC2650429A3
:1035C00005D30168890A8902091D816503E0016844
:1035D000890A89028165806D704700003F8010F084
:1035E00034000020A4B8000802000020936A91690A
:1035F000002914D1002B05D0022B03D007D3032BB5
:103600000BD00BE0D16AC90100D501202EE0D16AB0
:10361000B1F1C07F00D1012028E027E026E09169C8
:10362000B1F5005F15D1002B05D0022B03D004D3D8
:10363000032B07D00CE0012018E0D16AC90100D5A6
:10364000012013E0D16AB1F1C07F00D101200DE06B
:103650000CE0002B022B02D9DB1E02D006E0012079
:1036600004E0D16AC90100D50120FFE7C0B270476C
:1036700070477047704700002DE9F04104000E00CC
:10368000002C01D1012092E0634D286810F00F005A
:10369000B04207D22E70286810F00F00B04201D05F
:1036A000012084E02078800716D52078400704D5D3
:1036B0005A48016851F4E05101602078000704D5B0
:1036C0005648016851F46041016054490A6832F07B
:1036D000F002A06802430A602078C00735D5606810
:1036E000012805D14E480068800313D401205EE014
:1036F0006068022802D06068032805D14848006845
:10370000800107D4012052E045480068800701D4B9
:1037100001204CE0414F3968890889006068014305
:103720003960FEF7E1FC8046386810F00C006168F3
:10373000B0EB810F09D0FEF7D7FCB0EB080041F2E7
:1037400089318842F0D3032031E0286810F00F005F
:10375000864207D22E70286810F00F00B04201D0C8
:10376000012024E02078400706D52C490A6832F46D
:10377000E052E06802430A602078000707D5274836
:10378000016831F46041226951EAC201016000F030
:1037900051F82449214A1268C2F30312895CC840D7
:1037A000214908602148006803F0CAF80020BDE8FC
:1037B000F0811D480068704780B5FFF7FAFF1C498B
:1037C000164A1268C2F38222895CC84002BD80B5E5
:1037D000FFF7EFFF1649114A1268C2F34232895CC3
:1037E000C84002BD0F2202600C4A136813F00303A5
:1037F0004360136813F0F0038360136813F4E0531D
:10380000C3601268D20812F4E052026102480068F4
:1038100010F00F0008607047003C0240083802407A
:1038200000380240D8B60008340000201000002004
:10383000ACB8000810B50020002000200020194876
:10384000006810F00C00002804D0042804D00828D8
:1038500004D025E0144824E0144822E0144C2268E7
:1038600012F03F022068400209D52068C0F388109A
:103870000E49A1FB0001002300F01CF808E02068BD
:10388000C0F388100849A1FB0001002300F012F8E2
:103890002168C1F30141491C4900B0FBF1F000E08F
:1038A000014810BD083802400024F40040787D0132
:1038B00004380240BBBBE1B1B2F5803F80F07E80AE
:1038C000022A1ED98C46B1FBF2F102FB11C31B0484
:1038D00043EA1043B3FBF2FC02FB1C3380B240EA24
:1038E0000343B3FBF2F002FB103240EA0C4000232A
:1038F0007047022A05D98446B0FBF2F002FB10C2E1
:1039000070474AB105D100F0010249085FEA300072
:10391000704700220023704703F068B80B000200D4
:10392000002100207047904271EB030CF6D3B3F5F1
:10393000803F2FD2F0B5B3FA83F7B1FA81F4A7F143
:103940000F0E3D1B5340CEF1200602FA0EF2F3415A
:103950005340B5F10F0746D80F3C2C444140C4F109
:103960002006A040F1414140B1FBF3F603FB1611E4
:10397000A2FB0645001BA94102D2761E80185941C0
:1039800080EA010221FA0EF362FA0EF200215A4097
:103990003046F0BD30B4B1FBF3FC03FB1C11A2FBBD
:1039A0000C45001BA94103D2ACF1010C8018594110
:1039B00030BC02460B46604600217047B2F1807F62
:1039C00065D3F0B5B2FA82F7B1FA81F4C7F10F0608
:1039D0003D1B22FA06F307F1110EF24120355A4041
:1039E000B5F10F07B8D94140C4F12006A040F1411C
:1039F0004140B1FBF3FC03FB1C11A2FB0C45001B77
:103A0000A94103D2BCF1010C801859410F2F12D3E8
:103A10000F3FC90341EA5041B1FBF3F603FB161116
:103A2000A2FB0645D4EBC030A94102D2761E801815
:103A3000594146EACC3C07B34140C7F12006B840A3
:103A4000F1414140B1FBF3F603FB1611A2FB064521
:103A5000001BA94102D2761E8018594180EA01025A
:103A600021FA0EF3C7F1200462FA0EF20CFA07F005
:103A70005A402CFA04F13043F0BD80EA010221FAE9
:103A80000EF3002162FA0EF260465A40F0BD8C46F9
:103A9000B1FBF2F102FB11C31B0243EA1063B3FB5B
:103AA000F2FC02FB1C331B024CEA002043EA1063C9
:103AB000B3FBF2FC02FB1C331B024CEA002043EA7E
:103AC0001063B3FBF2FC02FB1C331B024CEA002028
:103AD00043EA1063B3FBF2FC02FB1C324CEA002009
:103AE0000023704710B500F00AF90400200000F030
:103AF000CAF8002801D1002003E0200000F09DF862
:103B0000012010BDF0B595B000200090002006A85F
:103B100000F060F800F0F3F80400200000F0B3F8C3
:103B2000002808D03C2206A9200002F061FF0028EE
:103B300001D101204CE01421002201AC2000FDF74E
:103B40009FFB00200190012002900B200390012098
:103B500004900220059002F0BEFF40F2F310694984
:103B60000860694601A803F081F807003800C0B278
:103B7000002814D1644E0F24002501E0361D6D1C71
:103B8000A5420CD206A850F82520002331000220BF
:103B900002F062FF07003800C0B20028EED002F049
:103BA000AAFFFFB2002F01D0002011E000F0A7F81B
:103BB0000400200000F067F8002806D03C2206A987
:103BC000200002F015FF002801D0002000E00120B5
:103BD00015B0F0BD38B50400002C2DD03C210022DA
:103BE00025002800FDF74CFB48482060012060605C
:103BF0003C20A0604649486AE060886A2061C86A43
:103C00006061086BA061886BE061C86B2062086C22
:103C10006062486CA062486DE06291F88C000028F8
:103C200001D0012000E00020206391F88D00606346
:103C3000200000F055F8A06331BD002822D0344A9E
:103C4000C1685162016991624169D1628169116300
:103C5000C1699163016AD163416A1164816A5164E7
:103C6000C16A5165016B002901D0012100E00021EA
:103C700082F88C10406B012801D1012000E0002067
:103C800082F88D00704710B50400002C01D100208F
:103C900025E020681D49884201D000201FE06068AF
:103CA000012801D000201AE0A0683C2801D00020A3
:103CB00015E0206B022801D3002010E0606B002883
:103CC00004D0606B012801D0002008E0200000F043
:103CD00007F8A16B814201D0002000E0012010BD57
:103CE00010B401000B483824002304E0CA5C5040A3
:103CF000094A50435B1CA342F8D310BC70470248EA
:103D0000704700000C3C024000000E08474643503C
:103D10006C490020C59D1C819301000180B503F012
:103D2000AEF801BD80B503F0C4F801BD80B58820B0
:103D300003F01DF9C0B202BD80B5892003F017F968
:103D4000C0B202BD10B50400200080B2000AC0B2AB
:103D500003F00DF9C0B2002801D0012004E02000DA
:103D6000C0B203F004F9C0B210BD10B5FFF7D6FF22
:103D7000FFF7DCFF04002000C0B2002804D143F2AA
:103D8000A200FFF7DFFF0400FFF7CCFF2000C0B266
:103D900010BD3EB5FFF7C2FFFFF7C8FF04002000CB
:103DA000C0B2002804D143F28260FFF7CBFF0400C9
:103DB0002000C0B2002808D14FF47A7003F030F828
:103DC000FFF7ACFFFFF7B8FF04002000C0B20028E7
:103DD0001AD16D46002003F0F5F86871002003F059
:103DE000F1F82871002003F0EDF88DF803000020B1
:103DF00003F0E8F8A870002003F0E4F868700120F0
:103E000003F0E0F88DF80000FFF78CFF2000C0B24F
:103E1000002814D15A4968460A68437952EA036275
:103E20000A600A68037952EA03420A600A688378E2
:103E300052EA03220A600A68407802430A602000BE
:103E4000C0B23EBD80B5FFF769FFFFF76FFF01000D
:103E5000C9B2002903D142F23010FFF773FFC0B29C
:103E600002BD10B5FFF781FF0400142000F08EF8AA
:103E70002000C0B2002802D1FFF78BFF0400E4B29B
:103E8000002C01D1FFF7DEFF10BD0000FEB50024BD
:103E90000025FFF743FFFFF749FF06003000C0B2DF
:103EA000002804D14FF46040FFF74CFF06003000BB
:103EB000C0B2002804D1FFF731FFFFF73DFF060035
:103EC0003000C0B200281AD16F46002003F07AF803
:103ED0007871002003F076F83871002003F072F852
:103EE0008DF80300002003F06DF8B870002003F097
:103EF00069F87870012003F065F88DF80000FFF78D
:103F000011FF3000C0B200282ED16946487954EA2A
:103F1000002408790443887855EA00254878054349
:103F2000A4B200EE104AB8EE400ADFED110A20EE0E
:103F3000200ADFED100A80EE200ADFED0F0A30EED6
:103F4000200A104880ED000AADB200EE105AB8EE1B
:103F5000400ADFED0A0A20EE200ADFED060A80EEB5
:103F6000200A094880ED000A3000C0B2FEBD000002
:103F700000002F4300FF7F47000034C20000C8420A
:103F80001C4E0020204E0020244E002038B5040096
:103F9000FEF7AAF8050014F1010F02D004480078DA
:103FA0002418FEF7A1F8401BA042FAD331BD00BF90
:103FB000B800002070B5DFED530A20EE200ABDEEF8
:103FC000C00A10EE100A504C0221217006216170C7
:103FD0000021A1700021E170010089B2090A21715C
:103FE00060710621200000F09BF8A07180B2000AE9
:103FF000E071464E4FF4FA73082221003000FDF7BD
:10400000CCF9002801D0012024E0414D4FF4FA738F
:10401000082229003000FDF720FA002801D00120F5
:1040200018E02878022814D16878062811D1A878D9
:10403000A17888420DD1E878E178884209D12879C1
:104040002179884205D168796179884201D10020BF
:1040500000E0012070BD0000F8B504002D4D0220E5
:104060002870042068700020A8700020E8700020EC
:104070002871012068710621280000F051F8A8710C
:1040800080B2000AE87108210022234E3700380070
:10409000FDF7F6F81D4F4FF4FA7308222900380097
:1040A000FDF77BF9002801D001202AE00120FFF76D
:1040B0006DFF4FF4FA73072231003800FDF7CDF998
:1040C000002801D001201CE03078022805D170784A
:1040D000042802D1B078022801D0012011E00F4855
:1040E000F178327952EA01220280008800EE100A4B
:1040F000B8EE400ADFED030A80EE200A84ED000AE4
:104100000020F2BD0000C842B84D0020F44B002052
:10411000C04D0020C84D0020D04D0020844E00200E
:1041200030B402004FF6FF70002400E0641C23004E
:10413000DBB20D009BB2ADB2AB4215D22300DBB2B5
:10414000D35C584000231D00EDB2082DEEDAC50700
:1041500002D480B2400805E080B205004AF20100B6
:1041600090EA55005B1CEEE780B230BC704738B572
:1041700004000821002225002800FDF781F8012015
:104180002070042060700020A0700020E0700020EB
:1041900020710120607106212000FFF7C1FFA0718E
:1041A00080B2000AE07131BDF8B52DED028BBFEE93
:1041B000008A3A4D2800FFF7DAFF394C4FF47A7342
:1041C000082229002000FDF7E8F8002802D0B0EE10
:1041D000480A5DE007210022324D2E003000FDF735
:1041E0004FF808210022304E37003800FDF748F81C
:1041F000072229002000FDF7AAF9002802D0B0EE1E
:10420000480A45E0FDF770FF070017F57A772000B0
:10421000FDF797FB222809D1FDF766FF8742F6D20A
:104220002000FDF7A9F9B0EE480A31E0072234007A
:1042300029002000FEF72CFD3078012805D1707888
:10424000042802D1B078022802D0B0EE480A1FE05C
:1042500005213000FFF764FFB279717951EA02213C
:1042600080B289B2884202D0B0EE480A10E00F490D
:10427000F2784FF48073307903FB02020A800888D9
:1042800000EE100AB8EE400ADFED030A80EE200AC5
:10429000BDEC028BF1BD00000000C842A04D002023
:1042A000F44B0020B04D0020A84D0020804E00208F
:1042B00038B584B004006846102102F0C7FA0094B3
:1042C0000120019004200290564C6946200002F023
:1042D000D6FF002801D002F0A8FA200002F0DCFE90
:1042E000002801D002F0A1FA0A21200002F06BFFA1
:1042F000002806D14C4D200002F0BEFF28802888FF
:1043000000E0002005B030BD70B504000025002697
:1043100005E02000FFF7CCFF15FA80F5761C0A2E89
:10432000F7DB00EE105AB8EE400AF2EE040A80EE17
:10433000200A70BD80B50220FFF7E6FFDFED340AEA
:1043400020EE200ADFED330A20EE200ADFED320AEC
:1043500080EE200ADFED310A20EE200A3348F7EE26
:10436000000A20EE200A80ED000A90ED000A01BD4F
:1043700080B50120FFF7C8FFDFED250A20EE200AF7
:10438000DFED240A20EE200ADFED230A80EE200A6A
:10439000DFED220A20EE200A2548F2EE040A80EE24
:1043A000200AF0EE000ABFEE001A00EE201A80ED9F
:1043B000001A90ED000A01BD80B50520FFF7A4FFAB
:1043C000DFED130A20EE200ADFED120A20EE200AAC
:1043D000DFED110A80EE200ADFED100A20EE200A40
:1043E0001448F2EE040A80EE200ADFED0D0A20EEFA
:1043F000200A80ED000A90ED000AB5EE400AF1EEC9
:1044000010FA01D50021016090ED000A01BD000005
:10441000CDCC8C3F333353400000804585EB414089
:1044200000004843644B0020824E0020004E0020D4
:10443000044E0020084E0020F8B400220022002282
:10444000002337E00A2704E0DFF810229042F9D178
:104450000927FFB213F00302D2B2920097403E4305
:104460001A00920845F82260DFF8F4512A68A24346
:104470004E68F60200D522432A60DFF8E8512A6828
:10448000A2434E68B60200D522432A60DFF8D85115
:104490002A68A2434E68B60300D522432A60DFF89B
:1044A000CC512A68A2434E68F60301D5144322007A
:1044B0002A605B1C102B80F0B280012515FA03F2F4
:1044C0000C6814409442F4D10A7912F00302012AD4
:1044D00004D00A7912F00302022A16D18668032753
:1044E0001A00D2B252009740BE43CF681A00D2B22F
:1044F000520097403E43866042689D40AA434D6803
:10450000C5F300159D402A4342600A7912F0030268
:10451000032A0DD0C56803261A00D2B25200964075
:10452000B5438E681A00D2B2520096403543C5603A
:104530000A7912F00302022A17D11A00D20800EBFE
:104540008202156A0F2613F00702D2B2920096403B
:10455000B5430E6913F00702D2B29200964035437C
:104560001A00D20800EB82021562056803261A00C1
:10457000D2B252009640B5430E7916F003061A00E7
:10458000D2B252009640354305604A6812F4403F6B
:104590008FD000220092364A156855F48045156088
:1045A000126812F480420092009A324D1A0092086A
:1045B00055F822600F2713F00302D2B29200974001
:1045C000BE432D4A904201D1002742E72B4A904238
:1045D00001D101273DE72A4A904201D1022738E75D
:1045E000284A904201D1032733E7274A904201D15C
:1045F00004272EE7254A904201D1052729E7244ABE
:10460000904201D1062724E7224A904201D1072790
:104610001FE7214A90427FF417AF082719E7F1BC42
:104620007047006989B2084201D0012000E00020F3
:10463000C0B27047D2B2002A02D089B2816102E0D2
:1046400089B209048161704742690B009BB2134033
:1046500089B2914351EA03418161704700240240CD
:10466000083C01400C3C0140043C0140003C01403E
:104670004438024008380140000002400004024073
:1046800000080240000C02400010024000140240EA
:1046900000180240001C0240002002402DE9F043B7
:1046A0009FB000BF65A6269CDFF8B48A8DF83B401A
:1046B000029100240B944FF0FF37044691461D46AB
:1046C0000AE019F8011B0298A0470028029000F0A8
:1046D000A1800B98401C0B9099F8000050B1252840
:1046E000EFD10021002205910692079108920991CD
:1046F0000A9203E00B98A5E041F0010119F8010FBF
:104700002028F9D023280CD02B2804D02D2805D020
:10471000302809D080E041F00201EFE741F00401C8
:10472000ECE741F00801E9E741F01001E6E70D92FE
:104730000AE00D98404505DA00EB800002EB4002EC
:10474000303A0D9209F1010999F80020A2F13000E8
:104750000A28EED399F800002E2818BF0C9726D10E
:1047600019F8010F2A2808D12868286009F10109E1
:1047700050F8042B28600C9219E02D280CBF09F189
:104780000109002000220C920BE040B90C9A42452E
:1047900005DA02EB820203EB4203303B0C9309F192
:1047A000010999F80030A3F130020A2AEDD3ADF8DF
:1047B0003810304699F80010FEF75EFA08B119F883
:1047C000010B8DF83A009DF83A00682805D199F858
:1047D000000068280CD1622106E06C2804BF99F81B
:1047E00000006C2804D171218DF83A1009F10109FB
:1047F00010A804902A4619F8013B6946204600F0AB
:1048000061F838B910AA6946204600F08FF90028EF
:104810007FF562AF384615E02A2888D12A682A60D9
:1048200052F8040B2A6000280D9003D540420D90E9
:1048300041F0040109F101098CE70000686A6C7419
:104840007A4C00001FB0BDE8F083622820D06828B1
:1048500011D06A2803D06C2827D0712825D1086888
:10486000C01D20F007000860D0E900230830086070
:10487000194610467047002A0A680A60106803D07B
:10488000121D0A6000B217E0121D0A6080B217E024
:10489000002A0A680A60106803D0121D0A6040B23C
:1048A0000AE0121D0A60C0B20AE0002A0A680A6023
:1048B000106803D0121D0A60C1177047121D0A60EC
:1048C0000021704770B51C460D46B4F125002E69D5
:1048D000114600F019811C3868D0001F022865D9E4
:1048E000133842D0093861D0801E16D0401E1ED029
:1048F000401E02285AD9001F19D0401F00F08180A5
:10490000401E32D0401E00F0CB80C01E00F0DA8086
:10491000801E2AD0C01E28D0FCE06869421C6A6153
:104920000A680A6052F8043B0A603354FCE095F8C8
:104930003A000122FFF789FFC5E90001002904D5EB
:104940006869411C69612D220DE0288F810704D51B
:104950006869411C69612B2205E0C00721D568699F
:10496000411C6961202232541BE095F83A00002274
:10497000FFF76BFFC5E9000195F83800010710D576
:10498000D5E90023002B08BF002A0AD044F02000FC
:10499000782806D1686930213154401C421C6A6174
:1049A0003454214668693044E86087E00868C01DD7
:1049B00020F007000860D0E9002308300860C5E94E
:1049C0000023D5E90001C80F04D06869411C696162
:1049D0002D220DE0288F810704D56869411C69618B
:1049E0002B2205E0C00704D56869411C69612022BB
:1049F000325468693044E8602146284600F0C4F922
:104A000092E005F13A02507820B14FF0FF340FF6F2
:104A1000202062E01078622808D0682824D06A2814
:104A200012D06C282ED071280ED02BE00A680A60B4
:104A300052F8040B0A6020B94FF0FF340FF608203B
:104A40004BE0E96A01706FE00A680A6052F8040BF3
:104A50000A6020B94FF0FF340FF6EC103DE0EA6A2F
:104A6000D317C0E900235FE00A680A6052F8040B1C
:104A70000A6020B94FF0FF340FF6CC102DE0E96A40
:104A8000018051E00A680A6052F8040B0A6020B9FC
:104A90004FF0FF340FF6B0101FE0E96A016043E009
:104AA0000A680A6052F8040B0A60002120F0000234
:104AB00021F0FF33C5E90023EE607821284600F09D
:104AC000BBF831E00868086050F8044B0860EC60FF
:104AD0003CB94FF0FF340FF6881002F059FD201A50
:104AE00070BD2E6B002E04D52046FEF743F8044619
:104AF00008E032460021204601F0F0FD002814BFF6
:104B0000041B3446AC610FE06869411C69612522D1
:104B1000325409E06969481C6861252272542100F9
:104B200002D0431C6B613454002070BD2DE9FC4160
:104B30000F46064690467A6B7869396ABC6A121A43
:104B4000B869521A796A121AF869521A121A97F841
:104B50003800141B41070FD42020002C8DF80000D2
:104B60000ADD254601236A463946304600F048FCF6
:104B700000285DD16D1EF5D17B694246394630462D
:104B800000F03EFC002853D130208DF800003D6A33
:104B9000002D09DD01236A463946304600F030FC1D
:104BA000002845D16D1EF5D1BB69FA6839463046FB
:104BB00000F026FC00283BD130208DF800007D6AF3
:104BC000002D08DD01236A463946304600F018FC06
:104BD00070BB6D1EF6D1F868B969FB694218394699
:104BE000304600F00DFC18BB30208DF80000BD6A87
:104BF000002D08DD01236A463946304600F000FCEE
:104C0000B0B96D1EF6D197F8380041070DD52020B8
:104C1000002C8DF8000008DD01236A463946304635
:104C200000F0EEFB20B9641EF6D10020BDE8F6814D
:104C30004FF0FF30BDE8F6812DE9FC4307466F29B0
:104C40003E6908BF082405D041F02000782814BF31
:104C50000A2410243C25D7E90023642918BF6929B8
:104C60009046994605D1002B03D5D8F1000869EB91
:104C70004909B9F1000F08BFB8F1000F1FD1386B17
:104C8000E8B9082C4CD197F83800010748D53020F6
:104C90003B2586F83B0043E000280ED597F8380006
:104CA00000F01400102808D17B6B7969386A5B1A10
:104CB0001B1A9A1A002AC8BF3A62BDE8F3838DF81E
:104CC0000010404649462246E317FEF7F3FD303216
:104CD000D0B26D1E3A28019504DB9DF80000A0F1CA
:104CE00051018A187255404649462246E317FEF79D
:104CF000E1FD80465FEA010908BFB8F1000F03D06B
:104D0000F86871198842DCD3082C09D197F838006B
:104D1000010705D5705D302802D06D1E302070551A
:104D2000C5F13C02BA617119F960386B8242B3DA9D
:104D3000821A3A624FF6EF70398F01403987BDE829
:104D4000F3832DE9D04306460F4614464FF0000882
:104D5000DFF8109412E0E00707D542464B46304694
:104D6000394602F035FC06460F4640464946424663
:104D70004B4602F02DFC641080468946002CEAD197
:104D800030463946BDE8D0832DE9F84F05468A46BE
:104D90004AF020048EB0D5E90089612C02AE09D01A
:104DA000286B002848BF062003D408BF672C01D118
:104DB00001202863D5E900014A005215521C0DD18B
:104DC0000B030BD0AAF1610103201A29A86102D2BA
:104DD0000FF2A86110E00FF2A8610DE04A00521531
:104DE000521C0ED10B030CD1AAF1610103201A2928
:104DF000A86116D30FF29061E8680322FDF748FF1F
:104E0000C0E1CDE90C01DDE90C2323F00043B3F54B
:104E1000801F0DD20027002B08BF002A019703D165
:104E200011E00FF26061E7E701AA02F0A3FC0AE0DB
:104E3000CD48CE4900EB1350DDE90C2301900B4027
:104E4000CB4910461943C5E90001612C0DD1E86832
:104E500030210170821CBAF1610FEA600CBF782129
:104E6000582141706869801C6861D5E90001CDE96D
:104E70000C01DDE90C2333F0004104BF00280023BE
:104E800000F04881612C40F0A080286B4946002842
:104E90004CBF4FF0210B00F1010B404600220023D4
:104EA000DDE90C8902F09EFC01990BF1010738BF86
:104EB00089F00049091F002F01918DF808200DF19C
:104EC000090040F33581A94900910646404649460C
:104ED0000022002302F09EFC80F029814800400D52
:104EE00000F11C0211D0002A0FDD40F2FF739A423C
:104EF00005DBA04909F000400143002011E0009BC0
:104F0000194041EA025140460BE028F0000039F018
:104F1000004108BF00280FBF49461C22494602F045
:104F200091FC8046894602F02BFDFF1F002F0446AE
:104F300009DD02F043FD02460B464046494602F0B9
:104F40004FFD80468946F01D072104E004F00F0262
:104F500000F8012D2411002C01DD491EF6D5491E53
:104F60005CBF002200F8012DF9D5DCE000201946D5
:104F700002AA0A4400E05B1E12F80149491E84425D
:104F8000F9D00F2804D10DF10900425C521C4254A3
:104F9000002904D50198001D02AE5B1C0190581E2B
:104FA0000CD43118AAF13A040A783032D7B23A2F29
:104FB000A8BFA218401E01F80129F5D5286B0028CA
:104FC00040F1A780591E2963A3E001996A4A47F27C
:104FD0009750414391FBF2F2019229F00046D2F141
:104FE000070204DD40463146FFF7ABFE0AE05242BD
:104FF00000206249FFF7A5FE02460B4640463146B7
:1050000002F060FD8046662C286B06BF019F0A37C0
:1050100006273F18142FC8BF142730208DF808002A
:1050200089460DF1090000E03046002F34DD0646C8
:105030004046494602F06AFE01460A4606F1080368
:1050400004200A26B2FBF6F606EB860EA2EB4E0211
:10505000303203F8012C0A22B6FBF2F202EB820E88
:10506000A6EB4E063036401E03F8026DE9D1083F2C
:10507000002F03F10806D7DD084602F05BFE02466A
:105080000B464046494602F0ABFC00223C4B02F086
:105090009FFA80468946CBE70DF10901401A0DF1D0
:1050A000090604E00199491E401E0191761C3178E1
:1050B0003029F7D0662C02D10199491C03E0652CF8
:1050C0000CBF012100212B6BCB189842B8BF431EA7
:1050D000002B1ED4834204DAF05C3528A8BF3920A7
:1050E00000DA30201946721E02EB010800E05B1E58
:1050F00018F80199491E8145F9D0392802D1705C10
:10510000401C7054002904D50198401C16465B1CB5
:105110000190019800B200901BB2324651462846D9
:1051200000F034F82EE0C61D002F3FF7CFAE30461A
:105130000DF10901401A03465845C8BF5B46002BD4
:105140000DF109063FF53AAF8342BFF60FAF0DF1FF
:105150000900C15C07297FF709AF0F2007E70000AE
:10516000CBCCCC0C0000244002FCFFFFFFFF0F80E3
:105170000000E03F0000F07FA08601000000F03F4B
:1051800084D797410FB0BDE8F08F00002DE9F847B4
:1051900083B006468A461746984600F099F9B8F15A
:1051A000000F406A356B90F8009002DC4FF0010868
:1051B000B6A74AF02000BDF93040662808BF641C3D
:1051C00015D0672840F0848014F1040FC0F2868067
:1051D000AC4280F2838096F83800641C010702D448
:1051E000A845B8BF454620B22D1A48BF00250FFA82
:1051F00084FAF068B169BAF1000F25DC4A1C30234B
:105200004354002D03DC96F83800010703D5F068FD
:1052100000F80290521C15EB0A0FB8BF6C4220B286
:10522000441941424445B8BFA046B26171620FFAC9
:1052300088F5F561F068B3692A4639461844FDF7E8
:1052400027FD641BB462C4E022B29045084417DA1B
:1052500042463946FDF71CFDB0694044B061AAEBF7
:105260000801002D716203DC96F838100A0705D595
:10527000F16801F80090F069401CF061B562A8E0A7
:105280003946FDF705FDB069002D5044A8EB040830
:1052900003DC96F838100A0703D5F16801F800908E
:1052A000401CB0610FFA88F08542F368B069B8BF5E
:1052B000A8460FFA88F207EB0A011844FDF7E8FC4C
:1052C000B1690FFA88F00144B161281A706280E078
:1052D000BAF1610F14D14FF0700A16E0A84504DA54
:1052E00096F838100A0758BF45466D1E48BF00257E
:1052F000BAF1670F14BF4FF0450A4FF0650A04E09A
:10530000BAF1410F08BF4FF0500AB169F368481C69
:10531000B061002D17F8012B5A5403DC96F83810B1
:105320000A071BD5F168431CB36101F80090002DFA
:1053300014DDA8F101080FFA88F039468542F768B4
:10534000B8BFA8460FFA88F2F818FDF7A1FCB069BB
:105350000FFA88F108446D1AB0617562F068B1699E
:105360000844002C80F800A003D42B224270811C3A
:1053700003E02D2141706442811C00206A460AE04E
:1053800023460A2493FBF4F404EB8405A3EB4503C2
:1053900002F8013B401C24B2002CF1DC012806DCA1
:1053A0004AF02002652A04BF302201F8012B48B9D7
:1053B000302001F8010B07E0401E1DF800303033AB
:1053C00001F8013B0028F7DCF268B0691044091AC3
:1053D000F16196F8380000F0140010280DD17269C0
:1053E000B169706A8A18F1698218B06A8A188218DD
:1053F000706B8242BCBF821A326204B0BDE8F08793
:10540000F8B505460E4617461C46002074B117F83D
:10541000011BB068A847B06030B1F06A401CF06270
:105420000020641EF3D1F2BD4FF0FF30F2BD00004A
:105430007072696E74665F733A20256E20646973BA
:10544000616C6C6F776564007072696E74663A2087
:1054500062616420256E20617267756D656E7400EF
:105460007072696E74665F733A206261642025739E
:1054700020617267756D656E740000006E616E006C
:105480004E414E00696E6600494E460030000000F5
:10549000613807E005E0A0F161011A2901D201207D
:1054A000704741381A288041C00F7047A0F10901A8
:1054B000052901D3202801D1012070470020704721
:1054C000A0F141011A2938BF2030704701487047C8
:1054D000014870477000002038000020034608464D
:1054E000C1680269491C521E002A0261C16003D4CE
:1054F00000680122002118474FF0FF307047034633
:1055000008461146C268521E11F1010FC26002D056
:1055100000680022184770472DE9F84F88B04FF017
:10552000FF36009137461B68129CDFF8045C01933C
:105530008DF81F400023039302920FF60C480FF6DC
:105540000049834602E00298411C029102990878C2
:10555000FDF7DEFAB0B10398401C039001220098D9
:105560000021D8478246FDF7D3FA0028F3D10398EB
:10557000401E1AF1010F0390E5D000980022514619
:10558000D847E0E7DDF808A09AF8000028B9B8424B
:1055900000DA384609B0BDE8F08F25280BD10AF1B2
:1055A0000100029001782A2903BF401C029010F8E4
:1055B000011D002111E00398401C03900122009876
:1055C0000021D8479AF800108842BCD002466946AC
:1055D0005846FFF794FF0020D9E78DF81C100021F2
:1055E00005910AE00598A84205DA00EB800301EB7B
:1055F000430130390591501C0290029A1178A1F1B3
:1056000030000A28EED3069648461178FDF734FBA1
:1056100020B10298401C0290401E00788DF81D00B9
:105620009DF81D00682805D10299087868280CD1DA
:10563000622206E06C2802BF029908786C2804D127
:105640007122491C8DF81D20029102980178404674
:10565000FDF712FBA8B90398401C039001220098A3
:105660000021D8478246FDF753FA0028F3D103986A
:10567000401E1AF1010F039003D0009800225146FA
:10568000D8476946584600F018F8002809DD002F71
:105690009DF81E0048BF002700283FF454AF7F1C30
:1056A00051E72CB110F1230F08BF30463FF472AF21
:1056B000002F7FF56EAF07466BE770B505460C46C9
:1056C0000020A368A0771E78253E6AD01C3E23D018
:1056D000361F022E20D9133E1AD0F61E7AD0B61FDE
:1056E0001AD0B61E12D0761E12D0761E022E13D9F4
:1056F000361F0DD0761F13D0761E012E08D9361F07
:105700004DD0B61E04D0F61E02D070BD002263E05C
:105710002846BDE8704058E12846BDE8704067E281
:10572000207F002847D1607F622808D068281CD0DD
:105730006A280ED06C2821D071280AD01EE061683A
:10574000616051F8040B616000281DD0E1680170B0
:1057500031E06168616051F8040B6160002813D08A
:10576000E268D317C0E9002325E06168616051F861
:10577000040B616040B1E16801801CE06168616018
:1057800051F8040B616038B90FF6C41001F000FF46
:105790004FF0FF34201A70BDE16801600BE0012278
:1057A0001AE0E068401CE060012220680021A84760
:1057B0000646252E01D1012070BD324621462846DD
:1057C000FFF79DFE16F1010F02D14FF0FF3070BDC3
:1057D000002070BD4FF0FF322846BDE8704021E048
:1057E000C9B208E003789942A4BF90F802C08C4582
:1057F00014DAC01CD21E032A09D343782D2BF1D012
:1058000010F801CB8C4518BF521EF4D106E03AB116
:1058100010F8013B8B4218BF521EF8D1012070478F
:10582000002070472DE9F04F14460026002C83B06D
:1058300080460D464FF0000B25D5A868411CA96095
:10584000084601785E2903BF401CA86010F801AD2E
:10585000B246AF6838785D280CBF781C38465D21A9
:10586000FDF70AFA002800F0A080C11B0091A86093
:105870000098032807DB821E2D21781C00F02EFFE4
:1058800008B14FF0010B6869002804DC002C14BF3C
:105890006FF0004001202861287F70B96868686057
:1058A00050F8049B6860B9F1000F06D14FF0FF3447
:1058B0004348784400F585700FE0287FB0B9E87F51
:1058C000A0B16968696051F8040B6960B0F1004FDC
:1058D00007D34FF0FF340FF6940001F059FE201A61
:1058E00070E0A969884288BF0846A861CDF808B071
:1058F000CDF804A0DDF800B02969491E2961E868E7
:10590000401C0029E86057D4286801220021C047C4
:1059100082461AF1010F32D0002C0FDDFDF7F8F8A6
:1059200068BB287F40B9A86940B309F801AB0121E1
:10593000A977A869401EA8610226DDE7F1D5029883
:10594000002801980DD100285A465146384604D106
:1059500000F0C4FE0028E4D111E000F0BFFE70B9F1
:10596000DFE700285A465146384604D1FFF738FF92
:105970000028D6D103E0FFF733FFF0E701265246B7
:1059800029464046FFF7BBFD0CB1022E09D0022E7E
:1059900010D0F00702D41AF1010F06D14FF0FF30FA
:1059A00010E0287F30B9A86908B900200AE000207B
:1059B00089F80000012005E04FF0FF3ADFE700BF63
:1059C000FC59000003B0BDE8F08F2DE9F8450D4605
:1059D00088B0804668690028D8BF6FF00040286111
:1059E000EA464046FFF77AFD2B2818BF2D2807D13D
:1059F0008DF8000029464046FFF770FD0DF1010AC1
:105A0000A96809780022642914BF75290A240DD0D9
:105A1000692908BF002409D06F2908BF082405D0D0
:105A200070291ABF41F0200178291024302817D19D
:105A300029464046FFF752FD40F020010126C9B239
:105A400078290AD1002C18BF102C13D129464046C2
:105A5000FFF744FD102400260CE05CB9082409E09F
:105A600004B90A24564601461AE02868012200219A
:105A7000C0470126302840F0AB80E8682969401C07
:105A8000491E00292961E860EFD54FF0FF3001225F
:105A9000A2E0E960012228680021C04701460122F6
:105AA00011F1010F00F09C80C8B26128A8BFA1F1DC
:105AB00057030ADA4128A8BFA1F1370305DA3038C5
:105AC0000A2834BFA1F13003FF23DBB2E0B28342E6
:105AD00080F086800DF11F00864238BF06F8011B5A
