:020000040800F2
:1000000000200010C9230008892200088B22000864
:100010008D2200088F2200089122000800000000B5
:100020000000000000000000000000009322000813
:10003000952200080000000097220008992200087D
:1000400005240008092400080D24000811240008D4
:1000500015240008192400081D2400082124000884
:1000600025240008292400082D2400083124000834
:1000700035240008392400083D24000841240008E4
:1000800045240008492400084D2400085124000894
:1000900055240008592400085D2400086124000844
:1000A00065240008692400086D24000871240008F4
:1000B00075240008792400087D24000881240008A4
:1000C00085240008892400088D2400089124000854
:1000D00095240008A1220008992400089D24000806
:1000E000A1240008A5240008A9240008AD240008C4
:1000F000B1240008B5240008B9240008BD24000874
:10010000C1240008C5240008C9240008CD24000823
:10011000D1240008D5240008D9240008DD240008D3
:10012000E1240008E5240008AB220008E9240008C7
:10013000ED240008F1240008F5240008F924000843
:10014000FD240008012500080525000809250008F0
:100150000D2500081125000815250008192500089F
:100160001D2500082125000825250008292500084F
:100170002D25000831250008352500080000000065
:10018000392500083D2500084125000845250008BF
:10019000492500084D25000851250008552500086F
:1001A00000000000000000005925000810B5040000
:1001B000002C01D1012035E0A0690028FFD194F87E
:1001C0004100002805D1002084F84000200000F004
:1001D0002BFD242084F841002068C06830F40050D2
:1001E0002168C860200000F071FB2068006930F4CD
:1001F0009040216808612068406930F02A00216839
:1002000048612068C06850F400502168C860002030
:100210006064202084F84100202084F842000020FF
:100220006063002010BD2DE9FC4106000D001400A4
:100230001F00002096F84100202851D1002D03D046
:10024000200080B2002801D101204AE00020706423
:10025000212086F8410000F083FD8046B484F484B8
:10026000B068B0F5805F04D13069002801D1002466
:1002700012E02C0000250FE0207831684860641CF3
:1002800007E0002CF8D12888C005C00D316848600F
:10029000AD1CF08C401EF084F08C00280DD000972F
:1002A000434600228021300000F0E1F90028E8D028
:1002B000202086F84100032013E0009743460022E7
:1002C0004021300000F0D3F9002804D0202086F827
:1002D0004100032005E0202086F84100002000E0D6
:1002E0000220BDE8F6812DE9FC4106000D00140056
:1002F0009846002096F84200202856D1002D03D0C1
:10030000200080B2002801D101204FE0002070645D
:10031000222086F842000020306300F021FD070013
:10032000B485F485B068B0F5805F04D130690028E9
:1003300001D1002413E02C00002510E03068406853
:1003400010F07F00207029E0002C1AD1306840683E
:10035000C005C00D2880AD1CF08D401EF085F08DCD
:1003600000281DD0CDF800803B0000222021300065
:1003700000F07DF90028E7D0202086F84200032015
:1003800014E0B068B0F5805F05D0B0680028D5D122
:1003900030690028D2D1306840682070641CDBE7E7
:1003A000202086F84200002000E00220BDE8F6810F
:1003B00038B50400206801682068C2682068436975
:1003C0000020002011F00F00002807D18D0605D570
:1003D000950603D5200000F002FA47E1002879D005
:1003E000D80702D412F4907F74D011F00100C0B28B
:1003F000002805D0D00503D5606C50F00100606482
:10040000480708D513F00100C0B2002803D0606C83
:1004100050F002006064880708D513F00100C0B2F4
:10042000002803D0606C50F00400606408070AD50F
:10043000900604D413F00103DBB2002B03D0606CF0
:1004400050F008006064606C002842D0880604D533
:10045000900602D5200000F0C2F9206840698009AA
:1004600010F00100616C090701D400282CD0200095
:1004700000F03EF920684069400621D5206814301C
:1004800050E8001F31F04001206810F1140242E8EA
:1004900000100028F2D1E06B00280DD00FF2B1203F
:1004A000E16B0865E06B00F01FFD002811D0E06BE8
:1004B000E16B096D88470CE0200000F091FE08E038
:1004C000200000F08DFE04E0200000F089FE0020F6
:1004D0006064CBE0206B012840F0B880C80640F192
:1004E000B580D00640F1B2800020009020680068FE
:1004F000009020684068009000982068406940069D
:1005000067D5E06B00684168080080B2002850D0D1
:100510000800A28D80B290424BD2E185E06BC069A9
:10052000B0F5807F3BD020680C3050E8001F31F4DC
:100530008071206810F10C0242E800100028F2D10E
:100540002068143050E8001F49084900206810F165
:10055000140242E800100028F2D12068143050E85C
:10056000001F31F04001206810F1140242E8001031
:100570000028F2D1202084F8420000202063206867
:100580000C3050E8001F31F01001206810F10C020F
:1005900042E800100028F2D1E06B00F057FC022086
:1005A0006063A18DE08D091A89B2200000F019FE68
:1005B0000EE0A08D89B281420AD1E06BC069B0F52E
:1005C000807F05D102206063A18D200000F009FE2C
:1005D0004CE0A08DE18D411AE08D002835D0080057
:1005E00080B2002831D020680C3050E8002F32F45F
:1005F0009072206810F10C0343E800200028F2D12B
:100600002068143050E8002F52085200206810F182
:10061000140343E800200028F2D1202084F842008F
:100620000020206320680C3050E8002F32F01002C8
:10063000206810F10C0343E800200028F2D10220CA
:10064000606389B2200000F0CCFD0FE0080605D5FC
:10065000100603D5200000F083F807E0480605D512
:10066000500603D5200000F0ACF8FFE731BD2DE9BE
:10067000FC4105000E0090461F00089C2868006899
:100680003040B04201D1012000E000204146C9B213
:1006900088422AD114F1010FF0D000F061FBC01B99
:1006A000844201D3002C01D103201FE02868C068D8
:1006B0004007E3D5802EE1D0402EDFD028680068C7
:1006C0000007DBD5002000902868006800902868AB
:1006D000406800900098280000F00AF8082068643C
:1006E000002085F84000012000E00020BDE8F681F0
:1006F00001680C3151E8002F32F49072016811F159
:100700000C0343E800210029F2D10168143151E8BB
:10071000002F52085200016811F1140343E8002130
:100720000029F2D1016B01290CD101680C3151E88B
:10073000002F32F01002016811F10C0343E8002190
:100740000029F2D1202180F8421000210163704776
:1007500080B5806B0021C18500F042FD01BD000025
:1007600090F8411021292AD18168B1F5805F0CD120
:100770000169002909D1016A0988C905C90D026802
:100780005160016A891C016205E0016A4A1C02622B
:10079000097802685160C18C491EC18489B2002960
:1007A0000BD10168C96831F080010268D16001682D
:1007B000C96851F040010068C160002000E00220DB
:1007C000704780B50168C96831F040010268D160A6
:1007D000202180F8411000F005FD002002BD80B509
:1007E0000021002190F8421022296DD18168B1F5D5
:1007F000805F0CD10169002909D1816A02685268C1
:10080000D205D20D0A80816A891C816216E0826A53
:100810008168B1F5805F05D08168002906D1016942
:10082000002903D101684968117004E00168496832
:1008300011F07F011170816A491C8162C18D491ECE
:10084000C18589B200293DD10168C96831F0200114
:100850000268D1600168C96831F480710268D160B2
:10086000016849694908490002685161202180F8FE
:10087000421000214163016B01291FD10021016356
:1008800001680C3151E8002F32F01002016811F1BB
:100890000C0343E800210029F2D101680968C90668
:1008A00008D5002100910168096800910168496834
:1008B00000910099818D00F094FC01E000F093FC20
:1008C000002002E0002000E0022002BD2DE9FE4FE2
:1008D00005002868016931F44051E868014328683F
:1008E0000161A9682869014368690143E869014316
:1008F0002868C268AF48024011432868C160286870
:10090000416931F44071A869014328684161286850
:10091000A949884203D02868A849884203D100F039
:100920000EFD040002E000F0FFFC0400E869B0F5F1
:10093000004F40F09F805FF0640A022600275FF0BE
:1009400019085FF0000922000023A8FB020108FB40
:10095000031109FB0211CDE9000168680021A6FB23
:10096000002306FB013307FB0033DDE9000100F043
:100970003FFD6421B0FBF1F0029022000023A8FBB0
:10098000020108FB031109FB0211CDE900016868AF
:100990000021A6FB002306FB013307FB0033DDE942
:1009A000000100F025FD834622000023A8FB020180
:1009B00008FB031109FB0211CDE900016868002161
:1009C000A6FB002306FB013307FB0033DDE9000132
:1009D00000F00EFD6421B0FBF1F00AFB10B0C00086
:1009E00032306421B0FBF1F0400010F4F87002994D
:1009F00010EB0110029022000023A8FB020108FB6B
:100A0000031109FB0211CDE9000168680021A6FB72
:100A1000002306FB013307FB0033DDE9000100F092
:100A2000E7FC83462000002102000B00A8FB020126
:100A300008FB031109FB02116A68002390469946DE
:100A4000A6FB082306FB093307FB083300F0D0FCA4
:100A50006421B0FBF1F00AFB10BA5FEACA00323041
:100A60006421B0FBF1F111F0070102980918286820
:100A700081609CE0042600275FF0640A5FF019089B
:100A80005FF0000922000023A8FB020108FB03110C
:100A900009FB0211CDE9000168680021A6FB0023D3
:100AA00006FB013307FB0033DDE9000100F0A0FC89
:100AB0006421B0FBF1F0029022000023A8FB0201A8
:100AC00008FB031109FB0211CDE900016868002150
:100AD000A6FB002306FB013307FB0033DDE9000121
:100AE00000F086FC834622000023A8FB020108FBDD
:100AF000031109FB0211CDE9000168680021A6FB82
:100B0000002306FB013307FB0033DDE9000100F0A1
:100B10006FFC6421B0FBF1F00AFB10B00001323031
:100B20006421B0FBF1F010F0F000029910EB01101D
:100B3000029022000023A8FB020108FB031109FB1D
:100B40000211CDE9000168680021A6FB002306FB25
:100B5000013307FB0033DDE9000100F049FC834667
:100B60002000002102000B00A8FB020108FB03117A
:100B700009FB02116A68002390469946A6FB0823E8
:100B800006FB093307FB083300F032FC6421B0FB9D
:100B9000F1F00AFB10BA5FEA0A1032306421B0FBB0
:100BA000F1F111F00F010298091828688160BDE881
:100BB000F78F0000F369FFFF0010014000140140AF
:100BC00080B55D485D4901605FF4E131416000211D
:100BD00081600021C160002101610C21416100217F
:100BE00081610021C161FFF7E1FA002801D000F026
:100BF00087FD01BD80B55248524901605FF4E13183
:100C00004160002181600021C160002101610C214F
:100C10004161002181610021C161FFF7C7FA00280D
:100C200001D000F06DFD01BD38B586B0040001A80B
:100C3000142100F067FD2068404988424FD1002010
:100C400000904148016851F010010160006810F007
:100C5000100000900098002000903C48016851F07E
:100C600001010160006810F00100009000984FF44D
:100C7000C0600190022002900020039003200490A5
:100C80000720059001A9324800F05CFD314D324843
:100C900028605FF0006068600020A8600020E860C5
:100CA0004FF480602861002068610020A861002066
:100CB000E8610020286200206862280000F056F8F1
:100CC000002801D000F01CFDE563AC630022002188
:100CD000252000F0C4FE252000F0D2FE29E0206887
:100CE0001849884225D1002000901748016851F02A
:100CF00020010160006810F02000009000980020A2
:100D000000901248016851F004010160006810F081
:100D1000040000900098C020019002200290002062
:100D20000390032004900820059001A90B4800F0CF
:100D300009FD07B030BD00006C000020001001402C
:100D4000B400002000140140443802403038024012
:100D5000000002400C0000204064024000080240F5
:100D600001480068704700BF1001002038B504003A
:100D70000020FFF7F5FF0500002C01D1012064E001
:100D8000606A0028022084F83500002084F83400CE
:100D900020680068400840002168086020680068FA
:100DA000C0070BD5FFF7DCFF401B0628F6D3202039
:100DB0006065032084F83500032046E02068016860
:100DC000DFF8880301406268A0680243E0680243DC
:100DD0002069024360690243A0690243E06902435B
:100DE000206A02431143606A042803D1E26A206B3F
:100DF000024311432068016020684569ED08ED0059
:100E0000606A0543606A042810D1A06A0543E06A5D
:100E100000280BD0200000F09FF9002806D04020C9
:100E20006065012084F8350001200EE020684561EE
:100E3000200000F071F93F22E16D8A4082600020BD
:100E40006065012084F83500002032BD70B50400D3
:100E5000A56DFFF785FF060094F83500022806D03F
:100E600080206065002084F8340001203BE0206889
:100E7000006830F01600216808602068406930F092
:100E8000800021684861206C002802D1A06C0028F5
:100E900005D02068006830F00800216808602068EC
:100EA0000068400840002168086020680068C007AA
:100EB0000ED5FFF755FF801B0628F6D3202060656E
:100EC000032084F83500002084F8340003200AE071
:100ED0003F21E06D8140A960012084F835000020A9
:100EE00084F83400002070BD90F83510022903D03A
:100EF00080214165012009E0052180F83510016855
:100F00000968490849000068016000207047F8B589
:100F1000040000200090DFF8380200684FF41651FA
:100F2000B0FBF1F5A66D37680821E06D11FA00F00D
:100F3000074210D02068006840070CD52068006880
:100F400030F0040022681060E06D8140B160606D97
:100F500050F001006065E06D3900C140C8070BD555
:100F600020684069000607D50121E06D8140B1602D
:100F7000606D50F0020060650421E06D11FA00F030
:100F800007420AD020680068800706D5E06D8140DE
:100F9000B160606D50F0040060651021E06D11FAE1
:100FA00000F007422CD020680068000728D5E06DCB
:100FB0008140B16020680068400311D52068006856
:100FC000000306D4206C00281AD02000216C88472A
:100FD00016E0A06C002813D02000A16C88470FE019
:100FE00020680068C00505D42068006830F008005B
:100FF00021680860206C002802D02000216C8847FE
:101000002021E06D11FA00F007425FD020680068EF
:10101000C0065BD5E06D8140B16094F835000528CD
:1010200028D12068006830F0160021680860206828
:10103000406930F0800021684861206C002802D1AE
:10104000A06C002805D02068006830F008002168F6
:1010500008603F21E06D8140B160012084F83500D7
:10106000002084F83400206D002802D02000216D7B
:10107000884750E020680068400311D52068006868
:10108000000306D4606C002820D02000616C8847E3
:101090001CE0E06B002819D02000E16B884715E0C8
:1010A00020680068C0050BD42068006830F010008C
:1010B00021680860012084F83500002084F834009D
:1010C000E06B002802D02000E16B8847606D0028AB
:1010D00021D0606DC00718D5052084F83500206840
:1010E000006840084000216808600098401C00909B
:1010F000854204D320680068C007F6D4FFE70120CA
:1011000084F83500002084F83400E06C002802D018
:101110002000E16C8847F1BD017801F0FF01103932
:101120001822B1FBF2F10B4A525CC265042905D3C7
:101130000168890A8902091D816503E00168890A3D
:1011400089028165806D7047000000003F8010F0CB
:1011500004000020F423000802000020936A916933
:10116000002914D1002B05D0022B03D007D3032B69
:101170000BD00BE0D16AC90100D501202EE0D16A65
:10118000B1F1C07F00D1012028E027E026E091697D
:10119000B1F5005F15D1002B05D0022B03D004D38D
:1011A000032B07D00CE0012018E0D16AC90100D55B
:1011B000012013E0D16AB1F1C07F00D101200DE020
:1011C0000CE0002B022B02D9DB1E02D006E001202E
:1011D00004E0D16AC90100D50120FFE7C0B2704721
:1011E00070477047704770472DE9F04104000E00CA
:1011F000002C01D1012092E0564D286810F00F001C
:10120000B04207D22E70286810F00F00B04201D013
:10121000012084E02078800716D52078400704D587
:101220004D48016851F4E05101602078000704D571
:101230004948016851F46041016047490A6832F049
:10124000F002A06802430A602078C00735D56068C4
:10125000012805D141480068800313D401205EE0D5
:101260006068022802D06068032805D13B48006806
:10127000800107D4012052E038480068800701D47B
:1012800001204CE0344F39688908890060680143C7
:101290003960FFF765FD8046386810F00C00616822
:1012A000B0EB810F09D0FFF75BFDB0EB080041F216
:1012B00089318842F0D3032031E0286810F00F0014
:1012C000864207D22E70286810F00F00B04201D07D
:1012D000012024E02078400706D51F490A6832F42F
:1012E000E052E06802430A602078000707D51A48F8
:1012F000016831F46041226951EAC201016000F0E5
:1013000037F81749144A1268C2F30312895CC840BF
:10131000144908601448006800F0CCFB0020BDE8C8
:10132000F08110480068704780B5FFF7FAFF0F4959
:10133000094A1268C2F38222895CC84002BD80B5A6
:10134000FFF7EFFF0949044A1268C2F34232895C91
:10135000C84002BD003C024008380240003802404C
:10136000B82300080400002000000020FC2300082F
:1013700010B500200020002000201948006810F05F
:101380000C00002804D0042804D0082804D025E04C
:10139000144824E0144822E0144C226812F03F0262
:1013A0002068400209D52068C0F388100E49A1FBCF
:1013B0000001002300F01CF808E02068C0F388104A
:1013C0000849A1FB0001002300F012F82168C1F3D5
:1013D0000141491C4900B0FBF1F000E0014810BD9B
:1013E000083802400024F40040787D0104380240AF
:1013F000BBBBE1B1B2F5803F80F07E80022A1ED9EE
:101400008C46B1FBF2F102FB11C31B0443EA10430B
:10141000B3FBF2FC02FB1C3380B240EA0343B3FB94
:10142000F2F002FB103240EA0C4000237047022A1F
:1014300005D98446B0FBF2F002FB10C270474AB1F6
:1014400005D100F0010249085FEA30007047002230
:101450000023704700F054BB0B0002000021002065
:101460007047904271EB030CF6D3B3F5803F2FD257
:10147000F0B5B3FA83F7B1FA81F4A7F10F0E3D1B73
:101480005340CEF1200602FA0EF2F3415340B5F17B
:101490000F0746D80F3C2C444140C4F12006A04021
:1014A000F1414140B1FBF3F603FB1611A2FB0645E7
:1014B000001BA94102D2761E8018594180EA010220
:1014C00021FA0EF362FA0EF200215A403046F0BDC6
:1014D00030B4B1FBF3FC03FB1C11A2FB0C45001B59
:1014E000A94103D2ACF1010C8018594130BC02462D
:1014F0000B46604600217047B2F1807F65D3F0B59E
:10150000B2FA82F7B1FA81F4C7F10F063D1B22FA55
:1015100006F307F1110EF24120355A40B5F10F07DD
:10152000B8D94140C4F12006A040F1414140B1FB8F
:10153000F3FC03FB1C11A2FB0C45001BA94103D2C9
:10154000BCF1010C801859410F2F12D30F3FC90372
:1015500041EA5041B1FBF3F603FB1611A2FB06452D
:10156000D4EBC030A94102D2761E8018594146EA18
:10157000CC3C07B34140C7F12006B840F14141409F
:10158000B1FBF3F603FB1611A2FB0645001BA941B4
:1015900002D2761E8018594180EA010221FA0EF328
:1015A000C7F1200462FA0EF20CFA07F05A402CFA46
:1015B00004F13043F0BD80EA010221FA0EF300216C
:1015C00062FA0EF260465A40F0BD8C46B1FBF2F171
:1015D00002FB11C31B0243EA1063B3FBF2FC02FBE4
:1015E0001C331B024CEA002043EA1063B3FBF2FCFD
:1015F00002FB1C331B024CEA002043EA1063B3FBDE
:10160000F2FC02FB1C331B024CEA002043EA10638D
:10161000B3FBF2FC02FB1C324CEA002000237047B3
:1016200080B500F06FFA00F00EF800F085FA00F0D7
:10163000E5FAFFF7C5FAFFF7DDFA00F03BFB2D48AE
:1016400080ED000AF9E780B592B006A8302100F0DD
:1016500059F801A8142100F055F800200090264800
:10166000016851F080510160006810F080500090D6
:101670000098002000902148016851F44041016029
:10168000006810F4404000900098012006905FF43C
:101690008030079002200C905FF480000D900F20A6
:1016A0000E90D8200F90022010900420119006A8D0
:1016B00000F05CFB002801D000F022F800F038FDBB
:1016C000002801D000F01CF80F20019002200290A9
:1016D000002003904FF4A05004904FF480500590E8
:1016E000052101A8FFF780FD002801D000F008F8CF
:1016F00013B000BD0C0100204038024000700040D3
:1017000072B6FEE7002200F051BD30B4002513E0B0
:1017100050F8042BD30744BFA9F101039A18091FFD
:10172000042942F8045BFAD213468C0744BF1580A3
:101730009B1CC90748BF1D7050F8041B0029E7D146
:1017400030BC7047F8B4002200220022002337E0AA
:101750000A2704E0DFF8EC219042F9D10927FFB213
:1017600013F00302D2B2920097403E431A0092084F
:1017700045F82260DFF8D0512A68A2434E68F6028D
:1017800000D522432A60DFF8C4512A68A2434E687C
:10179000B60200D522432A60DFF8B4512A68A2437A
:1017A0004E68B60300D522432A60DFF8A8512A68A4
:1017B000A2434E68F60301D5144322002A605B1C45
:1017C000102B80F0B280012515FA03F20C6814404A
:1017D0009442F4D10A7912F00302012A04D00A7962
:1017E00012F00302022A16D1866803271A00D2B229
:1017F00052009740BE43CF681A00D2B252009740C1
:101800003E43866042689D40AA434D68C5F300157B
:101810009D402A4342600A7912F00302032A0DD048
:10182000C56803261A00D2B252009640B5438E68AE
:101830001A00D2B2520096403543C5600A7912F0C0
:101840000302022A17D11A00D20800EB8202156A9D
:101850000F2613F00702D2B292009640B5430E69EC
:1018600013F00702D2B29200964035431A00D20814
:1018700000EB82021562056803261A00D2B25200FC
:101880009640B5430E7916F003061A00D2B2520004
:101890009640354305604A6812F4403F8FD00022DD
:1018A00000922D4A156855F480451560126812F4AF
:1018B00080420092009A294D1A00920855F8226041
:1018C0000F2713F00302D2B292009740BE43244A7E
:1018D000904201D1002742E7224A904201D10127DC
:1018E0003DE7214A904201D1022738E71F4A904242
:1018F00001D1032733E71E4A904201D104272EE786
:101900001C4A904201D1052729E71B4A904201D188
:10191000062724E7194A904201D107271FE7184AF2
:1019200090427FF417AF082719E7F1BC7047D2B295
:10193000002A02D089B2816102E089B20904816182
:101940007047000000240240083C01400C3C01406C
:10195000043C0140003C014044380240083801404A
:10196000000002400004024000080240000C024057
:10197000001002400014024000180240001C024007
:101980000020024010F00700DFF808311A684FF617
:10199000FF010A40DFF8001151EA00210A431A60F2
:1019A00070473C480068C0F302207047010049B20C
:1019B000002908D4012210F01F018A40374940B2A3
:1019C000400941F820207047020052B2002A04D496
:1019D0000901334A40B2115407E00901314A40B2CB
:1019E00010F00F00104400F8041C704710B410F001
:1019F0000700D0F10703052B01D3042301E0D0F148
:101A00000703041D072C01D2002000E0C01E0124A2
:101A100014FA03F35B1E1940814014FA00F0401ED3
:101A20001040084310BC704780B5411EB1F1807F63
:101A300001D301200EE0401E1B4908600F215FF01A
:101A4000FF30FFF7C1FF0020184908600720184940
:101A50000860002002BD80B5FFF794FF01BD70B59E
:101A600004000D0016000020FFF79BFF3200290044
:101A7000FFF7BCFF0100200040B2FFF7A5FF70BDDB
:101A800080B540B2FFF792FF01BD80B5FFF7CCFFF4
:101A900002BD00000CED00E00000FA0500E100E0EE
:101AA00000E400E018ED00E014E000E018E000E0E1
:101AB00010E000E010B504004FF47A700D49097889
:101AC000B0FBF1F00C490968B1FBF0F0FFF7DDFF66
:101AD000002801D001200CE0102C09D200222100A6
:101AE0005FF0FF30FFF7BBFF04480460002000E018
:101AF000012010BD0800002004000020000000208C
:101B00007047000080B50B48016851F40071016016
:101B1000016851F480610160016851F480710160D5
:101B20000320FFF798FF0F20FFF7C4FF00F058FBDA
:101B3000002002BD003C024038B586B001A8142147
:101B4000FFF7E0FD002000902948016851F01001E6
:101B50000160016811F010010091009900210091CD
:101B6000016851F004010160016811F00401009165
:101B7000009900210091016851F080010160016825
:101B800011F080010091009900210091016851F04D
:101B900001010160006810F0010000900098154DEF
:101BA000002240212800FFF7C2FE134C00224FF410
:101BB00000512000FFF7BBFE402001900120029061
:101BC000002003900020049001A92800FFF7BAFD2F
:101BD0004FF400500190012002900020039000205B
:101BE000049001A92000FFF7ADFD07B030BD00BF94
:101BF00030380240001002400008024080B500204A
:101C000000900948016851F480010160006810F4F7
:101C1000800000900098002200213A20FFF71FFF6B
:101C20003A20FFF72DFF01BD3038024030B40200EA
:101C30004FF6FF70002400E0641C2300DBB20D00AF
:101C40009BB2ADB2AB4215D22300DBB2D35C58409D
:101C500000231D00EDB2082DEEDAC50702D480B2D4
:101C6000400805E080B205004AF2010090EA550004
:101C70005B1CEEE780B230BC704738B50400082129
:101C800000222500280000F0CBFA0120207004205B
:101C900060700020A0700020E07000202071012002
:101CA000607106212000FFF7C1FFA07180B2000A19
:101CB000E07131BD38B52DED028BBFEE008A274CA7
:101CC0002000FFF7DAFF264D4FF47A730822210037
:101CD0002800FEF7A8FA002802D0B0EE480A38E043
:101CE000204C4FF47A73072221002800FEF7FBFAFC
:101CF000002802D0B0EE480A2BE02078012805D158
:101D00006078042802D1A078022802D0B0EE480AF8
:101D10001FE005212000FFF789FFA279617951EAD0
:101D2000022180B289B2884202D0B0EE480A10E0A7
:101D30000D49E2784FF48073207903FB02020A8098
:101D4000088800EE100AB8EE400ADFED030A80EEC4
:101D5000200ABDEC028B31BD0000C842FC0000200F
:101D60006C00002004010020140100202DE9FC413A
:101D70000400002C01D10120C4E12078C0075FD508
:101D8000DFF88403016811F00C01042909D0006810
:101D900010F00C0008280ED1DFF870030068400234
:101DA00009D5DFF86C030068800349D56068002816
:101DB00046D10120A6E16068B0F5803F06D1DFF88A
:101DC0005003016851F48031016018E06068B0F59B
:101DD000A02F0AD1DFF83803016851F48021016097
:101DE000016851F48031016009E0DFF824030168E3
:101DF00031F480310160016831F480210160606854
:101E000000280ED0FEF7ACFF0500DFF804030068E1
:101E1000800315D4FEF7A4FF401B6528F5D30320EB
:101E200070E1FEF79DFF0500DFF8E4020068800323
:101E300006D5FEF795FF401B6528F5D3032061E129
:101E4000207880071DD5B048016811F00C0F08D02C
:101E5000006810F00C0008282AD1AC480068400245
:101E600026D4AB480168890704D5E168012901D06F
:101E7000012047E1016831F0F801226951EAC2010D
:101E800001602078000751D5606900283DD001200D
:101E9000A0490860FEF764FF05009F4800688007BE
:101EA00044D4FEF75DFF401B0328F6D3032029E14D
:101EB000E068002818D0012098490860FEF750FF1C
:101EC000050093480168890706D4FEF749FF401BC7
:101ED0000328F6D3032015E1016831F0F8012269E7
:101EE00051EAC2010160CCE700208C490860FEF78E
:101EF00037FF0500864800688007C2D5FEF730FF2F
:101F0000401B0328F6D30320FCE000208149086031
:101F1000FEF726FF050080480068800706D5FEF71B
:101F20001FFF401B0328F6D30320EBE02078400777
:101F30006FD500267A4D2868C0000BD40020009091
:101F4000286850F080502860286810F08050009079
:101F500000980126734F3868C00511D4386850F4D2
:101F600080703860FEF7FCFE80463868C00507D4F4
:101F7000FEF7F6FEB0EB08000328F6D30320C1E01D
:101F8000A068012805D16848016851F0010101608D
:101F900015E0A068052809D16348016851F00401E3
:101FA0000160016851F00101016008E05E480168CC
:101FB000490849000160016831F004010160A0682E
:101FC00000280FD0FEF7CCFE0700574800688007B6
:101FD00018D4FEF7C5FEC01B41F289318842F4D304
:101FE00003208FE0FEF7BCFE07004F480068800723
:101FF00008D5FEF7B5FEC01B41F289318842F4D303
:1020000003207FE0F6B2012E03D1286830F0805023
:102010002860A069002874D03B48006810F00C00CC
:10202000082843D0A06902282FD1404E00203060FC
:10203000FEF796FE0700364D2868800106D5FEF7AC
:102040008FFEC01B0328F6D303205BE0E169206A02
:102050000143606A51EA8011A06A4008401E51EABB
:102060000041E06A51EA00612848016001203060C7
:10207000FEF776FE04002868800142D4FEF770FE69
:10208000001B0328F7D303203CE000202749086009
:10209000FEF766FE04001E480068800131D5FEF799
:1020A0005FFE001B0328F6D303202BE0A069012864
:1020B00001D1012026E015480068A16901291ED040
:1020C00010F48001E269914219D110F03F01226AB7
:1020D000914214D147F6C0710140626AB1EB821F90
:1020E0000DD110F44031A26A5208521EB1EB024FDA
:1020F00005D110F07060E16AB0EB016F01D00120F2
:1021000000E00020BDE8F6810838024004380240B3
:1021100000380240800E47427438024000004742B7
:102120004038024000700040703802406000474272
:1021300038B50020002000901948016851F0805106
:102140000160006810F0805000900098012015494F
:102150000860FEF705FE0500104C2068C00308D497
:10216000FEF7FEFD401B40F2E9318842F4D3032024
:1021700012E001200C490860FEF7F2FD050020681E
:10218000800308D4FEF7ECFD401B40F2E9318842A1
:10219000F5D3032000E0002032BD000004700040B1
:1021A0004038024040000E4244000E4200B500BFDD
:1021B000130096469446103928BFA0E80C50FAD870
:1021C0005FEA417C28BF0CC048BF40F8042BC90718
:1021D00028BF20F8022B48BF00F8012B00BD0000EB
:1021E00081B0002000900C48016851F480410160EA
:1021F000006810F48040009000980020009007488C
:10220000016851F080510160006810F0805000902A
:10221000009801B0704700BF443802404038024087
:1022200062F30F2262F31F42401810F0030308D03C
:10223000C91A1FD3DB0748BF00F8012D28BF20F8BB
:10224000022D130030B414461546103928BF20E97A
:102250003C00FAD8490728BF20E90C0048BF40F8E5
:10226000042D890028BF20F8022D48BF00F8012D59
:1022700030BC7047C91818BF00F8012DCB0728BF24
:1022800000F8012D70470000FEE7FEE7FEE7FEE7DD
:10229000FEE770477047704780B500F00FF801BD4A
:1022A00080B50448FEF784F801BD80B50248FEF70A
:1022B0002EFE01BD6C0000200C00002003480168C8
:1022C000034A127889180160704700BF100100208E
:1022D0000800002030B450F8041B79B1026843684C
:1022E00002440830DC0744BFA9F10104E31852F8A6
:1022F000045B43F8045B091FF9D1ECE730BC70477D
:1023000010B5074979441831064C7C44163404E072
:102310000A68081D114488470146A142F8D110BD42
:102320002C0000004C0000004EF68851CEF2000157
:10233000086840F470000860BFF34F8FBFF36F8FE1
:102340004FF00070E1EE100A70470000BFF3FFFF8E
:102350000C0100000C0000200000000079FFFFFFCE
:102360000C000000F8010000000000200000000048
:1023700000F00DF8002801D0FFF7C2FFAFF3008096
:102380000020AFF30080FFF74BF900F002F80120C6
:10239000704700F001B800000746384600F002F828
:1023A000FBE7000080B5AFF30080024A110018205F
:1023B000ABBEFBE7260002000000000000000000AA
:1023C0000102030406070809014880470148004745
:1023D000D9230008E92300080248016851F470017C
:1023E0000160704788ED00E0AFF30080FFF79CFFCD
:1023F000FFF7BEFF000610160006101600000000D2
:1024000001020304FFF7FEBFFFF7FEBFFFF7FEBFA9
:10241000FFF7FEBFFFF7FEBFFFF7FEBFFFF7FEBFF0
:10242000FFF7FEBFFFF7FEBFFFF7FEBFFFF7FEBFE0
:10243000FFF7FEBFFFF7FEBFFFF7FEBFFFF7FEBFD0
:10244000FFF7FEBFFFF7FEBFFFF7FEBFFFF7FEBFC0
:10245000FFF7FEBFFFF7FEBFFFF7FEBFFFF7FEBFB0
:10246000FFF7FEBFFFF7FEBFFFF7FEBFFFF7FEBFA0
:10247000FFF7FEBFFFF7FEBFFFF7FEBFFFF7FEBF90
:10248000FFF7FEBFFFF7FEBFFFF7FEBFFFF7FEBF80
:10249000FFF7FEBFFFF7FEBFFFF7FEBFFFF7FEBF70
:1024A000FFF7FEBFFFF7FEBFFFF7FEBFFFF7FEBF60
:1024B000FFF7FEBFFFF7FEBFFFF7FEBFFFF7FEBF50
:1024C000FFF7FEBFFFF7FEBFFFF7FEBFFFF7FEBF40
:1024D000FFF7FEBFFFF7FEBFFFF7FEBFFFF7FEBF30
:1024E000FFF7FEBFFFF7FEBFFFF7FEBFFFF7FEBF20
:1024F000FFF7FEBFFFF7FEBFFFF7FEBFFFF7FEBF10
:10250000FFF7FEBFFFF7FEBFFFF7FEBFFFF7FEBFFF
:10251000FFF7FEBFFFF7FEBFFFF7FEBFFFF7FEBFEF
:10252000FFF7FEBFFFF7FEBFFFF7FEBFFFF7FEBFDF
:10253000FFF7FEBFFFF7FEBFFFF7FEBFFFF7FEBFCF
:10254000FFF7FEBFFFF7FEBFFFF7FEBFFFF7FEBFBF
:10255000FFF7FEBFFFF7FEBFFFF7FEBF1000000052
:082560000024F400010000005A
:04000005080023E9E3
:00000001FF
