:020000040800F2
:1000000000200010113C0008E13A0008E33A000823
:10001000E53A0008E73A0008E93A00080000000065
:10002000000000000000000000000000EB3A0008A3
:10003000ED3A000800000000EF3A0008F13A00082D
:100040004D3C0008513C0008553C0008593C000854
:100050005D3C0008613C0008653C0008693C000804
:100060006D3C0008713C0008753C0008793C0008B4
:100070007D3C0008813C0008853C0008893C000864
:100080008D3C0008913C0008953C0008993C000814
:100090009D3C0008A13C0008A53C0008A93C0008C4
:1000A000AD3C0008F33A0008B13C0008B53C00083C
:1000B000B93C0008BD3C0008C13C0008C53C000834
:1000C000C93C0008CD3C0008D13C0008D53C0008E4
:1000D000D93C0008FD3A0008DD3C0008E13C00087E
:1000E000E53C0008E93C0008ED3C0008F13C000854
:1000F000F53C0008F93C0008FD3C0008013D000803
:10010000053D0008093D00080D3D0008113D0008AF
:10011000153D0008193D00081D3D0008213D00085F
:10012000253D0008293D0008073B00082D3D00083B
:10013000313D0008353D0008393D00083D3D0008CF
:10014000413D0008453D0008493D00084D3D00087F
:10015000513D0008553D0008593D00085D3D00082F
:10016000613D0008653D0008693D00086D3D0008DF
:10017000713D0008753D0008793D00080000000051
:100180007D3D0008813D0008853D0008893D00084F
:100190008D3D0008913D0008953D0008993D0008FF
:1001A00000000000000000009D3D000810B50400A4
:1001B000002C01D1012035E0A0690028FFD194F87E
:1001C0004100002805D1002084F84000200000F004
:1001D000EBFE242084F841002068C06830F4005011
:1001E0002168C860200000F011FD2068006930F42B
:1001F0009040216808612068406930F02A00216839
:1002000048612068C06850F400502168C860002030
:100210006064202084F84100202084F842000020FF
:100220006063002010BD2DE9FC4106000D001400A4
:100230001F00002096F84100202851D1002D03D046
:10024000200080B2002801D101204AE00020706423
:10025000212086F8410000F077FF8046B484F484C2
:10026000B068B0F5805F04D13069002801D1002466
:1002700012E02C0000250FE0207831684860641CF3
:1002800007E0002CF8D12888C005C00D316848600F
:10029000AD1CF08C401EF084F08C00280DD000972F
:1002A000434600228021300000F010FB0028E8D0F7
:1002B000202086F84100032013E0009743460022E7
:1002C0004021300000F002FB002804D0202086F8F6
:1002D0004100032005E0202086F84100002000E0D6
:1002E0000220BDE8F6812DE9FC4106000D00140056
:1002F0009846002096F84200202856D1002D03D0C1
:10030000200080B2002801D101204FE0002070645D
:10031000222086F842000020306300F015FF07001D
:10032000B485F485B068B0F5805F04D130690028E9
:1003300001D1002413E02C00002510E03068406853
:1003400010F07F00207029E0002C1AD1306840683E
:10035000C005C00D2880AD1CF08D401EF085F08DCD
:1003600000281DD0CDF800803B0000222021300065
:1003700000F0ACFA0028E7D0202086F842000320E5
:1003800014E0B068B0F5805F05D0B0680028D5D122
:1003900030690028D2D1306840682070641CDBE7E7
:1003A000202086F84200002000E00220BDE8F6810F
:1003B00080B590F84230202B0DD1002903D01300D6
:1003C0009BB2002B01D1012006E00023036392B20F
:1003D00000F0BDFA00E0022002BD10B50400206864
:1003E0000C3050E8001F31F4F071206810F10C025D
:1003F00042E800100028F2D12068143050E8001FB5
:1004000049084900206810F1140242E80010002851
:10041000F2D1206B01280CD120680C3050E8001F6D
:1004200031F01001206810F10C0242E800100028A1
:10043000F2D120684069000620D52068143050E8C9
:10044000001F31F08001206810F1140242E8001012
:100450000028F2D1A06B002810D00020A16B086505
:10046000A06B00F021FF002808D0A06B01F082F8FB
:10047000202803D110206064032033E02068406905
:10048000400620D52068143050E8001F31F04001AC
:10049000206810F1140242E800100028F2D1E06B4D
:1004A000002810D00020E16B0865E06B00F0FCFE36
:1004B000002808D0E06B01F05DF8202803D110205F
:1004C000606403200EE00020E0840020E08500202E
:1004D0006064202084F84200202084F8410000203D
:1004E0002063002010BD38B5040020680168206832
:1004F000C268206843690020002011F00F00002826
:1005000007D18D0605D5950603D5200000F007FB21
:1005100047E1002879D0D80702D412F4907F74D034
:1005200011F00100C0B2002805D0D00503D5606CE1
:1005300050F001006064480708D513F00100C0B214
:10054000002803D0606C50F002006064880708D572
:1005500013F00100C0B2002803D0606C50F004001A
:10056000606408070AD5900604D413F00103DBB2D7
:10057000002B03D0606C50F008006064606C0028B1
:1005800042D0880604D5900602D5200000F0C7FAB4
:1005900020684069800910F00100616C090701D4EE
:1005A00000282CD0200000F043FA20684069400663
:1005B00021D52068143050E8001F31F04001206838
:1005C00010F1140242E800100028F2D1E06B00287C
:1005D0000DD00FF2BD40E16B0865E06B00F0B2FE9C
:1005E000002811D0E06BE16B096D88470CE020001A
:1005F00001F03CF808E0200001F038F804E02000A9
:1006000001F034F800206064CBE0206B012840F05A
:10061000B880C80640F1B580D00640F1B280002015
:100620000090206800680090206840680090009862
:1006300020684069400667D5E06B006841680800A3
:1006400080B2002850D00800A28D80B290424BD2D8
:10065000E185E06BC069B0F5807F3BD020680C304D
:1006600050E8001F31F48071206810F10C0242E85C
:1006700000100028F2D12068143050E8001F49080B
:100680004900206810F1140242E800100028F2D15D
:100690002068143050E8001F31F04001206810F14C
:1006A000140242E800100028F2D1202084F8420011
:1006B0000020206320680C3050E8001F31F010014A
:1006C000206810F10C0242E800100028F2D1E06B23
:1006D00000F0EAFD02206063A18DE08D091A89B265
:1006E000200000F0C4FF0EE0A08D89B281420AD143
:1006F000E06BC069B0F5807F05D102206063A18DF9
:10070000200000F0B4FF4CE0A08DE18D411AE08D97
:10071000002835D0080080B2002831D020680C3085
:1007200050E8002F32F49072206810F10C0343E877
:1007300000200028F2D12068143050E8002F520821
:100740005200206810F1140343E800200028F2D181
:10075000202084F842000020206320680C3050E8FC
:10076000002F32F01002206810F10C0343E8002043
:100770000028F2D10220606389B2200000F077FFE8
:100780000FE0080605D5100603D5200000F088F913
:1007900007E0480605D5500603D5200000F0B1F962
:1007A000FFE731BD01000020002091F8410091F8E1
:1007B00042100843C0B2704780B50100886B0968D9
:1007C0000968C9053BD40021C18501680C3151E895
:1007D000002F32F48072016811F10C0343E800210C
:1007E0000029F2D10168143151E8002F520852005B
:1007F000016811F1140343E800210029F2D10168D6
:10080000143151E8002F32F04002016811F1140355
:1008100043E800210029F2D1202180F84210016B29
:1008200001290CD101680C3151E8002F32F010027F
:10083000016811F10C0343E800210029F2D10021E5
:100840004163016B012903D1818D00F010FF01E0AC
:1008500000F00EFF01BD80B5806B01214163016B8B
:10086000012905D1818D490889B200F000FF01E01E
:1008700000F0FFFE01BD10B50021846B20684069C7
:10088000C00910F0010094F84110212906D1002878
:1008900004D00020E084200000F0B9F8206840690E
:1008A000800910F0010094F84210222906D1002896
:1008B00004D00020E085200000F0BAF8606C50F011
:1008C00010006064200000F0D1FE10BD2DE9FC4155
:1008D00005000E0090461F00089C28680068304004
:1008E000B04201D1012000E000204146C9B2884257
:1008F0002AD114F1010FF0D000F026FCC01B844275
:1009000001D3002C01D103201FE02868C0684007F4
:10091000E3D5802EE1D0402EDFD0286800680007A4
:10092000DBD50020009028680068009028684068A7
:1009300000900098280000F07BF8082068640020F0
:1009400085F84000012000E00020BDE8F68113B5E5
:10095000040013000198A062A38500206064222097
:1009600084F84200DFF88C05E16BC863DFF8880586
:10097000E16B0864DFF88405E16BC8640020E16B7B
:10098000086501A89BB202682068011DE06B00F0B9
:1009900051FC002806D010206064202084F842001A
:1009A000012033E00020009020680068009020685B
:1009B000406800900098206900280CD020680C3016
:1009C00050E8001F51F48071206810F10C0242E8D9
:1009D00000100028F2D12068143050E8001F51F0B8
:1009E0000101206810F1140242E800100028F2D141
:1009F0002068143050E8001F51F04001206810F1C9
:100A0000140242E800100028F2D1002016BD01684F
:100A10000C3151E8002F32F0C002016811F10C03D3
:100A200043E800210029F2D1202180F841107047CD
:100A300001680C3151E8002F32F49072016811F115
:100A40000C0343E800210029F2D10168143151E878
:100A5000002F52085200016811F1140343E80021ED
:100A60000029F2D1016B01290CD101680C3151E848
:100A7000002F32F01002016811F10C0343E800214D
:100A80000029F2D1202180F8421000210163704733
:100A900080B5806B0021C18500F0E8FD01BD00003C
:100AA00090F8411021292AD18168B1F5805F0CD1DD
:100AB0000169002909D1016A0988C905C90D0268BF
:100AC0005160016A891C016205E0016A4A1C0262E8
:100AD000097802685160C18C491EC18489B200291D
:100AE0000BD10168C96831F080010268D1600168EA
:100AF000C96851F040010068C160002000E0022098
:100B0000704780B50168C96831F040010268D16062
:100B1000202180F8411000F0ADFD002002BD80B51D
:100B20000021002190F8421022296DD18168B1F591
:100B3000805F0CD10169002909D1816A026852687D
:100B4000D205D20D0A80816A891C816216E0826A10
:100B50008168B1F5805F05D08168002906D10169FF
:100B6000002903D101684968117004E001684968EF
:100B700011F07F011170816A491C8162C18D491E8B
:100B8000C18589B200293DD10168C96831F02001D1
:100B90000268D1600168C96831F480710268D1606F
:100BA000016849694908490002685161202180F8BB
:100BB000421000214163016B01291FD10021016313
:100BC00001680C3151E8002F32F01002016811F178
:100BD0000C0343E800210029F2D101680968C90625
:100BE00008D50021009101680968009101684968F1
:100BF00000910099818D00F03AFD01E000F038FD90
:100C0000002002E0002000E0022002BD2DE9FE4F9E
:100C100005002868016931F44051E86801432868FB
:100C20000161A9682869014368690143E8690143D2
:100C30002868C268B248024011432868C160286829
:100C4000416931F44071A86901432868416128680D
:100C5000AC49884203D02868AB49884203D100F0F0
:100C6000D2FD040002E000F0C3FD0400E869B0F525
:100C7000004F40F09F805FF0640A022600275FF07B
:100C800019085FF0000922000023A8FB020108FBFD
:100C9000031109FB0211CDE9000168680021A6FBE0
:100CA000002306FB013307FB0033DDE9000100F000
:100CB0001DFE6421B0FBF1F0029022000023A8FB8E
:100CC000020108FB031109FB0211CDE9000168686C
:100CD0000021A6FB002306FB013307FB0033DDE9FF
:100CE000000100F003FE834622000023A8FB02015E
:100CF00008FB031109FB0211CDE90001686800211E
:100D0000A6FB002306FB013307FB0033DDE90001EE
:100D100000F0ECFD6421B0FBF1F00AFB10B0C00064
:100D200032306421B0FBF1F0400010F4F870029909
:100D300010EB0110029022000023A8FB020108FB27
:100D4000031109FB0211CDE9000168680021A6FB2F
:100D5000002306FB013307FB0033DDE9000100F04F
:100D6000C5FD83462000002102000B00A8FB020104
:100D700008FB031109FB02116A680023904699469B
:100D8000A6FB082306FB093307FB083300F0AEFD82
:100D90006421B0FBF1F00AFB10BA5FEACA003230FE
:100DA0006421B0FBF1F111F00701029809182868DD
:100DB00081609CE0042600275FF0640A5FF0190858
:100DC0005FF0000922000023A8FB020108FB0311C9
:100DD00009FB0211CDE9000168680021A6FB002390
:100DE00006FB013307FB0033DDE9000100F07EFD67
:100DF0006421B0FBF1F0029022000023A8FB020165
:100E000008FB031109FB0211CDE90001686800210C
:100E1000A6FB002306FB013307FB0033DDE90001DD
:100E200000F064FD834622000023A8FB020108FBBA
:100E3000031109FB0211CDE9000168680021A6FB3E
:100E4000002306FB013307FB0033DDE9000100F05E
:100E50004DFD6421B0FBF1F00AFB10B0000132300F
:100E60006421B0FBF1F010F0F000029910EB0110DA
:100E7000029022000023A8FB020108FB031109FBDA
:100E80000211CDE9000168680021A6FB002306FBE2
:100E9000013307FB0033DDE9000100F027FD834645
:100EA0002000002102000B00A8FB020108FB031137
:100EB00009FB02116A68002390469946A6FB0823A5
:100EC00006FB093307FB083300F010FD6421B0FB7B
:100ED000F1F00AFB10BA5FEA0A1032306421B0FB6D
:100EE000F1F111F00F010298091828688160BDE83E
:100EF000F78F0000B90700085708000877080008B6
:100F0000F369FFFF001001400014014080B58048E4
:100F1000804901605FF4E13141600021816000217E
:100F2000C160002101610C2141610021816100212A
:100F3000C161FFF73BF9002801D000F07FFE01BD41
:100F400080B57548754901605FF4E1314160002169
:100F500081600021C160002101610C2141610021FB
:100F600081610021C161FFF721F9002801D000F063
:100F700065FE01BD80B56A486A4901605FF4E131F0
:100F80004160002181600021C160002101610C21CC
:100F90004161002181610021C161FFF707F900284B
:100FA00001D000F04BFE01BD38B586B004006846A4
:100FB000142100F05BFE2068564988424FD1002082
:100FC00005905948016851F010010160006810F067
:100FD000100005900598002005905448016851F0D4
:100FE00001010160006810F00100059005984FF4C0
:100FF000C060009002200190002002900320039026
:101000000720049069464A4800F034FE494D4A489A
:1010100028605FF0006068600020A8600020E86041
:101020004FF480602861002068610020A8610020E2
:10103000E8610020286200206862280000F08AF839
:10104000002801D000F0FAFDE563AC630022002126
:10105000252000F097FF252000F0A5FF55E020682F
:101060002E49884227D1002005903448016851F468
:1010700080210160006810F4802005900598002010
:1010800005902A48016851F008010160006810F0DD
:101090000800059005984FF44070009002200190E0
:1010A0000020029003200390072004906946244802
:1010B00000F0E0FD29E020681A49884225D100208F
:1010C00005901948016851F020010160006810F096
:1010D000200005900598002005901448016851F003
:1010E00004010160006810F0040005900598C0201C
:1010F000009002200190002002900320039008201D
:10110000049069460F4800F0B5FD07B030BD0000FF
:10111000FC00002000100140440100200048004075
:101120008C01002000140140443802403038024055
:10113000000002400C0000204064024040380240A1
:10114000000C02400008024001480068704700BFE0
:101150002C02002038B504000020FFF7F5FF050041
:10116000002C01D1012064E0606A0028022084F88C
:101170003500002084F834002068006840084000F2
:101180002168086020680068C0070BD5FFF7DCFF06
:10119000401B0628F6D320206065032084F8350024
:1011A000032046E020680168DFF82C0401406268F3
:1011B000A0680243E0680243206902436069024379
:1011C000A0690243E0690243206A02431143606A56
:1011D000042803D1E26A206B0243114320680160B6
:1011E00020684569ED08ED00606A0543606A0428DF
:1011F00010D1A06A0543E06A00280BD0200000F05F
:10120000F1F9002806D040206065012084F83500FF
:1012100001200EE020684561200000F0C4F93F2263
:10122000E16D8A40826000206065012084F835000D
:10123000002032BD70B504000025A66D94F834007E
:10124000012801D102202EE0012084F8340094F816
:101250003500012821D1022084F835000020606586
:10126000200000F089F93F21E06D8140B1602068E5
:10127000006850F0160021680860206C002805D036
:101280002068006850F00800216808602068006845
:1012900050F001002168086003E0002084F8340069
:1012A00002252800C0B270BD70B50400A56DFFF71F
:1012B0004BFF060094F83500022806D080206065B8
:1012C000002084F8340001203BE02068006830F002
:1012D0001600216808602068406930F080002168AD
:1012E0004861206C002802D1A06C002805D020683D
:1012F000006830F008002168086020680068400835
:1013000040002168086020680068C0070ED5FFF71C
:101310001BFF801B0628F6D320206065032084F87D
:101320003500002084F8340003200AE03F21E06DFE
:101330008140A960012084F83500002084F8340041
:10134000002070BD90F83510022903D0802141653E
:10135000012009E0052180F8351001680968490875
:1013600049000068016000207047F8B504000020C3
:101370000090DFF8680200684FF41651B0FBF1F5F9
:10138000A66D37680821E06D11FA00F0074210D011
:101390002068006840070CD52068006830F0040021
:1013A00022681060E06D8140B160606D50F0010016
:1013B0006065E06D3900C140C8070BD52068406901
:1013C000000607D50121E06D8140B160606D50F0ED
:1013D000020060650421E06D11FA00F007420AD0B6
:1013E00020680068800706D5E06D8140B160606DBF
:1013F00050F0040060651021E06D11FA00F0074222
:101400002CD020680068000728D5E06D8140B160CD
:1014100020680068400311D520680068000306D4E6
:10142000206C00281AD02000216C884716E0A06CA0
:10143000002813D02000A16C88470FE020680068C6
:10144000C00505D42068006830F0080021680860F5
:10145000206C002802D02000216C88472021E06DFC
:1014600011FA00F007425FD020680068C0065BD523
:10147000E06D8140B16094F83500052828D12068DE
:10148000006830F01600216808602068406930F07C
:10149000800021684861206C002802D1A06C0028DF
:1014A00005D02068006830F00800216808603F21FE
:1014B000E06D8140B160012084F83500002084F89F
:1014C0003400206D002802D02000216D884750E0B4
:1014D00020680068400311D520680068000306D426
:1014E000606C002820D02000616C88471CE0E06B15
:1014F000002819D02000E16B884715E020680068BB
:10150000C0050BD42068006830F010002168086026
:10151000012084F83500002084F83400E06B0028B6
:1015200002D02000E16B8847606D002821D0606DFB
:10153000C00718D5052084F83500206800684008E9
:101540004000216808600098401C0090854204D348
:1015500020680068C007F6D4FFE7012084F8350052
:10156000002084F83400E06C002802D02000E16CF8
:101570008847F1BD406D704730B40468246834F486
:10158000802405682C60046863608368402B04D164
:1015900003689A600068C16003E0036899600068AE
:1015A000C26030BC7047017801F0FF011039182289
:1015B000B1FBF2F10A4A525CC265042905D3016805
:1015C000890A8902091D816503E00168890A890287
:1015D0008165806D704700003F8010F0040000209E
:1015E0003C3C000802000020936A9169002914D154
:1015F000002B05D0022B03D007D3032B0BD00BE01D
:10160000D16AC90100D501202EE0D16AB1F1C07FB5
:1016100000D1012028E027E026E09169B1F5005FC4
:1016200015D1002B05D0022B03D004D3032B07D0F8
:101630000CE0012018E0D16AC90100D5012013E0B7
:10164000D16AB1F1C07F00D101200DE00CE0002B88
:10165000022B02D9DB1E02D006E0012004E0D16A91
:10166000C90100D50120FFE7C0B27047704770473D
:1016700070477047704730B4002513E050F8042BD2
:10168000D30744BFA9F101039A18091F042942F89E
:10169000045BFAD213468C0744BF15809B1CC90714
:1016A00048BF1D7050F8041B0029E7D130BC7047BB
:1016B0002DE9F04104000E00002C01D1012092E040
:1016C000634D286810F00F00B04207D22E702868D2
:1016D00010F00F00B04201D0012084E02078800794
:1016E00016D52078400704D55A48016851F4E051D6
:1016F00001602078000704D55648016851F4604124
:10170000016054490A6832F0F002A06802430A609E
:101710002078C00735D56068012805D14E4800689B
:10172000800313D401205EE06068022802D0606864
:10173000032805D148480068800107D4012052E001
:1017400045480068800701D401204CE0414F3968CA
:1017500089088900606801433960FFF7F5FC80461D
:10176000386810F00C006168B0EB810F09D0FFF70A
:10177000EBFCB0EB080041F289318842F0D3032042
:1017800031E0286810F00F00864207D22E702868DA
:1017900010F00F00B04201D0012024E02078400773
:1017A00006D52C490A6832F4E052E06802430A6028
:1017B0002078000707D52748016831F46041226985
:1017C00051EAC201016000F051F82449214A12682F
:1017D000C2F30312895CC8402149086021480068AF
:1017E00000F0F0FB0020BDE8F0811D480068704764
:1017F00080B5FFF7FAFF1C49164A1268C2F382222D
:10180000895CC84002BD80B5FFF7EFFF1649114A59
:101810001268C2F34232895CC84002BD0F220260E6
:101820000C4A136813F003034360136813F0F003CA
:101830008360136813F4E053C3601268D20812F493
:10184000E05202610248006810F00F000860704723
:10185000003C02400838024000380240003C0008CA
:101860000400002000000020443C000810B50020C7
:101870000020002000201948006810F00C0000280B
:1018800004D0042804D0082804D025E0144824E01B
:10189000144822E0144C226812F03F0220684002F3
:1018A00009D52068C0F388100E49A1FB0001002370
:1018B00000F01CF808E02068C0F388100849A1FB7C
:1018C0000001002300F012F82168C1F30141491C16
:1018D0004900B0FBF1F000E0014810BD08380240BB
:1018E0000024F40040787D0104380240BBBBE1B124
:1018F000B2F5803F80F07E80022A1ED98C46B1FB73
:10190000F2F102FB11C31B0443EA1043B3FBF2FCE8
:1019100002FB1C3380B240EA0343B3FBF2F002FB4C
:10192000103240EA0C4000237047022A05D9844651
:10193000B0FBF2F002FB10C270474AB105D100F0D3
:10194000010249085FEA3000704700220023704717
:1019500000F08EBB0B000200002100207047904277
:1019600071EB030CF6D3B3F5803F2FD2F0B5B3FA89
:1019700083F7B1FA81F4A7F10F0E3D1B5340CEF16E
:10198000200602FA0EF2F3415340B5F10F0746D894
:101990000F3C2C444140C4F12006A040F14141409D
:1019A000B1FBF3F603FB1611A2FB0645001BA94190
:1019B00002D2761E8018594180EA010221FA0EF304
:1019C00062FA0EF200215A403046F0BD30B4B1FB4D
:1019D000F3FC03FB1C11A2FB0C45001BA94103D225
:1019E000ACF1010C8018594130BC02460B466046F0
:1019F00000217047B2F1807F65D3F0B5B2FA82F76B
:101A0000B1FA81F4C7F10F063D1B22FA06F307F184
:101A1000110EF24120355A40B5F10F07B8D94140B7
:101A2000C4F12006A040F1414140B1FBF3FC03FBAF
:101A30001C11A2FB0C45001BA94103D2BCF1010CF7
:101A4000801859410F2F12D30F3FC90341EA50416B
:101A5000B1FBF3F603FB1611A2FB0645D4EBC03035
:101A6000A94102D2761E8018594146EACC3C07B300
:101A70004140C7F12006B840F1414140B1FBF3F6C7
:101A800003FB1611A2FB0645001BA94102D2761EDC
:101A90008018594180EA010221FA0EF3C7F12004AF
:101AA00062FA0EF20CFA07F05A402CFA04F13043B5
:101AB000F0BD80EA010221FA0EF3002162FA0EF273
:101AC00060465A40F0BD8C46B1FBF2F102FB11C3F7
:101AD0001B0243EA1063B3FBF2FC02FB1C331B0244
:101AE0004CEA002043EA1063B3FBF2FC02FB1C3318
:101AF0001B024CEA002043EA1063B3FBF2FC02FB3A
:101B00001C331B024CEA002043EA1063B3FBF2FCD7
:101B100002FB1C324CEA00200023704780B500F025
:101B2000A9FA00F02CF800F0BFFA00F05DFBFFF717
:101B3000EDF9FFF71FFA00F06FFBFFF701FA6420E1
:101B400000F0DCFB00F091FC9FED400A00F022FD6C
:101B50003F49087000F02AFE3E4880ED000A14203C
:101B600000F0CCFB3C48006800F076FD00F092FCF1
:101B700000F056FF4FF47A7000F0C0FBEAE780B542
:101B800092B006A8302100F071F801A8142100F0ED
:101B90006DF8002000903148016851F080510160DB
:101BA000006810F0805000900098002000902C48B1
:101BB000016851F440410160006810F44040009019
:101BC0000098012006905FF48030079002200C906E
:101BD0005FF480000D900F200E90D8200F9002200F
:101BE00010900420119006A800F022FF002801D0D8
:101BF00000F024F801F0FEF8002801D000F01EF8F3
:101C00000F20019002200290002003904FF4A0507A
:101C100004904FF480500590052101A8FFF748FD7E
:101C2000002801D000F00AF813B000BD80B50068AC
:101C30000C49884201D101F01BF901BD80B572B693
:101C40004FF40051084800F01DF9F9E70000484240
:101C5000360200200C020020100200204038024012
:101C6000007000400044014000080240002201F0E2
:101C70000BB90000F8B4002200220022002337E054
:101C80000A2704E0DFF810229042F9D10927FFB2B9
:101C900013F00302D2B2920097403E431A0092081A
:101CA00045F82260DFF8F4512A68A2434E68F60234
:101CB00000D522432A60DFF8E8512A68A2434E6823
:101CC000B60200D522432A60DFF8D8512A68A24321
:101CD0004E68B60300D522432A60DFF8CC512A684B
:101CE000A2434E68F60301D5144322002A605B1C10
:101CF000102B80F0B280012515FA03F20C68144015
:101D00009442F4D10A7912F00302012A04D00A792C
:101D100012F00302022A16D1866803271A00D2B2F3
:101D200052009740BE43CF681A00D2B2520097408B
:101D30003E43866042689D40AA434D68C5F3001546
:101D40009D402A4342600A7912F00302032A0DD013
:101D5000C56803261A00D2B252009640B5438E6879
:101D60001A00D2B2520096403543C5600A7912F08B
:101D70000302022A17D11A00D20800EB8202156A68
:101D80000F2613F00702D2B292009640B5430E69B7
:101D900013F00702D2B29200964035431A00D208DF
:101DA00000EB82021562056803261A00D2B25200C7
:101DB0009640B5430E7916F003061A00D2B25200CF
:101DC0009640354305604A6812F4403F8FD00022A8
:101DD0000092364A156855F480451560126812F471
:101DE00080420092009A324D1A00920855F8226003
:101DF0000F2713F00302D2B292009740BE432D4A40
:101E0000904201D1002742E72B4A904201D101279D
:101E10003DE72A4A904201D1022738E7284A9042FA
:101E200001D1032733E7274A904201D104272EE747
:101E3000254A904201D1052729E7244A904201D141
:101E4000062724E7224A904201D107271FE7214AAB
:101E500090427FF417AF082719E7F1BC704700697B
:101E600089B2084201D0012000E00020C0B27047D2
:101E7000D2B2002A02D089B2816102E089B209049B
:101E80008161704742690B009BB2134089B2914354
:101E900051EA03418161704700240240083C01403F
:101EA0000C3C0140043C0140003C014044380240ED
:101EB00008380140000002400004024000080240CF
:101EC000000C0240001002400014024000180240C2
:101ED000001C02400020024010F00700DFF8D03064
:101EE0001A684FF6FF010A40DFF8C81051EA0021D6
:101EF0000A431A6070472E480068C0F302207047FA
:101F0000010049B2002908D4012210F01F018A40C3
:101F1000294940B2400941F820207047020052B2DE
:101F2000002A04D40901254A40B2115407E00901EE
:101F3000234A40B210F00F00104400F8041C704710
:101F400010B410F00700D0F10703052B01D30423D0
:101F500001E0D0F10703041D072C01D2002000E0AE
:101F6000C01E012414FA03F35B1E1940814014FAC9
:101F700000F0401E1040084310BC704780B5FFF7CA
:101F8000ABFF01BD70B504000D0016000020FFF787
:101F9000B2FF32002900FFF7D3FF0100200040B25A
:101FA000FFF7BCFF70BD80B540B2FFF7A9FF01BDD0
:101FB0000CED00E00000FA0500E100E000E400E0C4
:101FC00018ED00E078B587B0040000200020002064
:101FD00000902248016851F400310160006810F45B
:101FE00000300090009801A902A8FFF717FCFFF746
:101FF0000AFC40001A49B0FBF1F0401E194D1A4985
:10200000296040F2E731E960686000202861002023
:10201000A8600020A861280000F050FF06003000F2
:10202000C0B2002815D1280000F07FFF0600300064
:10203000C0B200280DD11920FFF7B5FF102C07D230
:10204000002221001920FFF79DFF0848046000E0EE
:1020500001263000C0B208B070BD00004438024014
:1020600040420F00B4000020004401400000002066
:102070007047000080B50B48016851F400710160A1
:10208000016851F480610160016851F48071016060
:102090000320FFF773FF0F20FFF794FF01F0BAF85A
:1020A000002002BD003C024070B586B06846142195
:1020B000FFF7DCFD002005904748016851F0100152
:1020C0000160016811F01001059105990021059149
:1020D000016851F004010160016811F004010591EB
:1020E000059900210591016851F0800101600168A6
:1020F00011F080010591059900210591016851F0C9
:1021000001010160016811F00101059105990021AB
:102110000591016851F002010160016811F00201AE
:102120000591059900210591016851F008010160B0
:10213000006810F0080005900598284E0022402104
:102140003000FFF795FE264C00224FF4005120008E
:10215000FFF78EFE234D01224FF47C612800FFF72C
:1021600087FE012203213000FFF782FE432000900A
:102170000120019000200290002003906946300069
:10218000FFF778FD4FF400500090012001900020EF
:1021900002900020039069462000FFF76BFD4FF48A
:1021A00040600090112001900020029000200390D8
:1021B00069462800FFF75EFD4FF470700090012023
:1021C0000190002002900020039069462800FFF74C
:1021D00051FD06B070BD00BF303802400010024013
:1021E000000802400004024080B500200090094829
:1021F000016851F480010160006810F480000090D3
:102200000098002200213A20FFF7BCFE3A20FFF799
:10221000CAFE01BD303802401FB568461021FFF7E5
:1022200025FD304C304820605FF480306060002035
:10223000A0600020206100202076002084F820008B
:102240000020E0622948A0620020E0600120E061F7
:10225000002084F8300001206061200000F0FAFFC7
:10226000002801D0FFF7EAFC012000900120019036
:10227000002002906946200001F011F9002801D0E9
:10228000FFF7DCFC1FBD10B586B0040001A81421C7
:10229000FFF7ECFC20681449884221D1002000900F
:1022A0001348016851F480710160006810F4807077
:1022B00000900098002000900E48016851F0010144
:1022C0000160006810F00100009000982320019048
:1022D000032002900020039001A90748FFF7CAFCE1
:1022E00006B010BD6C000020002001400100000F6E
:1022F00044380240303802400000024038B5040043
:10230000FEF722FF050014F1010F02D00448007807
:102310002418FEF719FF401BA042FAD331BD00BFBD
:102320000800002080B501F072FA01BD80B501F00F
:1023300088FA01BD80B5882001F0E1FAC0B202BD83
:1023400080B5892001F0DBFAC0B202BD10B50400EF
:10235000200080B2000AC0B201F0D1FAC0B2002859
:1023600001D0012004E02000C0B201F0C8FAC0B2E0
:1023700010BD10B5FFF7D6FFFFF7DCFF040020000B
:10238000C0B2002804D143F2A200FFF7DFFF04002F
:10239000FFF7CCFF2000C0B210BD3EB5FFF7C2FF73
:1023A000FFF7C8FF04002000C0B2002804D143F2A8
:1023B0008260FFF7CBFF04002000C0B2002808D1E4
:1023C0004FF47A7001F0F4F9FFF7ACFFFFF7B8FFB4
:1023D00004002000C0B200281AD16D46002001F090
:1023E000B9FA6871002001F0B5FA2871002001F0F7
:1023F000B1FA8DF80300002001F0ACFAA8700020BB
:1024000001F0A8FA6870012001F0A4FA8DF800002C
:10241000FFF78CFF2000C0B2002814D15A4968464B
:102420000A68437952EA03620A600A68037952EA49
:1024300003420A600A68837852EA03220A600A6843
:10244000407802430A602000C0B23EBD80B5FFF76D
:1024500069FFFFF76FFF0100C9B2002903D142F203
:102460003010FFF773FFC0B202BD10B5FFF781FF58
:1024700004001420FFF742FF2000C0B2002802D160
:10248000FFF78BFF0400E4B2002C01D1FFF7DEFF61
:1024900010BD0000FEB500240025FFF743FFFFF745
:1024A00049FF06003000C0B2002804D14FF460405C
:1024B000FFF74CFF06003000C0B2002804D1FFF740
:1024C00031FFFFF73DFF06003000C0B200281AD1EF
:1024D0006F46002001F03EFA7871002001F03AFAD0
:1024E0003871002001F036FA8DF80300002001F069
:1024F00031FAB870002001F02DFA7870012001F057
:1025000029FA8DF80000FFF711FF3000C0B2002853
:102510002ED16946487954EA002408790443887822
:1025200055EA002548780543A4B200EE104AB8EEFB
:10253000400ADFED110A20EE200ADFED100A80EEDE
:10254000200ADFED0F0A30EE200A104880ED000A65
:10255000ADB200EE105AB8EE400ADFED0A0A20EEE6
:10256000200ADFED060A80EE200A094880ED000A05
:102570003000C0B2FEBD000000002F4300FF7F47C7
:10258000000034C20000C8422002002024020020C3
:102590002802002070B5F1EE000AB4EE600AF1EEF8
:1025A00010FA06D4DFED570AB4EE600AF1EE10FA25
:1025B00001DB01204EE0DFED540A20EE200ABDEEE3
:1025C000C00A10EE100A514C0221217006216170E0
:1025D0000021A1700021E170010089B2090A217176
:1025E00060710621200000F09DF8A07180B2000A01
:1025F000E071474E4FF4FA73082221003000FDF7D6
:1026000012FE002801D0012024E0424D4FF4FA735D
:10261000082229003000FDF766FE002801D00120C5
:1026200018E02878022814D16878062811D1A878F3
:10263000A17888420DD1E878E178884209D12879DB
:102640002179884205D168796179884201D10020D9
:1026500000E0012070BD0000F8B504002E4D0220FE
:102660002870042068700020A8700020E870002006
:102670002871012068710621280000F053F8A87124
:1026800080B2000AE87107210022244E370038008A
:1026900001F098F91E4F4FF4FA7308222900380010
:1026A000FDF7C1FD002801D001202AE00120FFF73D
:1026B00025FE4FF4FA73072231003800FDF713FEB0
:1026C000002801D001201CE03078022805D1707864
:1026D000042802D1B078022801D0012011E010486E
:1026E000F178327952EA01220280008800EE100A65
:1026F000B8EE400ADFED040A80EE200A84ED000AFD
:102700000020F2BD010048430000C842EC01002057
:10271000FC000020F4010020FC0100200402002045
:102720003402002030B402004FF6FF70002400E0B5
:10273000641C2300DBB20D009BB2ADB2AB4215D2DC
:102740002300DBB2D35C584000231D00EDB2082DFE
:10275000EEDAC50702D480B2400805E080B2050079
:102760004AF2010090EA55005B1CEEE780B230BCF3
:10277000704738B50400082100222500280001F028
:1027800021F901202070042060700020A07000203A
:10279000E070002020710120607106212000FFF709
:1027A000C1FFA07180B2000AE07131BD70B52DED9E
:1027B000028BBFEE008A374D2800FFF7DAFF364C58
:1027C0004FF47A73082229002000FDF72CFD002821
:1027D00002D0B0EE480A57E0072100222F4D2E000C
:1027E000300001F0EFF8072229002000FDF7E0FD9E
:1027F000002802D0B0EE480A46E0FEF7A5FC06002D
:1028000016F57A762000FDF7CDFF222809D1FEF7D4
:102810009BFC8642F6D22000FDF7DFFDB0EE480AB1
:1028200032E007221E4C26002900300001F0FEF89D
:102830002078012805D16078042802D1A0780228E8
:1028400002D0B0EE480A1FE005212000FFF76AFF22
:10285000A279617951EA022180B289B2884202D01C
:10286000B0EE480A10E00F49E2784FF48073207907
:1028700003FB02020A80088800EE100AB8EE400A44
:10288000DFED030A80EE200ABDEC028B70BD000074
:102890000000C842D4010020FC000020E401002018
:1028A000DC0100203002002038B584B00400684606
:1028B0001021FFF7DBF90094012001900420029021
:1028C000524C6946200000F0EAFD002801D0FFF7D5
:1028D000B5F9200000F0F0FC002801D0FFF7AEF9B8
:1028E0000A21200000F07FFD002806D1484D20007D
:1028F00000F0D2FD2880288800E0002005B030BD1F
:1029000070B504000025002605E02000FFF7CCFF8D
:1029100015FA80F5761C0A2EF7DB00EE105AB8EE99
:10292000400AF2EE040A80EE200A70BD80B5002055
:10293000FFF7E6FFDFED300A20EE200ADFED2F0A79
:1029400080EE200ADFED2E0A20EE200A3148F7EE55
:10295000000A20EE200A80ED000A90ED000A01BD79
:1029600080B50120FFF7CCFFDFED230A20EE200A1F
:10297000DFED220A80EE200ADFED210A20EE200A98
:10298000F2EE040A80EE200AF0EE000ABFEE001A12
:1029900000EE201A204880ED001A9FED1A0A01BDB2
:1029A00080B50520FFF7ACFFDFED130A20EE200A0B
:1029B000DFED120A80EE200ADFED110A20EE200A78
:1029C0001648F2EE040A80EE200ADFED0F0AB0EEA0
:1029D000001A00EE201A80ED001A90ED000AF0EEC9
:1029E000000AB4EE600AF1EE10FA02D55FF0804101
:1029F000016090ED000A01BD333353400000804573
:102A000085EB414000000000000046436C000020C0
:102A10003202002014020020180200201C020020B4
:102A200080B5FFF783FFFFF79BFFFFF7B9FF01BDFD
:102A30002DE9FC410400002C01D10120C4E12078E3
:102A4000C0075FD5DFF88403016811F00C01042989
:102A500009D0006810F00C0008280ED1DFF87003D0
:102A60000068400209D5DFF86C030068800349D58F
:102A70006068002846D10120A6E16068B0F5803F7B
:102A800006D1DFF85003016851F48031016018E08D
:102A90006068B0F5A02F0AD1DFF83803016851F45F
:102AA00080210160016851F48031016009E0DFF8A4
:102AB0002403016831F480310160016831F4802120
:102AC0000160606800280ED0FEF73EFB0500DFF8CD
:102AD00004030068800315D4FEF736FB401B65280D
:102AE000F5D3032070E1FEF72FFB0500DFF8E402C9
:102AF0000068800306D5FEF727FB401B6528F5D349
:102B0000032061E1207880071DD5B048016811F0ED
:102B10000C0F08D0006810F00C0008282AD1AC482F
:102B20000068400226D4AB480168890704D5E168F3
:102B3000012901D0012047E1016831F0F801226943
:102B400051EAC20101602078000751D56069002870
:102B50003DD00120A0490860FEF7F6FA05009F4825
:102B60000068800744D4FEF7EFFA401B0328F6D331
:102B7000032029E1E068002818D001209849086066
:102B8000FEF7E2FA050093480168890706D4FEF7CC
:102B9000DBFA401B0328F6D3032015E1016831F06E
:102BA000F801226951EAC2010160CCE700208C499A
:102BB0000860FEF7C9FA0500864800688007C2D59C
:102BC000FEF7C2FA401B0328F6D30320FCE00020E6
:102BD00081490860FEF7B8FA050080480068800760
:102BE00006D5FEF7B1FA401B0328F6D30320EBE02D
:102BF000207840076FD500267A4D2868C0000BD496
:102C000000200090286850F080502860286810F05C
:102C10008050009000980126734F3868C00511D489
:102C2000386850F480703860FEF78EFA8046386855
:102C3000C00507D4FEF788FAB0EB08000328F6D3E6
:102C40000320C1E0A068012805D16848016851F05F
:102C50000101016015E0A068052809D163480168F9
:102C600051F004010160016851F00101016008E0C8
:102C70005E480168490849000160016831F00401BB
:102C80000160A06800280FD0FEF75EFA07005748E1
:102C90000068800718D4FEF757FAC01B41F289314B
:102CA0008842F4D303208FE0FEF74EFA07004F4826
:102CB0000068800708D5FEF747FAC01B41F289314A
:102CC0008842F4D303207FE0F6B2012E03D12868B6
:102CD00030F080502860A069002874D03B4800681C
:102CE00010F00C00082843D0A06902282FD1404ED4
:102CF00000203060FEF728FA0700364D2868800172
:102D000006D5FEF721FAC01B0328F6D303205BE0AB
:102D1000E169206A0143606A51EA8011A06A4008B3
:102D2000401E51EA0041E06A51EA00612848016012
:102D300001203060FEF708FA04002868800142D4C0
:102D4000FEF702FA001B0328F7D303203CE0002023
:102D500027490860FEF7F8F904001E480068800162
:102D600031D5FEF7F1F9001B0328F6D303202BE041
:102D7000A069012801D1012026E015480068A16959
:102D800001291ED010F48001E269914219D110F09E
:102D90003F01226A914214D147F6C0710140626A34
:102DA000B1EB821F0DD110F44031A26A5208521EBD
:102DB000B1EB024F05D110F07060E16AB0EB016F2A
:102DC00001D0012000E00020BDE8F6810838024073
:102DD0000438024000380240800E474274380240F6
:102DE0000000474240380240007000407038024006
:102DF0006000474238B50020002000901948016863
:102E000051F080510160006810F0805000900098EF
:102E1000012015490860FEF797F90500104C20685D
:102E2000C00308D4FEF790F9401B40F2E931884214
:102E3000F4D3032012E001200C490860FEF784F966
:102E400005002068800308D4FEF77EF9401B40F29D
:102E5000E9318842F5D3032000E0002032BD0000B4
:102E6000047000404038024040000E4244000E42D0
:102E700003480168034A127889180160704700BF4F
:102E80002C0200200800002000B500BF1300964669
:102E90009446103928BFA0E80C50FAD85FEA417C6C
:102EA00028BF0CC048BF40F8042BC90728BF20F832
:102EB000022B48BF00F8012B00BD000010B5040034
:102EC000002C01D101202FE094F83D00002805D10D
:102ED000002084F83C00200000F09AF9022084F8D9
:102EE0003D00211D206800F018F9012084F84600FB
:102EF000012084F83E00012084F83F00012084F87E
:102F00004000012084F84100012084F842000120A3
:102F100084F84300012084F84400012084F845002F
:102F2000012084F83D00002010BD90F83D100129DB
:102F300001D0012043E0022180F83D100168C968FA
:102F400051F001010268D1600168DFF874209142FC
:102F500021D00168B1F1804F1DD00168DFF86420F5
:102F6000914218D00168DFF86020914213D00168C7
:102F7000DFF8582091420ED00168DFF854209142CA
:102F800009D00168DFF84C20914204D00168DFF8D5
:102F9000482091420CD10168896811F00701062987
:102FA0000CD00168096851F001010068016005E07A
:102FB0000168096851F00101006801600020704754
:102FC000000001400004004000080040000C0040E8
:102FD00000040140004001400018004070B50400AA
:102FE0002068C56820680669B00718D5A80716D5F7
:102FF0007FF0020021680861012020772068806945
:1030000010F0030F03D0200000F063FD05E0200066
:1030100000F060FD200000F05EFD002020777007CA
:1030200018D5680716D57FF00400216808610220D2
:1030300020772068806910F4407F03D0200000F0E2
:1030400048FD05E0200000F045FD200000F043FDB4
:1030500000202077300718D5280716D57FF0080004
:1030600021680861042020772068C06910F0030FF0
:1030700003D0200000F02DFD05E0200000F02AFD27
:10308000200000F028FD00202077F00618D5E80683
:1030900016D57FF01000216808610820207720688D
:1030A000C06910F4407F03D0200000F012FD05E05D
:1030B000200000F00FFD200000F00DFD0020207723
:1030C000F00708D5E80706D57FF001002168086100
:1030D0002000FEF7ABFD300608D5280606D57FF0A8
:1030E000800021680861200000F0F6FC700608D519
:1030F000680606D57FF0400021680861200000F0D6
:10310000ECFCB00608D5A80606D57FF020002168A3
:103110000861200000F0E2FC70BD10B40468DFF824
:10312000C430984212D0B0F1804F0FD0DFF8B820F1
:1031300090420BD0DFF8B420904207D0DFF8B020E7
:10314000904203D0DFF8AC20904203D134F07004F9
:103150004A681443984228D0B0F1804F25D0DFF858
:103160008820904221D0DFF8842090421DD0DFF8E3
:103170008020904219D0DFF87C20904215D0DFF8F3
:103180007820904211D0DFF8742090420DD0DFF803
:103190007020904209D0DFF86C20904205D01A4A86
:1031A000904202D0194A904203D134F44074CA6864
:1031B000144334F080044A6914438A68C2620A687E
:1031C0008262984202D00B4A904201D109690163A0
:1031D000016851F00401016001214161046010BCEB
:1031E000704700000000014000040040000800405B
:1031F000000C004000040140004001400044014038
:103200000048014000180040001C00400020004021
:103210007047000081B0002000900C48016851F414
:1032200080410160006810F4804000900098002008
:1032300000900748016851F080510160006810F06B
:1032400080500090009801B0704700BF44380240A1
:103250004038024038B504000025002C01D101207F
:1032600029E0A06ADFF820158842206C002807D1E9
:103270002000FFF708F800206064002084F83C007C
:10328000206CC00611D4206C30F4885050F002003D
:103290002064200000F0CAF900206064206C30F047
:1032A000020050F00100206400E00125002084F8B5
:1032B0003C002800C0B232BD81B00021009190F8DE
:1032C0003C10012901D102208BE0012180F83C1043
:1032D00001688968C90716D40168896851F001013D
:1032E00002689160DFF8A4140968DFF8A424B1FB38
:1032F000F2F203214A43009202E00099491E009134
:1033000000990029F9D101688968C90760D5026C64
:10331000DFF880140A4052F4807202640168496840
:10332000490505D5016C31F4005151F48051016417
:10333000016CC90404D5416C31F00601416401E01F
:1033400000214164002180F83C10DFF84C147FF02C
:10335000220203681A60496811F01F0F27D1016823
:10336000DFF83824914216D00168DFF83424914206
:1033700005D1DFF83014096811F01F0F0BD0016878
:10338000DFF8242491422BD1DFF81814096811F0DA
:103390001F01102924D20168896811F0405F1FD1F4
:1033A0000168896851F080410068816018E0016817
:1033B000DFF8E823914213D10168896811F0405F7A
:1033C0000ED10168896851F080410068816007E092
:1033D000016C51F010010164416C51F00101416434
:1033E000002001B0704770B505000C00002028686F
:1033F000806840050CD528688068C00508D5286C11
:1034000050F020002864002085F83C00012042E0B4
:10341000FDF79AFE060028680068800716D414F1AC
:10342000010FF8D0002C04D0FDF78EFE801B8442E3
:10343000F1D2286800688007EDD4286C50F00400B1
:103440002864002085F83C00032024E07FF012006F
:1034500029680860286C50F4007028642868806827
:1034600010F0405F16D1287E002813D12868C06A6A
:1034700010F4700F03D02868806840050AD4286CC7
:1034800030F480702864286CC00403D4286C50F099
:1034900001002864002070BD0068C06C704738B41B
:1034A00002000020009092F83C00012801D1022087
:1034B000BAE0012082F83C0008680A2818D3106896
:1034C000C368072408680A38032510FB05F0844008
:1034D000A3431068C3601068C3688C6808680A3822
:1034E000032510FB05F0844023431068C36013E0FC
:1034F0001068036907240D6803204543AC40A343CB
:1035000010680361106803698C680D6803204543E7
:10351000AC402343106803614868072818D210683C
:10352000436B1F244868401E052510FB05F08440AE
:10353000A343106843631068436B0C884868401EBF
:10354000052510FB05F0844023431068436333E0F6
:1035500048680D2818D21068036B1F244868C01FE4
:10356000052510FB05F08440A34310680363106831
:10357000036B0C884868C01F052510FB05F08440CC
:1035800023431068036317E01068C36A1F24486868
:103590000D38052510FB05F08440A3431068C36275
:1035A0001068C36A0C8848680D38052510FB05F0C3
:1035B000844023431068C3627748784B14689C4268
:1035C0000AD10C68122C07D1446834F4000444601A
:1035D000446854F48004446014689C4220D1734BC6
:1035E0000C689C4202D00C68112C19D1446834F448
:1035F00080044460446854F40004446008689842BD
:103600000ED1624800686249B0FBF1F10A204143E3
:10361000009102E00098401E009000980028F9D127
:10362000002082F83C00002032BC70475A4A5168A2
:1036300031F440315160536841680B435360016875
:10364000496831F480710268516001684968026913
:1036500051EA0221026851600168496831F0407105
:103660000268516001684A6881680A4301684A60DB
:103670000168896831F400610268916001688A68B4
:10368000C1680A4301688A60816A3F4A914218D042
:103690000168896831F070610268916001688A6828
:1036A000816A0A4301688A600168896831F0405183
:1036B0000268916001688A68C16A0A4301688A6089
:1036C0000BE00168896831F07061026891600168FF
:1036D000896831F04051026891600168896831F071
:1036E00002010268916001688968027E51EA420124
:1036F0000268916090F82010002914D00168496890
:1037000051F40061026851600168496831F4604118
:103710000268516001684968426A521E51EA4231AA
:103720000268516005E00168496831F4006102688F
:1037300051600168C96A31F470010268D1620168A0
:10374000C96AC269521E51EA02510268D162016817
:10375000896831F40071026891600168896890F8A5
:10376000302051EA4221026891600168896831F491
:1037700080610268916001688968426951EA82212A
:1037800000688160704700000100000F0400002005
:1037900040420F00FEF9FFFF0023014000200140DE
:1037A00000210140042301400022014012000010CA
:1037B0000100481E002905D000211E29F8DA00BFAB
:1037C000491CFAE7704780B5C0B2002806D0012234
:1037D0004FF480617A48FEF74BFB05E000224FF47E
:1037E00080617748FEF744FB01BD80B5C0B2002878
:1037F00006D001224FF400617148FEF739FB05E065
:1038000000224FF400616E48FEF732FB01BD80B527
:103810000120FFF7EAFF0220FFF7CAFF0120FFF7B0
:10382000D2FF0520FFF7C4FF0020FFF7DEFF0520D1
:10383000FFF7BEFF0020FFF7C6FF0320FFF7B8FF2A
:1038400001BD80B50020FFF7D0FF0220FFF7B0FFD9
:103850000020FFF7B8FF0220FFF7AAFF0120FFF7C3
:10386000B2FF0520FFF7A4FF0120FFF7BEFF0520F0
:10387000FFF79EFF01BD10B50220FFF799FF012061
:10388000FFF7B3FF4E4C4FF400612000FEF7E7FA5C
:103890000120FFF798FF0220FFF78AFF4FF4006135
:1038A0002000FEF7DCFA04000120FFF781FF002072
:1038B000FFF789FF0220FFF77BFFE4B2002C01D164
:1038C000002000E0012010BD80B5C0B2002803D167
:1038D0000020FFF78AFF02E00120FFF786FF0220A9
:1038E000FFF766FF0120FFF76EFF0A20FFF760FF7A
:1038F0000020FFF768FF0A20FFF75AFF01BD38B527
:1039000004000220FFF754FF80251BE00120FFF791
:103910006CFF09E00220FFF74BFF2800C0B22042F5
:10392000F4D10020FFF761FF0220FFF741FF0120E3
:10393000FFF749FF0220FFF73BFF0020FFF743FF9F
:10394000EDB26D082800C0B20028E3D1FFF793FF65
:10395000C0B232BDF8B504000120FFF729FF0120F5
:10396000FFF743FF164F4FF400613800FEF777FA78
:103970000120FFF71DFF802516E00120FFF723FF40
:103980000220FFF715FF4FF400613800FEF767FAD9
:10399000C0B2002800D02E430020FFF714FF022001
:1039A000FFF706FFEDB26D082800C0B20028E4D191
:1039B0002000C0B2FFF788FF3000C0B2F2BD0000A7
:1039C0000004024062F30F2262F31F42401810F01D
:1039D000030308D0C91A1FD3DB0748BF00F8012D25
:1039E00028BF20F8022D130030B4144615461039B4
:1039F00028BF20E93C00FAD8490728BF20E90C007D
:103A000048BF40F8042D890028BF20F8022D48BF88
:103A100000F8012D30BC7047C91818BF00F8012DFF
:103A2000CB0728BF00F8012D7047000062B38B0759
:103A300008D0521E11F8013B00F8013B00F0248031
:103A40008B07F6D1830740F0208000BF103A07D3E0
:103A500030B4B1E83810103AA0E83810F9D230BCD0
:103A6000530724BFB1E80810A0E8081044BF51F87C
:103A7000043B40F8043BD20724BF31F8022B20F866
:103A8000022B44BF0B7803707047121F17D35B00E3
:103A900009D151F8043B20F8023B1B0C121F20F8FF
:103AA000023BF6D20BE051F8043B00F8013B1B0A45
:103AB00020F8023B1B0C121F00F8013BF3D238BF69
:103AC000121D521E24BF11F8013B00F8013BF8D82B
:103AD00070477047704770477047704770470000E5
:103AE000FEE7FEE7FEE7FEE7FEE770477047704738
:103AF000704780B50648FFF771FA01BD80B50548EB
:103B0000FCF7F1FC01BD80B50348FDF72EFC01BDBB
:103B1000B4000020FC0000200C00002030B450F85D
:103B2000041B79B10268436802440830DC0744BFD3
:103B3000A9F10104E31852F8045B43F8045B091F80
:103B4000F9D1ECE730BC704710B50749794418311A
:103B5000064C7C44163404E00A68081D114488476A
:103B60000146A142F8D110BD2C0000004C0000001D
:103B70004EF68851CEF20001086840F470000860EB
:103B8000BFF34F8FBFF36F8F4FF00070E1EE100A5D
:103B900070470000E3DAFFFF2C0200000C00002059
:103BA0000000000079FFFFFF0C000000F40100009E
:103BB000000000200000000000F00DF8002801D0F7
:103BC000FFF7C2FFAFF300800020AFF30080FDF7E6
:103BD000A5FF00F002F80120704700F001B80000D6
:103BE0000746384600F002F8FBE7000080B5AFF367
:103BF0000080024A11001820ABBEFBE7260002003D
:103C0000000000000000000001020304060708098C
:103C10000148804701480047213C0008313C00082A
:103C20000248016851F470010160704788ED00E0BE
:103C3000AFF30080FFF79CFFFFF7BEFF00061016F2
:103C4000000610160000000001020304FFF7FEBF8B
:103C5000FFF7FEBFFFF7FEBFFFF7FEBFFFF7FEBF98
:103C6000FFF7FEBFFFF7FEBFFFF7FEBFFFF7FEBF88
:103C7000FFF7FEBFFFF7FEBFFFF7FEBFFFF7FEBF78
:103C8000FFF7FEBFFFF7FEBFFFF7FEBFFFF7FEBF68
:103C9000FFF7FEBFFFF7FEBFFFF7FEBFFFF7FEBF58
:103CA000FFF7FEBFFFF7FEBFFFF7FEBFFFF7FEBF48
:103CB000FFF7FEBFFFF7FEBFFFF7FEBFFFF7FEBF38
:103CC000FFF7FEBFFFF7FEBFFFF7FEBFFFF7FEBF28
:103CD000FFF7FEBFFFF7FEBFFFF7FEBFFFF7FEBF18
:103CE000FFF7FEBFFFF7FEBFFFF7FEBFFFF7FEBF08
:103CF000FFF7FEBFFFF7FEBFFFF7FEBFFFF7FEBFF8
:103D0000FFF7FEBFFFF7FEBFFFF7FEBFFFF7FEBFE7
:103D1000FFF7FEBFFFF7FEBFFFF7FEBFFFF7FEBFD7
:103D2000FFF7FEBFFFF7FEBFFFF7FEBFFFF7FEBFC7
:103D3000FFF7FEBFFFF7FEBFFFF7FEBFFFF7FEBFB7
:103D4000FFF7FEBFFFF7FEBFFFF7FEBFFFF7FEBFA7
:103D5000FFF7FEBFFFF7FEBFFFF7FEBFFFF7FEBF97
:103D6000FFF7FEBFFFF7FEBFFFF7FEBFFFF7FEBF87
:103D7000FFF7FEBFFFF7FEBFFFF7FEBFFFF7FEBF77
:103D8000FFF7FEBFFFF7FEBFFFF7FEBFFFF7FEBF67
:103D9000FFF7FEBFFFF7FEBFFFF7FEBFFFF7FEBF57
:0C3DA000100000000024F40001000000EE
:0400000508003C3182
:00000001FF
