:020000040800F2
:1000000088520020DDB70008E9B10008EBB1000814
:10001000EDB10008EFB10008F1B1000800000000E8
:1000200000000000000000000000000051A80008CF
:10003000F3B1000800000000F9A70008D989000802
:10004000E1B90008E5B90008E9B90008EDB9000810
:10005000F1B90008F5B90008F9B90008FDB90008C0
:1000600001BA000805BA000809BA00080DBA00086C
:1000700011BA000815BA000819BA00081DBA00081C
:1000800021BA000825BA000829BA00082DBA0008CC
:1000900031BA000835BA000839BA00083DBA00087C
:1000A00041BA0008F5B1000845BA000849BA00088D
:1000B0004DBA000851BA000855BA000859BA0008EC
:1000C0005DBA000861BA000865BA000869BA00089C
:1000D0006DBA0008FFB1000871BA000809B2000843
:1000E00075BA000879BA00087DBA000881BA00081C
:1000F00085BA000889BA00088DBA000891BA0008CC
:1001000095BA000899BA00089DBA0008A1BA00087B
:10011000A5BA0008A9BA0008ADBA0008B1BA00082B
:10012000B5BA0008B9BA000813B20008BDBA000891
:10013000C1BA0008C5BA0008C9BA0008CDBA00089B
:10014000D1BA0008D5BA0008D9BA0008DDBA00084B
:10015000E1BA0008E5BA0008E9BA0008EDBA0008FB
:10016000F1BA0008F5BA0008F9BA0008FDBA0008AB
:1001700001BB000805BB000809BB00080000000027
:100180000DBB000811BB000815BB000819BB000817
:100190001DBB000821BB000825BB000829BB0008C7
:1001A00000000000000000002DBB000838B504006E
:1001B000002C12D04FF4D67100222500280001F047
:1001C000D9F8012084F89801012084F89901DFF81A
:1001D000140C0460200000F0C0F831BD80B5DFF8D9
:1001E000243398420BD1DFF8FC1B0868002806D0A6
:1001F0000122086810F5D471180001F00DFA01BD54
:100200001CB50400002C05D113E09DF8001020005F
:1002100000F010F86946200001F02DF80028F4D114
:10022000200000F08BFD01F0D9FF0100200000F05C
:10023000EDFD13BD10B50400002C2DD00800C0B298
:100240000D2803D1012084F8820025E00800C0B207
:100250000A280AD194F88200002802D0200000F079
:10026000E7FF002084F8820016E0002084F8820076
:10027000B4F880007F2808DB0020A4F88000DFF8B5
:10028000681B200000F072FE06E0B4F88000421CFB
:10029000A4F8802080B2215410BD70B5C4B0040011
:1002A000002C20D0DFF8886A96F88B00002801D156
:1002B00093A501E0DFF87C5A307802F034F80300AF
:1002C000DFF8740A039070690290706801900095DD
:1002D000DFF8182B4FF4807104A802F04DFC04A93C
:1002E000200000F01DFE44B070BD38B5CEB0040053
:1002F000002C30D0DFF8385AD5F8800002F05EFCD0
:10030000CDE90C01E86F02F059FCCDE90A01A86FB4
:1003100002F054FCCDE90801686F02F04FFCCDE912
:100320000601286F02F04AFCCDE90401E86E02F0F4
:1003300045FCCDE90201A86E02F040FCCDE90001C8
:10034000DFF8182C4FF480710EA802F015FC0EA9EE
:10035000200000F0E5FD4FB030BD80B5002805D08D
:10036000012210F5D471674801F056F901BD10B5AE
:10037000DFF8704A206800280CD0206890F8A81197
:10038000206800F098FF0122206810F5D4715D48C4
:1003900001F042F910BD80B55A49884201D1FFF7FA
:1003A000E6FF01BD38B505000C00002D01D0002C82
:1003B00000D114E0200000F013F800280FD1200035
:1003C00000F062F800280AD02100280000F09CF814
:1003D000002804D1DFF8B81B280000F0A1FD31BDD2
:1003E00010B50400002C01D100204CE000E0641C9A
:1003F0002078002804D0207802F004FC0028F6D1F0
:100400000422DFF8EC19200002F006FC002837D0A7
:100410000422DFF8E019200002F0FEFB00282FD0B4
:100420000422DFF8D419200002F0F6FB002827D0C0
:100430000422DFF8C819200002F0EEFB00281FD0CC
:100440000522DFF8BC19200002F0E6FB002817D0D7
:100450000522DFF8B019200002F0DEFB00280FD0E3
:100460000422DFF8A419200002F0D6FB002807D0F0
:100470000422DFF8201B200002F0CEFB002801D16F
:10048000012000E0002010BD10B50400002C01D1B7
:10049000002034E000E0641C2078002804D020789C
:1004A00002F0B0FB0028F6D10422DFF8B81A2000D1
:1004B00002F0B2FB00281FD00422DFF8AC1A2000A3
:1004C00002F0AAFB002817D00422DFF8CC1A200083
:1004D00002F0A2FB00280FD00422DFF8C01A20008F
:1004E00002F09AFB002807D00522DFF8BC1B200091
:1004F00002F092FB002801D1012000E0002010BD95
:10050000504F4400384C00202DE9F0472DED088B6A
:10051000ADF51E7D04000B000025002C01D0002B42
:1005200002D1002000F0FEBBBFA6320080213EA811
:1005300002F022FB3EA800F035FD9DF8F8000028EF
:1005400001D10120EEE326AB15AADFF8541A3EA82C
:1005500002F076FB01285BD11598002803D120001A
:10056000FFF79BFE52E01598012803D12000FFF70A
:10057000BCFE4BE01598022843D1DFF8B45795F83C
:100580008D00012802D1DFF8240B00E0C3A01290F7
:1005900095F88C001190686D1090686C02F00EFB5D
:1005A000CDE90E01286C02F009FBCDE90C01E86BE6
:1005B00002F004FBCDE90A01A86B02F0FFFACDE9D5
:1005C0000801286B02F0FAFACDE90601E86A02F0A8
:1005D000F5FACDE90401A86A02F0F0FACDE90201CA
:1005E000686A02F0EBFACDE90001DFF8C42A4FF4A3
:1005F00080715EA802F0C0FA5EA9200000F090FCB5
:1006000004E0DFF8B01A200000F08AFC012089E342
:1006100000208DF8980000208DF8B80000208DF89B
:10062000D80036A800902EAB26AADFF88C1A3EA878
:1006300002F006FB0128C0F2C180DFF8801A26A86C
:1006400000F0E6FD002817D001F03DFE002084F800
:100650009A010020C4F89C01DFF8641A200000F021
:100660005FFC94F89801002804D0DFF8581A2000A5
:1006700000F056FC012055E3DFF84C1A26A800F0E4
:10068000C7FD002866D09DF8B800002805D1DFF826
:100690000019200000F044FC5AE0DFF894160878B6
:1006A000062802D04868002805D0DFF8201A20006C
:1006B00000F036FC4CE00878022805D0DFF8101A6C
:1006C000200000F02DFC43E0BAA12EA800F0A0FD10
:1006D000002818D001F0E7FD01F0DFFD012084F8CB
:1006E0009A010020C4F89C01DFF8D419200000F022
:1006F00017FC94F8980100282AD0DFF8D8192000B8
:1007000000F00EFC24E0DFF82C162EA800F080FD8F
:10071000002818D001F0CDFD01F0BFFD012084F8C4
:100720009A010020C4F89C01DFF89419200000F021
:10073000F7FB94F8980100280AD0DFF898192000F8
:1007400000F0EEFB04E0DFF84818200000F0E8FBC2
:100750000120E7E2DFF8841926A800F059FD0028FF
:1007600025D0DFF8CC050178062902D040680028A2
:1007700005D0DFF85819200000F0D2FB15E001F099
:100780009EFD002084F89A010020C4F89C01DFF847
:100790003019200000F0C4FB94F89801002804D020
:1007A000DFF83C19200000F0BBFB0120BAE2DFF8C3
:1007B000E017200000F0B4FB0120B3E20422DFF8D0
:1007C000D8173EA802F028FA002840F056812020D1
:1007D00000901EAB202216A93FA800F015FC0028AF
:1007E00006D1DFF80019200000F09AFB012099E201
:1007F000DFF83C653078062802D07068002806D003
:10080000DFF8E418200000F08BFB01208AE230784A
:1008100002280BD03078012808D0DFF8D01820004B
:1008200000F07EFB01207DE22573000096ED098A31
:10083000D6ED0A8A96ED0B9AD6ED0C9A96ED0EAA95
:10084000D6ED0FAA96ED10BAD6ED11BA776D96F8DF
:100850008C8096F88D90DFF8981816A800F0D8FCD8
:10086000002809D013A91EA800F09AFC002803D084
:10087000139870620125C8E0DFF8781816A800F018
:10088000C7FC00280CD013A91EA800F089FC002882
:1008900006D01398B0620125B7E000BF4E320000C9
:1008A000DFF8541816A800F0B3FC002809D013A9EB
:1008B0001EA800F075FC002803D01398F0620125F3
:1008C000A3E0DFF8381816A800F0A2FC002809D031
:1008D00013A91EA800F064FC002803D0139830630D
:1008E000012592E0DFF8181816A800F091FC002806
:1008F00009D013A91EA800F053FC002803D01398B8
:10090000B063012581E0DFF8FC1716A800F080FC39
:10091000002809D013A91EA800F042FC002803D02B
:100920001398F063012570E0DFF8DC1716A800F0DB
:100930006FFC002809D013A91EA800F031FC002884
:1009400003D01398306401255FE0DFF8C01716A8C4
:1009500000F05EFC002809D013A91EA800F020FCBE
:10096000002803D01398706401254EE0DFF8A0172B
:1009700016A800F04DFC002809D014A91EA800F00C
:100980002CFC002803D01498706501253DE0DFF8A9
:10099000841716A800F03CFC002812D014A91EA849
:1009A00000F01BFC00280CD01498002804D0012073
:1009B00003E000BF504F4400002086F88C00012562
:1009C00023E0DFF854A7514616A800F021FC0028C8
:1009D0000AD0C0A11EA800F01BFC002804D00020F3
:1009E00086F88D00012510E0514616A800F010FC95
:1009F00000280AD0DFF8B4161EA800F009FC002871
:100A000003D0012086F88D000125EDB2002D2DD0F8
:100A100001F01CFC00280ED0DFF80017200000F0C9
:100A20007FFA94F89801002825D0DFF8F41620000A
:100A300000F076FA1FE086ED098AC6ED0A8A86ED97
:100A40000B9AC6ED0C9A86ED0EAAC6ED0FAA86ED9E
:100A500010BAC6ED11BA776586F88C8086F88D904D
:100A6000DFF88016200000F05BFA04E0DFF874166F
:100A7000200000F055FA012054E10422DFF81C1593
:100A80003EA802F0C9F8002840F004813FAB3200D4
:100A9000202116A802F070F816A800F083FA9DF83D
:100AA0005800002806D1DFF87C16200000F038FA44
:100AB000012037E1DFF8381616A800F0A9FB00285E
:100AC0000DD09B48406A02F079F8CDE90001DFF8CB
:100AD00058264FF480715EA802F04EF8D4E0DFF89B
:100AE000141616A800F094FB00280DD09048806AD8
:100AF00002F064F8CDE90001DFF830264FF4807190
:100B00005EA802F039F8BFE0DFF8EC1516A800F097
:100B10007FFB00280DD08648C06A02F04FF8CDE96F
:100B20000001DFF80C264FF480715EA802F024F873
:100B3000AAE0DFF8C81516A800F06AFB00280DD05F
:100B40007B48006B02F03AF8CDE90001DFF8E425BC
:100B50004FF480715EA802F00FF895E0DFF8A01561
:100B600016A800F055FB00280DD07148806B02F0EC
:100B700025F8CDE90001DFF8C0254FF480715EA8AB
:100B800001F0FAFF80E0DFF87C1516A800F040FBCA
:100B900000280DD06648C06B02F010F8CDE90001C6
:100BA000DFF898254FF480715EA801F0E5FF6BE057
:100BB000DFF8541516A800F02BFB00280DD05C4878
:100BC000006C01F0FBFFCDE90001DFF874254FF464
:100BD00080715EA801F0D0FF56E0DFF8301516A84E
:100BE00000F016FB00280DD05148406C01F0E6FFE4
:100BF000CDE90001DFF84C254FF480715EA801F0CB
:100C0000BBFF41E0DFF8081516A800F001FB002843
:100C100009D04748436DDFF830254FF480715EA856
:100C200001F0AAFF30E0DFF8EC1416A800F0F0FAAB
:100C300000280AD03E4890F88C30DFF810254FF499
:100C400080715EA801F098FF1EE0DFF8CC1416A8B2
:100C500000F0DEFA002810D0354890F88D00012809
:100C600002D1DFF8483400E01AA3DFF8E4244FF49F
:100C700080715EA801F080FF06E0DFF8A8244FF441
:100C800080715EA801F078FF5EA9200000F048F9AD
:100C9000012047E00522DFF810143EA801F0BCFF58
:100CA00000283ED10DF1FD033200202126A801F0DD
:100CB00063FF26A800F076F91D480178062902D0C6
:100CC0004068002808D0DFF88C14200000F028F9D4
:100CD00025E000BF4E320000A1A126A800F098FA3E
:100CE000002808D0012084F89801DFF86C14200057
:100CF00000F016F913E0A5A126A800F089FA002853
:100D000008D0002084F89801DFF84C14200000F08F
:100D100007F904E0DFF84414200000F001F9012095
:100D200000E000200DF51E7DBDEC088BBDE8F087CE
:100D30006849002020B900088CB4000870B5040090
:100D4000002C4ED0DFF818647068D4F8A45130EA53
:100D50000505002D03D17068C4F8A40141E0E8073F
:100D600004D5DFF80014200000F0DAF8E80604D516
:100D7000DFF8F413200000F0D3F8A80604D5DFF85C
:100D8000EC13200000F0CCF8680704D5DFF8E0137E
:100D9000200000F0C5F8280704D5DFF8D81320009C
:100DA00000F0BEF8A80704D5DFF8CC13200000F04F
:100DB000B7F8680604D5DFF8C413200000F0B0F8D7
:100DC000280604D5DFF8B813200000F0A9F8E805DC
:100DD00004D5DFF8B013200000F0A2F87068C4F862
:100DE000A40170BD144E0020ECB6000860B10008EC
:100DF00028B9000830B9000838B9000840B900081F
:100E000048B9000850B9000858B9000870B5040086
:100E10000D00002C00F0838094F8980100280BD07E
:100E200094F89901002807D0002084F89901DFF890
:100E30005813200000F074F894F8980100286ED040
:100E400094F89A01002803D10020C4F89C0166E0C0
:100E5000C34ED4F8A0017169884260D00021307877
:100E6000052826D196F88B00012821D096F8860017
:100E700000281ED096ED0C0AD6ED200AB4EE600ACA
:100E8000F1EE10FA15DB96F88D0000280CD196F8DB
:100E90008400002808D096ED0B0AD6ED1A0AB4EEAD
:100EA000600AF1EE10FA03DA96F88D00012800D1FD
:100EB0000121C9B2002903D10020C4F89C012EE011
:100EC00096F88B00002811D196F88D0000280DD1DE
:100ED000D4F89C01002802D1C4F89C511FE0D4F83A
:100EE0009C012D1AA948854203D218E00020C4F8BD
:100EF0009C0196F88B00002804D1A549200000F041
:100F00000FF803E0A349200000F00AF87069C4F864
:100F1000A001002084F89A010020C4F89C0170BD53
:100F200038B505000C00002D01D0002C00D113E0D5
:100F3000200001F099FE0200100080B200280BD0C2
:100F40004FF47A7392B22100934800F0A0FAD5F8DA
:100F50008C01401CC5F88C0131BD000018B100089F
:100F60004F4E000068B9000870B9000810B590B085
:100F700004000B00894A4021684601F0FDFD6946E6
:100F80002000FFF7CDFF10B010BD00004F46460017
:100F9000FCB6000860B9000878B9000880B90008FC
:100FA0000CB7000838B50500002D2CD0280001F042
:100FB0005BFE040005E0002005EB040101F8010CD4
:100FC000641E002C07D005EB040010F8010C01F0A2
:100FD00019FE0028EFD1002400E0641C285D0028E1
:100FE00004D0285D01F00EFE0028F6D1002C0AD0B6
:100FF00005EB040001F038FE0200521C05EB040171
:10100000280001F05BFE31BD2DE9F047804689469E
:1010100092461C00B8F1000F0AD0B9F1000F07D0BA
:10102000002C05D0BAF1000F02D0089D002D01D18F
:10103000002037E03D21404601F098FE0600002EDA
:1010400001D100202EE0B6EB0807701C01F00CFE69
:10105000002F05D0002803D0574501D2A84201D364
:1010600000201FE03A00CA464146504601F08AFE81
:10107000002009F80700731C17A22900200001F0C6
:101080007BFD4846FFF78EFF2000FFF78BFF99F8A6
:101090000000002804D02078002801D0012000E0C2
:1010A0000020C0B2BDE8F08788B9000890B90008F8
:1010B000BCAF0008D8B5000838B6000898B90008D9
:1010C00038B800084CB6000844B8000850B800080A
:1010D0005CB8000860B600082573000068B8000816
:1010E00074B600081CB7000874B8000880B800087F
:1010F0008CB80008A0B9000898B80008A4B8000887
:101100002CB700083CB700084CB700085CB70008D3
:10111000B0B800086CB70008BCB80008C8B8000830
:101120007CB700088CB7000888B600089CB6000899
:10113000B0B60008F0B500084CB5000868B5000866
:1011400084B50008A0B50008C4B60008BCB5000806
:10115000D8B600089CB70008D4B80008ACB700089F
:1011600068490020C8B200082CB2000860B200082C
:10117000F4B2000894B2000820B300084CB3000891
:1011800078B30008A4B30008BCB70008C0D40100BD
:1011900008B6000820B60008384C0020E0B8000867
:1011A00038B505000C00002D01D0002C01D1002025
:1011B00012E06946280001F03CFE0098A84203D0E6
:1011C00000980078002801D0002005E051EC100BB9
:1011D00001F034FE2060012032BD38B505000C005E
:1011E000002D01D0002C01D1002010E00A22694618
:1011F000280001F0F7FE01000098A84203D00098F3
:101200000078002801D0002001E02160012032BDDB
:1012100080B5002801D0002901D1002007E001F0AD
:10122000E5FE002801D1012000E00020C0B202BD8F
:1012300038B5A0B00400002C1BD0B4F88000002802
:1012400017D0B4F8802021006D46280001F09AFDE7
:1012500000206946B4F8802088540020A4F880005B
:10126000D4F88801401CC4F8880169462000FFF7C3
:1012700099F821B030BD10B4002801D0002901D167
:10128000002016E0B0F88421B0F886311C0092B23C
:10129000A4B2A24201D100200BE01A0092B2024493
:1012A00092F883200A705B1C03F0FF03A0F88631DC
:1012B000012010BC704730B400281CD0B0F8842145
:1012C000B0F88631541C04F0FF042500ADB29BB287
:1012D0009D4205D1D0F89411491CC0F894110AE040
:1012E00092B2024482F88310A0F88441D0F89011A1
:1012F000491CC0F8901130BC7047F0B40246106829
:1013000095681318506803EB5004C0071DD54D4471
:101310001BE013F8017B05F8017B491EF9D1A0B150
:10132000B60813F8011B06F00306032E08BF13F8D6
:10133000016B01EB06214942801C294405D011F8BC
:10134000016B05F8016B401EF9D1A3420ED013F8D2
:10135000016B16F0030104BF13F8011BC91C30090F
:101360000F28DAD113F8010B0F30D6E7F0BC02F1E9
:101370000C00704762F30F2262F31F42401810F016
:10138000030308D0C91A1FD3DB0748BF00F8012D9B
:1013900028BF20F8022D130030B41446154610392A
:1013A00028BF20E93C00FAD8490728BF20E90C00F3
:1013B00048BF40F8042D890028BF20F8022D48BFFF
:1013C00000F8012D30BC7047C91818BF00F8012D76
:1013D000CB0728BF00F8012D704730B4002513E07B
:1013E00050F8042BD30744BFA9F101039A18091F31
:1013F000042942F8045BFAD213468C0744BF1580D7
:101400009B1CC90748BF1D7050F8041B0029E7D179
:1014100030BC704710B50400002C01D1012035E02C
:10142000A0690028FFD194F84100002805D10020D0
:1014300084F84000200001F031FE242084F84100AF
:101440002068C06830F400502168C860200000F0B7
:1014500045FD2068006930F49040216808612068EB
:10146000406930F02A00216848612068C06850F463
:1014700000502168C86000206064202084F841008A
:10148000202084F8420000206063002010BD2DE978
:10149000FC4106000D0014001F00002096F84100DA
:1014A000202851D1002D03D0200080B2002801D186
:1014B00001204AE000207064212086F8410000F0FD
:1014C0008DFE8046B484F484B068B0F5805F04D1AA
:1014D0003069002801D1002412E02C0000250FE023
:1014E000207831684860641C07E0002CF8D1288817
:1014F000C005C00D31684860AD1CF08C401EF08402
:10150000F08C00280DD00097434600228021300047
:1015100000F025FB0028E8D0202086F841000320B9
:1015200013E00097434600224021300000F017FBF3
:10153000002804D0202086F84100032005E0202068
:1015400086F84100002000E00220BDE8F6812DE988
:10155000FC4106000D0014009846002096F8420059
:10156000202856D1002D03D0200080B2002801D1C0
:1015700001204FE000207064222086F84200002005
:10158000306300F02BFE0700B485F485B068B0F539
:10159000805F04D13069002801D1002413E02C00C1
:1015A000002510E03068406810F07F00207029E0CE
:1015B000002C1AD130684068C005C00D2880AD1CD1
:1015C000F08D401EF085F08D00281DD0CDF80080F4
:1015D0003B0000222021300000F0C1FA0028E7D0B3
:1015E000202086F84200032014E0B068B0F5805F48
:1015F00005D0B0680028D5D130690028D2D1306834
:1016000040682070641CDBE7202086F84200002040
:1016100000E00220BDE8F68180B590F84230202B32
:101620000DD1002903D013009BB2002B01D1012062
:1016300006E00023036392B200F0D2FA00E0022039
:1016400002BD80B590F84230202B0DD1002903D087
:1016500013009BB2002B01D1012006E0002303639D
:1016600092B200F0DCFA00E0022002BD10B50400E6
:1016700020680C3050E8001F31F4F071206810F140
:101680000C0242E800100028F2D12068143050E823
:10169000001F49084900206810F1140242E80010B8
:1016A0000028F2D1206B01280CD120680C3050E8C2
:1016B000001F31F01001206810F10C0242E8001008
:1016C0000028F2D120684069000620D52068143037
:1016D00050E8001F31F08001206810F1140242E848
:1016E00000100028F2D1A06B002810D00020A16BC0
:1016F0000865A06B01F054FE002808D0A06B01F033
:10170000B5FF202803D110206064032033E0206857
:101710004069400620D52068143050E8001F31F0A1
:101720004001206810F1140242E800100028F2D1B4
:10173000E06B002810D00020E16B0865E06B01F041
:101740002FFE002808D0E06B01F090FF202803D185
:101750001020606403200EE00020E0840020E0857B
:1017600000206064202084F84200202084F841009A
:1017700000202063002010BD38B5040020680168F7
:101780002068C268206843690020002011F00F0023
:10179000002807D18D0605D5950603D5200000F059
:1017A00026FB47E1002879D0D80702D412F4907FB5
:1017B00074D011F00100C0B2002805D0D00503D5C7
:1017C000606C50F001006064480708D513F0010018
:1017D000C0B2002803D0606C50F00200606488073B
:1017E00008D513F00100C0B2002803D0606C50F09F
:1017F0000400606408070AD5900604D413F00103BE
:10180000DBB2002B03D0606C50F008006064606CA9
:10181000002842D0880604D5900602D5200000F0AA
:10182000E6FA20684069800910F00100616C090740
:1018300001D400282CD0200000F062FA2068406912
:10184000400621D52068143050E8001F31F04001D7
:10185000206810F1140242E800100028F2D1E06B79
:1018600000280DD00FF2F940E16B0865E06B01F044
:10187000E5FD002811D0E06BE16B096D88470CE0B5
:101880002000FEF7ABFC08E02000FEF7A7FC04E018
:101890002000FEF7A3FC00206064CBE0206B012851
:1018A00040F0B880C80640F1B580D00640F1B28063
:1018B0000020009020680068009020684068009038
:1018C000009820684069400667D5E06B0068416871
:1018D000080080B2002850D00800A28D80B290424B
:1018E0004BD2E185E06BC069B0F5807F3BD02068CA
:1018F0000C3050E8001F31F48071206810F10C02A8
:1019000042E800100028F2D12068143050E8001F8F
:1019100049084900206810F1140242E8001000282C
:10192000F2D12068143050E8001F31F040012068E7
:1019300010F1140242E800100028F2D1202084F8AF
:1019400042000020206320680C3050E8001F31F076
:101950001001206810F10C0242E800100028F2D1BA
:10196000E06B01F01DFD02206063A18DE08D091A7E
:1019700089B2200001F0F6FE0EE0A08D89B281420E
:101980000AD1E06BC069B0F5807F05D102206063A9
:10199000A18D200001F0E6FE4CE0A08DE18D411A02
:1019A000E08D002835D0080080B2002831D02068B2
:1019B0000C3050E8002F32F49072206810F10C03C4
:1019C00043E800200028F2D12068143050E8002FAE
:1019D00052085200206810F1140343E80020002848
:1019E000F2D1202084F842000020206320680C30CF
:1019F00050E8002F32F01002206810F10C0343E889
:101A000000200028F2D10220606389B2200001F09A
:101A1000A9FE0FE0080605D5100603D5200000F04A
:101A2000A7F907E0480605D5500603D5200000F0C9
:101A3000D0F9FFE731BD01000020002091F84100FE
:101A400091F842100843C0B2704780B50100886B1E
:101A500009680968C9053BD40021C18501680C31BA
:101A600051E8002F32F48072016811F10C0343E851
:101A700000210029F2D10168143151E8002F5208E9
:101A80005200016811F1140343E800210029F2D14A
:101A90000168143151E8002F32F04002016811F161
:101AA000140343E800210029F2D1202180F84210DC
:101AB000016B01290CD101680C3151E8002F32F083
:101AC0001002016811F10C0343E800210029F2D152
:101AD00000214163016B012903D1818D01F042FE98
:101AE00001E0FEF758FC01BD80B5806B0121416328
:101AF000016B012905D1818D490889B201F032FEBF
:101B000001E001F030FE01BD10B50021846B2068BA
:101B10004069C00910F0010094F84110212906D154
:101B2000002804D00020E084200000F0D8F82068CD
:101B30004069800910F0010094F84210222906D172
:101B4000002804D00020E085200000F0D9F8606C67
:101B500050F0100060642000FEF740FB10BD2DE93E
:101B6000FC4105000E0090461F00089C2868006894
:101B70003040B04201D1012000E000204146C9B20E
:101B800088422AD114F1010FF0D000F027FBC01BCE
:101B9000844201D3002C01D103201FE02868C068D3
:101BA0004007E3D5802EE1D0402EDFD028680068C2
:101BB0000007DBD5002000902868006800902868A6
:101BC000406800900098280000F09AF808206864A7
:101BD000002085F84000012000E00020BDE8F681EB
:101BE00081628285C28500214164222180F84210F1
:101BF0000169002905D00168C96851F48071026843
:101C0000D1600168496951F00101026851610168C0
:101C1000C96851F020010068C1600020704713B509
:101C2000040013000198A062A385002060642220B4
:101C300084F84200DFF88C05E16BC863DFF88805A3
:101C4000E16B0864DFF88405E16BC8640020E16B98
:101C5000086501A89BB202682068011DE06B01F0D5
:101C600065FB002806D010206064202084F8420024
:101C7000012033E000200090206800680090206878
:101C8000406800900098206900280CD020680C3033
:101C900050E8001F51F48071206810F10C0242E8F6
:101CA00000100028F2D12068143050E8001F51F0D5
:101CB0000101206810F1140242E800100028F2D15E
:101CC0002068143050E8001F51F04001206810F1E6
:101CD000140242E800100028F2D1002016BD01686D
:101CE0000C3151E8002F32F0C002016811F10C03F1
:101CF00043E800210029F2D1202180F841107047EB
:101D000001680C3151E8002F32F49072016811F132
:101D10000C0343E800210029F2D10168143151E895
:101D2000002F52085200016811F1140343E800210A
:101D30000029F2D1016B01290CD101680C3151E865
:101D4000002F32F01002016811F10C0343E800216A
:101D50000029F2D1202180F8421000210163704750
:101D600080B5806B0021C185FEF738FA01BD000007
:101D700090F8411021292AD18168B1F5805F0CD1FA
:101D80000169002909D1016A0988C905C90D0268DC
:101D90005160016A891C016205E0016A4A1C026205
:101DA000097802685160C18C491EC18489B200293A
:101DB0000BD10168C96831F080010268D160016807
:101DC000C96851F040010068C160002000E00220B5
:101DD000704780B50168C96831F040010268D16080
:101DE000202180F8411001F0BFFC002002BD80B529
:101DF0000021002190F8421022296DD18168B1F5AF
:101E0000805F0CD10169002909D1816A026852689A
:101E1000D205D20D0A80816A891C816216E0826A2D
:101E20008168B1F5805F05D08168002906D101691C
:101E3000002903D101684968117004E0016849680C
:101E400011F07F011170816A491C8162C18D491EA8
:101E5000C18589B200293DD10168C96831F02001EE
:101E60000268D1600168C96831F480710268D1608C
:101E7000016849694908490002685161202180F8D8
:101E8000421000214163016B01291FD10021016330
:101E900001680C3151E8002F32F01002016811F195
:101EA0000C0343E800210029F2D101680968C90642
:101EB00008D500210091016809680091016849680E
:101EC00000910099818D01F04DFC01E0FEF763FA6D
:101ED000002002E0002000E0022002BD2DE9FE4FBC
:101EE00005002868016931F44051E8680143286819
:101EF0000161A9682869014368690143E8690143F0
:101F00002868C268B248024011432868C160286846
:101F1000416931F44071A86901432868416128682A
:101F2000AC49884203D02868AB49884203D101F00C
:101F3000C8FC040002E001F0B9FC0400E869B0F557
:101F4000004F40F09F805FF0640A022600275FF098
:101F500019085FF0000922000023A8FB020108FB1A
:101F6000031109FB0211CDE9000168680021A6FBFD
:101F7000002306FB013307FB0033DDE9000101F01C
:101F800013FD6421B0FBF1F0029022000023A8FBB6
:101F9000020108FB031109FB0211CDE90001686889
:101FA0000021A6FB002306FB013307FB0033DDE91C
:101FB000000101F0F9FC834622000023A8FB020186
:101FC00008FB031109FB0211CDE90001686800213B
:101FD000A6FB002306FB013307FB0033DDE900010C
:101FE00001F0E2FC6421B0FBF1F00AFB10B0C0008C
:101FF00032306421B0FBF1F0400010F4F870029927
:1020000010EB0110029022000023A8FB020108FB44
:10201000031109FB0211CDE9000168680021A6FB4C
:10202000002306FB013307FB0033DDE9000101F06B
:10203000BBFC83462000002102000B00A8FB02012C
:1020400008FB031109FB02116A68002390469946B8
:10205000A6FB082306FB093307FB083301F0A4FCA9
:102060006421B0FBF1F00AFB10BA5FEACA0032301B
:102070006421B0FBF1F111F00701029809182868FA
:1020800081609CE0042600275FF0640A5FF0190875
:102090005FF0000922000023A8FB020108FB0311E6
:1020A00009FB0211CDE9000168680021A6FB0023AD
:1020B00006FB013307FB0033DDE9000101F074FC8E
:1020C0006421B0FBF1F0029022000023A8FB020182
:1020D00008FB031109FB0211CDE90001686800212A
:1020E000A6FB002306FB013307FB0033DDE90001FB
:1020F00001F05AFC834622000023A8FB020108FBE2
:10210000031109FB0211CDE9000168680021A6FB5B
:10211000002306FB013307FB0033DDE9000101F07A
:1021200043FC6421B0FBF1F00AFB10B00001323037
:102130006421B0FBF1F010F0F000029910EB0110F7
:10214000029022000023A8FB020108FB031109FBF7
:102150000211CDE9000168680021A6FB002306FBFF
:10216000013307FB0033DDE9000101F01DFC83466C
:102170002000002102000B00A8FB020108FB031154
:1021800009FB02116A68002390469946A6FB0823C2
:1021900006FB093307FB083301F006FC6421B0FBA2
:1021A000F1F00AFB10BA5FEA0A1032306421B0FB8A
:1021B000F1F111F00F010298091828688160BDE85B
:1021C000F78F00004B1A0008E91A0008091B0008E5
:1021D000F369FFFF0010014000140140014800684E
:1021E000704700BF244E002038B590210022DFF850
:1021F000204925002800FFF7BDF800F0B8F801F0ED
:10220000EBFC01F0A8FE00F079F8A06ADFF80419F1
:102210000860DFF804095FF07E510160DFF8FC0818
:102220005FF08041016041F28830DFF8F418086007
:102230000020DFF8F01808700020DFF8EC180860C4
:1022400000202070012084F88A0031BD80B501F0A3
:10225000D3FC02BD38B50400DFF8B45895F88A0005
:10226000002819D0E868201AA96C884206D3EC60CF
:10227000200000F0B3F8200000F018F92869201AB7
:10228000E96C884208D3142001F0FAFE2C6120008A
:1022900000F0D4F900F094FA31BD0120DFF8701895
:1022A00081F8870070470020DFF8641881F88B0000
:1022B00070470120DFF8581881F88B00704780B50F
:1022C00000F010F801BD10B5DFF844480020606050
:1022D00000F014F800F074FA00202070FFF77EFF81
:1022E000A06010BD80B5DFF8280802210170002130
:1022F000816000F003F800F063FA01BD80B50020B2
:1023000000F09DFB002000F0AAFB002000F0B9FBCC
:10231000002000F0DBFB002000F0EAFB9FED610AEB
:1023200001F0C2FE01BDC0B2002809D002280DD0C4
:1023300009D3042810D00CD3062812D00FD313E0F1
:10234000DFF8E80712E0DFF8E8070FE0DFF8E4075E
:102350000CE0DFF8E40709E0DFF8E00706E052A050
:1023600004E0DFF8DC0701E0DFF8D8077047DFF8AA
:10237000A007DFF8D4174162DFF8D0178162B1EE11
:10238000040A80ED0B0ADFF8C8170163DFF8C417F1
:10239000816380ED0F0ADFF8C0170164DFF8BC1716
:1023A00041644FF4967181643221C1644FF4FA5153
:1023B0000165DFF8AC17416541F28831816540F66F
:1023C000B832C26540F2DC5202664166002180F8F4
:1023D0008C10002180F88D107047000038B5040083
:1023E00000200090BFEE000A684601F0AFFE002812
:1023F00015D19DED000AF1EE000AB4EE600AF1EE8F
:1024000010FA02D59FED270A01E09DED000ADFF8E2
:10241000000780ED1B0A012180F88510C4614FF48C
:10242000FA7001F02DFE01F039FFB5EE400AF1EE31
:1024300010FA07DBDFF8D80680ED1A0A012180F8D0
:1024400084108461DFF8C85601F0EEFF85ED1D0AA7
:1024500002F008F885ED1E0A02F028F885ED1C0A46
:1024600095ED1C0AF0EE000AB4EE600AF1EE10FAE7
:1024700002D59FED0C0A01E095ED1C0A85ED1C0AC2
:1024800001F07EFD00280CD1DFF8D8060068E8676F
:10249000DFF8D4060068C5F88000012085F88600C2
:1024A0002C6231BD0000000052554E00F8B5070007
:1024B0000024DFF85C5695F88B00012801D1012635
:1024C00000E0002695F88500002809D02A6EE96909
:1024D000380000F081F9002802D0002085F885003E
:1024E00095F88400002809D0EA6DA969380000F049
:1024F00073F9002802D0002085F8840095F8860042
:10250000002809D06A6E296A380000F065F90028B1
:1025100002D0002085F886003000C0B200280CD11F
:1025200095F88D00002808D195F88400002804D182
:10253000E86D874201D354F002042878032802D0C2
:102540002878052808D195F88500002804D1286E40
:10255000874201D354F004043000C0B2002808D1EF
:1025600095F88600002804D1686E874201D354F0A4
:1025700008042878032805D02878042802D0287871
:10258000052813D195ED0E0AD5ED1D0AB4EE600AAB
:10259000F1EE10FA08D495ED1D0AD5ED0F0AB4EE50
:1025A000600AF1EE10FA01D554F0100428780328DF
:1025B00002D0287805281BD14FF4FA62A9683800A8
:1025C00000F00AF9002813D095ED1E0AD5ED110A86
:1025D000B4EE600AF1EE10FA08D495ED100AD5EDCC
:1025E0001E0AB4EE600AF1EE10FA01D554F0200490
:1025F0002878032808D16A6DA968380000F0ECF843
:10260000002801D054F08004F6B2002E14D12878AE
:10261000052811D1DFF80C05007800280CD0DFF870
:1026200000050268DFF800050168380000F0D4F802
:10263000002801D054F480746C60F1BD38B50400FA
:10264000DFF8CC546868002803D02100062000F091
:102650009BF8287800280AD001280FD002281CD027
:10266000032828D0052868D0062874D083E0FFF717
:1026700045FE2100012000F087F884E0FFF73EFED0
:1026800095F88500002807D095F88600002803D02B
:102690002100022000F078F875E0FFF72FFE95F892
:1026A0008700002806D06869401C6861210003206B
:1026B00000F06AF867E095ED090A00F02CF995F84A
:1026C0008800002804D02100022000F05DF833E0EB
:1026D00095F88B00012806D1AA6DA968200000F0AA
:1026E0007BF8002824D195F88D0000280CD195F8AE
:1026F0008400002808D095ED0B0AD5ED1A0AB4EE37
:10270000600AF1EE10FA03DA95F88D00012813D172
:1027100095ED0C0AD5ED200AB4EE600AF1EE10FA40
:102720000ADBAA6DA968200000F056F8002803D043
:102730002100052000F028F825E0200000F054F8E2
:1027400000F033F995F88800002803D0210002201A
:1027500000F01AF817E0FFF7D1FD6868002803D0F1
:1027600095F88900002805D000206860210001202C
:1027700000F00AF807E0FFF7C1FD012068602100C2
:10278000062000F001F831BD10B4DFF8842313787F
:102790000400E4B2A34211D00300DBB2052B0BD03E
:1027A000936ADFF8704323600023DFF878432370D7
:1027B0000023DFF8744323601070916010BC7047F1
:1027C000DFF84C03002180F88710002180F8881082
:1027D000002180F889107047401A904201D30120EF
:1027E00000E00020C0B27047DFF8243393ED0A0AFE
:1027F000002293F88B10012914D193ED090ADFED23
:10280000B20AB4EE600AF1EE10FA01DB9FEDB70AEE
:102810000020C44908700020C3490860BD4880ED0D
:10282000000A77E093F88510002916D0D3ED1B0A33
:1028300093ED1C1AF4EE410AF1EE10FA0DD5D3ED2A
:102840001C0AB54991ED001A70EE810AB4EE600AD7
:10285000F1EE10FA01D5B0EE600A93F88610002967
:1028600009D0D3ED0C0A93ED201AF4EE410AF1EEF3
:1028700010FA00D5012293F88D1000290DD193F89C
:102880008410002909D0D3ED0B0A93ED1A1AF4EE47
:10289000410AF1EE10FA00D50122D2B2002A1ED070
:1028A000A04A1178002906D1012111709E490860C3
:1028B000984880ED000A99489649D1ED000A90EDBC
:1028C000001A70EE810AB4EE600AF1EE10FA0CD52F
:1028D00091ED000AD0ED000A30EE200A05E000205C
:1028E00090490870002090490860D3ED0A0AB4EEC0
:1028F000600AF1EE10FA01D593ED0A0ADFED720AD3
:10290000B4EE600AF1EE10FA01DB9FED780A81481F
:1029100080ED000A704710B501F0C6FB93490870BE
:102920007B4C94F88B0000281DD1002000F0B9F8F2
:10293000012000F0A6F894F88C00012809D10020AD
:1029400000F07DF8002000F08AF8012000F0BEF8C9
:102950002AE0012000F073F8012000F080F8002048
:1029600000F0B4F820E094F88B0001281CD101207D
:1029700000F097F8002000F084F894F88C0001280B
:1029800009D1002000F05BF8002000F068F8012079
:1029900000F09CF808E0012000F051F8012000F060
:1029A0005EF8002000F092F810BD10B501F07CFB3D
:1029B0006E490870564C94F88B0000281DD10020F9
:1029C00000F06FF8012000F05CF894F88C0001280A
:1029D00009D1002000F033F8002000F040F8012079
:1029E00000F074F82AE0012000F029F8012000F03E
:1029F00036F8002000F06AF820E094F88B000128F7
:102A00001CD1012000F04DF8002000F03AF894F8B5
:102A10008C00012809D1002000F011F8002000F0FE
:102A20001EF8012000F052F808E0012000F007F83D
:102A3000012000F014F8002000F048F810BD80B527
:102A4000C0B2002805D000224021494801F06CFEA8
:102A500004E001224021464801F066FE01BD80B538
:102A6000C0B2002806D001224FF40071404801F0A6
:102A70005BFE05E000224FF400713D4801F054FE7A
:102A800001BD80B5C0B2002805D0002280213848A1
:102A900001F04AFE04E001228021354801F044FEA5
:102AA00001BD80B5C0B2002806D000224FF480716D
:102AB0002F4801F039FE05E001224FF480712C48C7
:102AC00001F032FE01BD00000100484380B5C0B2F4
:102AD000002805D000220121264801F025FE04E04F
:102AE00001220121234801F01FFE01BD00004843DF
:102AF00080B5C0B2002805D0012202211D4801F096
:102B000013FE04E0002202211A4801F00DFE01BD6F
:102B1000684900200C4E002004000020080000201E
:102B20000C000020844E0020104E0020F8B8000851
:102B300020B8000800B9000808B900082CB800083F
:102B400010B9000818B900080000A0420000A04118
:102B5000000020410000E0408FC2F5BC666666BF01
:102B6000E09304001C4E0020204E0020834E0020E5
:102B7000000402400010024008B438B585B009AC2A
:102B800000250494039500290EBF01950190491E6C
:102B90000291009504AB01A9074878441A3001F06E
:102BA000F7FD019901B10D70002858BF039806B0D8
:102BB00030BC5DF808FB00BF9B010000C0F3C751AB
:102BC00081B1FF2906D0C110400721F0E04101F199
:102BD0006051704741020CBF40F4E0016FF00041CA
:102BE0000020704700F0004100020AD0B0FA80FCDB
:102BF00000FA0CF001F16051A1EB0C5101EBD02176
:102C00004005704710B5044602F0DAFC0146204644
:102C1000096ABDE81040084704E010F8013B6BB1B9
:102C2000491C521E52B10B7890F800C09C45F4D05C
:102C300002D24FF0FF3070470120704700207047EC
:102C40000DB4C0B50A4604A800210190009101AB63
:102C500003A9044878440C3002F0D8FC06BC5DF8A7
:102C600010FB00BF3B00000000F10103810704D00E
:102C700010F8011B820781B1FAD10268A2F101317B
:102C8000914311F0803104BF50F8042FF6E709BAE0
:102C9000B1FA81F100EBD100401CC01A7047036803
:102CA0001AB95A1E026008467047197811B94FF0D8
:102CB000FF307047591C01601878704781423ABF55
:102CC0005318984200F05EB88018990707D0521E3A
:102CD00024BF13F8011D00F8011DF6D870478107C5
:102CE0001BD1103A07D330B433E93210103A20E93F
:102CF0003210F9D230BC1032121F24BF53F8041D19
:102D000040F8041DF8D838BF121D521E24BF13F816
:102D1000011D00F8011DF8D87047121FF3D3C10739
:102D200009D153F8041D121F20F8041D4FEA314148
:102D30004180F6D2E7E753F8041D121F00F8041D86
:102D40004FEA3121A0F801104FEA3141C170F2D2AF
:102D5000D9E78268521C8260426832B10268531C13
:102D6000036011704168491E41607047C9B2027822
:102D70008A421AB11CBF10F8012FF9E718BF0020D2
:102D80007047000062B38B0708D0521E11F8013B58
:102D900000F8013B00F024808B07F6D1830740F058
:102DA000208000BF103A07D330B4B1E83810103A91
:102DB000A0E83810F9D230BC530724BFB1E808109E
:102DC000A0E8081044BF51F8043B40F8043BD20788
:102DD00024BF31F8022B20F8022B44BF0B7803707C
:102DE0007047121F17D35B0009D151F8043B20F83C
:102DF000023B1B0C121F20F8023BF6D20BE051F8ED
:102E0000043B00F8013B1B0A20F8023B1B0C121F7D
:102E100000F8013BF3D238BF121D521E24BF11F837
:102E2000013B00F8013BF8D87047000041EC100B63
:102E300001BD80B503F0BEFCF8E7000001F00042E0
:102E40008B1AA3F16051B1F5801F0ADBB1F17F6FDE
:102E50001FD242EAC102C10071F1004142EB507041
:102E600070470B15C3F10903212B10D2890241EAE7
:102E7000905180020128494141F0004121FA03F0BC
:102E8000C3F12003994071F1004150417047100097
:102E900070476FF0000013EB103F5CBF000E42EA7A
:102EA000C05070472DE9F84F84B00E4617460BB15D
:102EB00000221A600446A04601E008F1010898F8D3
:102EC0000000FFF79FFE0028F7D198F800002D289A
:102ED00016BF2B2818F8015B2B25002F019603D471
:102EE000012F01D0252F03DB002E55D0346053E095
:102EF000002F0CDD102F04BF98F80000302802BF0F
:102F000098F8010040F02000782811D10CE098F8E2
:102F10000000302818BF0A270AD198F8010040F0B5
:102F20002000782803D1102708F1020800E00827C4
:102F3000CDF80C8001E008F1010898F80000302875
:102F4000F9D0064E7E4414364FF0000906F12800F1
:102F5000CDF80880CA468DF800000BE01C81000007
:102F60009DF80010401ACA465FFA80FB07FB09B9BA
:102F700008F1010898F8000003F01FFC01463A46EA
:102F800006F1280003F024FC0028E9D1039941450B
:102F900004D1019800B10460002020E00299F05DA6
:102FA000A8EB0101081A002810D406DCB9EB0B01CC
:102FB00003D3B1FBF7F0504508D0AFF3008004987D
:102FC00008B1012101604FF0FF3903E02D2D08BF4A
:102FD000C9F10009019808B1C0F80080484605B061
:102FE000BDE8F08F00BF00235CE7000010F8012B64
:102FF00011F8013B0AB19A42F8D0D01A704700008C
:1030000080B58448844901605FF4E131416000216A
:1030100081600021C160002101610C21416100211A
:1030200081610021C161FEF7F5F9002801D003F0AC
:1030300076FC01BD80B57948794901605FF4E131E2
:103040004160002181600021C160002101610C21EB
:103050004161002181610021C161FEF7DBF9002897
:1030600001D003F05CFC01BD80B56E486E49016083
:103070005FF4E1314160002181600021C1600021E5
:1030800001610C214161002181610021C161FEF7D4
:10309000C1F9002801D003F042FC01BD38B586B06B
:1030A00004006846142103F04BFC20685A4988420A
:1030B0004FD1002005905D48016851F0100101607A
:1030C000006810F010000590059800200590584801
:1030D000016851F001010160006810F001000590E5
:1030E00005984FF4C06000900220019000200290EB
:1030F000032003900720049069464E4801F016FA19
:103100004D4D4E4828605FF0006068600020A86068
:103110000020E8604FF48060286100206861002092
:10312000A8610020E8610020286200206862280071
:1031300000F08CF8002801D003F0F1FBE563AC63EC
:1031400000220521252003F055FC252003F063FC17
:103150005DE02068324988422FD100200590384830
:10316000016851F480210160006810F4802005900E
:103170000598002005902E48016851F00801016073
:10318000006810F00800059005984FF4407000901A
:103190000220019000200290032003900720049059
:1031A0006946284801F0C2F900220521272003F0D2
:1031B00021FC272003F02FFC29E020681A498842CF
:1031C00025D1002005901948016851F020010160C7
:1031D000006810F020000590059800200590144824
:1031E000016851F004010160006810F004000590CE
:1031F0000598C0200090022001900020029003203A
:1032000003900820049069460F4801F08FF907B039
:1032100030BD0000F04B002000100140384C002071
:1032200000480040804C0020001401404438024017
:103230003038024000000240F8490020406402405B
:1032400040380240000C02400008024038B504003B
:103250000020FEF7C3FF0500002C01D1012064E02F
:10326000606A0028022084F83500002084F83400C9
:1032700020680068400840002168086020680068F5
:10328000C0070BD5FEF7AAFF401B0628F6D3202067
:103290006065032084F83500032046E0206801685B
:1032A000DFF82C0401406268A0680243E068024332
:1032B0002069024360690243A0690243E069024356
:1032C000206A02431143606A042803D1E26A206B3A
:1032D000024311432068016020684569ED08ED0054
:1032E000606A0543606A042810D1A06A0543E06A59
:1032F00000280BD0200000F0F1F9002806D0402073
:103300006065012084F8350001200EE020684561E9
:10331000200000F0C4F93F22E16D8A408260002065
:103320006065012084F83500002032BD70B50400CE
:103330000025A66D94F83400012801D102202EE06A
:10334000012084F8340094F83500012821D10220AE
:1033500084F8350000206065200000F089F93F21E5
:10336000E06D8140B1602068006850F0160021686F
:103370000860206C002805D02068006850F0080024
:10338000216808602068006850F00100216808602A
:1033900003E0002084F8340002252800C0B270BD8C
:1033A00070B50400A56DFEF719FF060094F835000E
:1033B000022806D080206065002084F834000120B7
:1033C0003BE02068006830F0160021680860206843
:1033D000406930F0800021684861206C002802D1EB
:1033E000A06C002805D02068006830F00800216833
:1033F0000860206800684008400021680860206874
:103400000068C0070ED5FEF7E9FE801B0628F6D33C
:1034100020206065032084F83500002084F8340003
:1034200003200AE03F21E06D8140A960012084F87B
:103430003500002084F83400002070BD90F835106D
:10344000022903D080214165012009E0052180F88F
:1034500035100168096849084900006801600020CA
:103460007047F8B5040000200090DFF8680200689B
:103470004FF41651B0FBF1F5A66D37680821E06DE9
:1034800011FA00F0074210D02068006840070CD500
:103490002068006830F0040022681060E06D814010
:1034A000B160606D50F001006065E06D3900C140B1
:1034B000C8070BD520684069000607D50121E06DDB
:1034C0008140B160606D50F0020060650421E06DE4
:1034D00011FA00F007420AD020680068800706D57C
:1034E000E06D8140B160606D50F0040060651021B6
:1034F000E06D11FA00F007422CD020680068000748
:1035000028D5E06D8140B16020680068400311D586
:1035100020680068000306D4206C00281AD0200020
:10352000216C884716E0A06C002813D02000A16C05
:1035300088470FE020680068C00505D4206800684F
:1035400030F0080021680860206C002802D02000BC
:10355000216C88472021E06D11FA00F007425FD00E
:1035600020680068C0065BD5E06D8140B16094F8CA
:103570003500052828D12068006830F01600216841
:1035800008602068406930F0800021684861206C44
:10359000002802D1A06C002805D02068006830F017
:1035A0000800216808603F21E06D8140B160012082
:1035B00084F83500002084F83400206D002802D003
:1035C0002000216D884750E020680068400311D535
:1035D00020680068000306D4606C002820D020001A
:1035E000616C88471CE0E06B002819D02000E16B7B
:1035F000884715E020680068C0050BD42068006883
:1036000030F0100021680860012084F835000020A7
:1036100084F83400E06B002802D02000E16B88477A
:10362000606D002821D0606DC00718D5052084F892
:103630003500206800684008400021680860009854
:10364000401C0090854204D320680068C007F6D46F
:10365000FFE7012084F83500002084F83400E06C96
:10366000002802D02000E16C8847F1BD406D704712
:1036700030B40468246834F4802405682C6004683D
:1036800063608368402B04D103689A600068C1605E
:1036900003E0036899600068C26030BC704701783D
:1036A00001F0FF0110391822B1FBF2F10A4A525C15
:1036B000C265042905D30168890A8902091D81654B
:1036C00003E00168890A89028165806D7047000006
:1036D0003F8010F034000020A8B90008020000204C
:1036E000936A9169002914D1002B05D0022B03D0D5
:1036F00007D3032B0BD00BE0D16AC90100D5012001
:103700002EE0D16AB1F1C07F00D1012028E027E08E
:1037100026E09169B1F5005F15D1002B05D0022B91
:1037200003D004D3032B07D00CE0012018E0D16AAA
:10373000C90100D5012013E0D16AB1F1C07F00D1E9
:1037400001200DE00CE0002B022B02D9DB1E02D081
:1037500006E0012004E0D16AC90100D50120FFE79D
:10376000C0B2704770477047704700002DE9F041C4
:1037700004000E00002C01D1012092E0634D286866
:1037800010F00F00B04207D22E70286810F00F0022
:10379000B04201D0012084E02078800716D520783F
:1037A000400704D55A48016851F4E051016020787F
:1037B000000704D55648016851F46041016054493E
:1037C0000A6832F0F002A06802430A602078C0075D
:1037D00035D56068012805D14E480068800313D4B0
:1037E00001205EE06068022802D06068032805D1ED
:1037F00048480068800107D4012052E0454800682D
:10380000800701D401204CE0414F396889088900C4
:10381000606801433960FEF7E1FC8046386810F0CB
:103820000C006168B0EB810F09D0FEF7D7FCB0EB5C
:10383000080041F289318842F0D3032031E0286842
:1038400010F00F00864207D22E70286810F00F008B
:10385000B04201D0012024E02078400706D52C4951
:103860000A6832F4E052E06802430A6020780007F8
:1038700007D52748016831F46041226951EAC20145
:10388000016000F051F82449214A1268C2F3031282
:10389000895CC840214908602148006803F0CAF8E3
:1038A0000020BDE8F0811D480068704780B5FFF733
:1038B000FAFF1C49164A1268C2F38222895CC8408A
:1038C00002BD80B5FFF7EFFF1649114A1268C2F337
:1038D0004232895CC84002BD0F2202600C4A136864
:1038E00013F003034360136813F0F003836013685D
:1038F00013F4E053C3601268D20812F4E05202617C
:103900000248006810F00F0008607047003C024059
:103910000838024000380240CCB7000834000020CC
:1039200010000020B0B9000810B5002000200020D1
:1039300000201948006810F00C00002804D004286A
:1039400004D0082804D025E0144824E0144822E0DC
:10395000144C226812F03F022068400209D520680A
:10396000C0F388100E49A1FB0001002300F01CF8F1
:1039700008E02068C0F388100849A1FB000100237B
:1039800000F012F82168C1F30141491C4900B0FB65
:10399000F1F000E0014810BD083802400024F400B6
:1039A00040787D0104380240BBBBE1B1B2F5803FF5
:1039B00080F07E80022A1ED98C46B1FBF2F102FB18
:1039C00011C31B0443EA1043B3FBF2FC02FB1C339C
:1039D00080B240EA0343B3FBF2F002FB103240EA4C
:1039E0000C4000237047022A05D98446B0FBF2F050
:1039F00002FB10C270474AB105D100F0010249082C
:103A00005FEA3000704700220023704703F068B877
:103A10000B000200002100207047904271EB030C64
:103A2000F6D3B3F5803F2FD2F0B5B3FA83F7B1FAEE
:103A300081F4A7F10F0E3D1B5340CEF1200602FA90
:103A40000EF2F3415340B5F10F0746D80F3C2C441A
:103A50004140C4F12006A040F1414140B1FBF3F6E2
:103A600003FB1611A2FB0645001BA94102D2761EDC
:103A70008018594180EA010221FA0EF362FA0EF22F
:103A800000215A403046F0BD30B4B1FBF3FC03FBDB
:103A90001C11A2FB0C45001BA94103D2ACF1010C87
:103AA0008018594130BC02460B46604600217047E1
:103AB000B2F1807F65D3F0B5B2FA82F7B1FA81F442
:103AC000C7F10F063D1B22FA06F307F1110EF24172
:103AD00020355A40B5F10F07B8D94140C4F120064E
:103AE000A040F1414140B1FBF3FC03FB1C11A2FBE0
:103AF0000C45001BA94103D2BCF1010C80185941AF
:103B00000F2F12D30F3FC90341EA5041B1FBF3F627
:103B100003FB1611A2FB0645D4EBC030A94102D22B
:103B2000761E8018594146EACC3C07B34140C7F1A4
:103B30002006B840F1414140B1FBF3F603FB1611FA
:103B4000A2FB0645001BA94102D2761E80185941EE
:103B500080EA010221FA0EF3C7F1200462FA0EF2A4
:103B60000CFA07F05A402CFA04F13043F0BD80EA19
:103B7000010221FA0EF3002162FA0EF260465A4069
:103B8000F0BD8C46B1FBF2F102FB11C31B0243EA0C
:103B90001063B3FBF2FC02FB1C331B024CEA002057
:103BA00043EA1063B3FBF2FC02FB1C331B024CEA3A
:103BB000002043EA1063B3FBF2FC02FB1C331B0240
:103BC0004CEA002043EA1063B3FBF2FC02FB1C3218
:103BD0004CEA00200023704710B500F00AF90400F9
:103BE000200000F0CAF8002801D1002003E02000E6
:103BF00000F09DF8012010BDF0B595B000200090B8
:103C0000002006A800F060F800F0F3F8040020009F
:103C100000F0B3F8002808D03C2206A9200002F0EA
:103C200061FF002801D101204CE01421002201ACE9
:103C30002000FDF79FFB00200190012002900B2047
:103C40000390012004900220059002F0BEFF40F294
:103C5000F31069490860694601A803F081F807007C
:103C60003800C0B2002814D1644E0F24002501E0B2
:103C7000361D6D1CA5420CD206A850F82520002345
:103C80003100022002F062FF07003800C0B20028B5
:103C9000EED002F0AAFFFFB2002F01D0002011E009
:103CA00000F0A7F80400200000F067F8002806D014
:103CB0003C2206A9200002F015FF002801D00020B8
:103CC00000E0012015B0F0BD38B50400002C2DD067
:103CD0003C21002225002800FDF74CFB48482060CD
:103CE000012060603C20A0604649486AE060886A24
:103CF0002061C86A6061086BA061886BE061C86B75
:103D00002062086C6062486CA062486DE06291F8C5
:103D10008C00002801D0012000E00020206391F8F1
:103D20008D006063200000F055F8A06331BD0028CD
:103D300022D0344AC1685162016991624169D162FD
:103D400081691163C1699163016AD163416A116438
:103D5000816A5164C16A5165016B002901D001215A
:103D600000E0002182F88C10406B012801D1012075
:103D700000E0002082F88D00704710B50400002C90
:103D800001D1002025E020681D49884201D0002093
:103D90001FE06068012801D000201AE0A0683C28DC
:103DA00001D0002015E0206B022801D3002010E094
:103DB000606B002804D0606B012801D0002008E06F
:103DC000200000F007F8A16B814201D0002000E044
:103DD000012010BD10B401000B483824002304E07A
:103DE000CA5C5040094A50435B1CA342F8D310BC44
:103DF00070470248704700000C3C024000000E086B
:103E00004746435068490020C59D1C81930100012D
:103E100080B503F0AEF801BD80B503F0C4F801BD74
:103E200080B5882003F01DF9C0B202BD80B589209D
:103E300003F017F9C0B202BD10B50400200080B233
:103E4000000AC0B203F00DF9C0B2002801D0012071
:103E500004E02000C0B203F004F9C0B210BD10B5F8
:103E6000FFF7D6FFFFF7DCFF04002000C0B20028F8
:103E700004D143F2A200FFF7DFFF0400FFF7CCFFFD
:103E80002000C0B210BD3EB5FFF7C2FFFFF7C8FF6C
:103E900004002000C0B2002804D143F28260FFF782
:103EA000CBFF04002000C0B2002808D14FF47A7084
:103EB00003F030F8FFF7ACFFFFF7B8FF0400200075
:103EC000C0B200281AD16D46002003F0F5F86871E1
:103ED000002003F0F1F82871002003F0EDF88DF8D0
:103EE0000300002003F0E8F8A870002003F0E4F8D5
:103EF0006870012003F0E0F88DF80000FFF78CFFF8
:103F00002000C0B2002814D15A4968460A68437993
:103F100052EA03620A600A68037952EA03420A60BD
:103F20000A68837852EA03220A600A6840780243EA
:103F30000A602000C0B23EBD80B5FFF769FFFFF701
:103F40006FFF0100C9B2002903D142F23010FFF720
:103F500073FFC0B202BD10B5FFF781FF040014204B
:103F600000F08EF82000C0B2002802D1FFF78BFFCE
:103F70000400E4B2002C01D1FFF7DEFF10BD000009
:103F8000FEB500240025FFF743FFFFF749FF0600B9
:103F90003000C0B2002804D14FF46040FFF74CFF5E
:103FA00006003000C0B2002804D1FFF731FFFFF750
:103FB0003DFF06003000C0B200281AD16F46002035
:103FC00003F07AF87871002003F076F83871002059
:103FD00003F072F88DF80300002003F06DF8B8705C
:103FE000002003F069F87870012003F065F88DF87F
:103FF0000000FFF711FF3000C0B200282ED1694643
:10400000487954EA002408790443887855EA002561
:1040100048780543A4B200EE104AB8EE400ADFED3E
:10402000110A20EE200ADFED100A80EE200ADFEDF3
:104030000F0A30EE200A104880ED000AADB200EE03
:10404000105AB8EE400ADFED0A0A20EE200ADFED32
:10405000060A80EE200A094880ED000A3000C0B24E
:10406000FEBD000000002F4300FF7F47000034C268
:104070000000C842184E00201C4E0020204E002098
:1040800038B50400FEF7AAF8050014F1010F02D0BC
:10409000044800782418FEF7A1F8401BA042FAD388
:1040A00031BD00BFB800002070B5DFED530A20EE2F
:1040B000200ABDEEC00A10EE100A504C02212170F9
:1040C000062161700021A1700021E170010089B218
:1040D000090A217160710621200000F09BF8A0718F
:1040E00080B2000AE071464E4FF4FA7308222100B4
:1040F0003000FDF7CCF9002801D0012024E0414D2B
:104100004FF4FA73082229003000FDF720FA002846
:1041100001D0012018E02878022814D168780628F8
:1041200011D1A878A17888420DD1E878E178884249
:1041300009D128792179884205D168796179884245
:1041400001D1002000E0012070BD0000F8B504009E
:104150002D4D02202870042068700020A8700020D7
:10416000E87000202871012068710621280000F005
:1041700051F8A87180B2000AE87108210022234E8C
:1041800037003800FDF7F6F81D4F4FF4FA73082298
:1041900029003800FDF77BF9002801D001202AE032
:1041A0000120FFF76DFF4FF4FA730722310038004A
:1041B000FDF7CDF9002801D001201CE0307802285D
:1041C00005D17078042802D1B078022801D00120EE
:1041D00011E00F48F178327952EA0122028000881A
:1041E00000EE100AB8EE400ADFED030A80EE200A66
:1041F00084ED000A0020F2BD0000C842B44D00204A
:10420000F04B0020BC4D0020C44D0020CC4D0020C0
:10421000804E002030B402004FF6FF70002400E012
:10422000641C2300DBB20D009BB2ADB2AB4215D2D1
:104230002300DBB2D35C584000231D00EDB2082DF3
:10424000EEDAC50702D480B2400805E080B205006E
:104250004AF2010090EA55005B1CEEE780B230BCE8
:10426000704738B504000821002225002800FDF71A
:1042700081F801202070042060700020A0700020D0
:10428000E070002020710120607106212000FFF7FE
:10429000C1FFA07180B2000AE07131BDF8B52DED0B
:1042A000028BBFEE008A3A4D2800FFF7DAFF394C47
:1042B0004FF47A73082229002000FDF7E8F800285F
:1042C00002D0B0EE480A5DE007210022324D2E00F8
:1042D0003000FDF74FF808210022304E370038003B
:1042E000FDF748F8072229002000FDF7AAF9002869
:1042F00002D0B0EE480A45E0FDF770FF070017F561
:104300007A772000FDF797FB222809D1FDF766FF99
:104310008742F6D22000FDF7A9F9B0EE480A31E055
:104320000722340029002000FEF72CFD30780128F8
:1043300005D17078042802D1B078022802D0B0EEFE
:10434000480A1FE005213000FFF764FFB279717958
:1043500051EA022180B289B2884202D0B0EE480A06
:1043600010E00F49F2784FF48073307903FB0202BA
:104370000A80088800EE100AB8EE400ADFED030A52
:1043800080EE200ABDEC028BF1BD00000000C842A7
:104390009C4D0020F04B0020AC4D0020A44D00208F
:1043A0007C4E002038B584B004006846102102F02D
:1043B000C7FA00940120019004200290564C6946EF
:1043C000200002F0D6FF002801D002F0A8FA200059
:1043D00002F0DCFE002801D002F0A1FA0A21200040
:1043E00002F06BFF002806D14C4D200002F0BEFF0A
:1043F0002880288800E0002005B030BD70B504009A
:104400000025002605E02000FFF7CCFF15FA80F517
:10441000761C0A2EF7DB00EE105AB8EE400AF2EED8
:10442000040A80EE200A70BD80B50220FFF7E6FF87
:10443000DFED340A20EE200ADFED330A20EE200AF9
:10444000DFED320A80EE200ADFED310A20EE200A8D
:104450003348F7EE000A20EE200A80ED000A90EDC6
:10446000000A01BD80B50120FFF7C8FFDFED250A76
:1044700020EE200ADFED240A20EE200ADFED230AD9
:1044800080EE200ADFED220A20EE200A2548F2EE17
:10449000040A80EE200AF0EE000ABFEE001A00EED9
:1044A000201A80ED001A90ED000A01BD80B50520AC
:1044B000FFF7A4FFDFED130A20EE200ADFED120A5A
:1044C00020EE200ADFED110A80EE200ADFED100A4F
:1044D00020EE200A1448F2EE040A80EE200ADFEDF6
:1044E0000D0A20EE200A80ED000A90ED000AB5EEDC
:1044F000400AF1EE10FA01D50021016090ED000AAA
:1045000001BD0000CDCC8C3F3333534000008045CB
:1045100085EB414000004843604B00207E4E002068
:10452000FC4D0020004E0020044E0020F8B4002274
:1045300000220022002337E00A2704E0DFF81022DF
:104540009042F9D10927FFB213F00302D2B29200D0
:1045500097403E431A00920845F82260DFF8F45174
:104560002A68A2434E68F60200D522432A60DFF88B
:10457000E8512A68A2434E68B60200D522432A6059
:10458000DFF8D8512A68A2434E68B60300D522430B
:104590002A60DFF8CC512A68A2434E68F60301D5A1
:1045A000144322002A605B1C102B80F0B28001258E
:1045B00015FA03F20C6814409442F4D10A7912F00F
:1045C0000302012A04D00A7912F00302022A16D14A
:1045D000866803271A00D2B252009740BE43CF68C4
:1045E0001A00D2B2520097403E43866042689D4016
:1045F000AA434D68C5F300159D402A4342600A79DD
:1046000012F00302032A0DD0C56803261A00D2B2A5
:1046100052009640B5438E681A00D2B252009640BE
:104620003543C5600A7912F00302022A17D11A0035
:10463000D20800EB8202156A0F2613F00702D2B2ED
:1046400092009640B5430E6913F00702D2B2920071
:10465000964035431A00D20800EB820215620568C5
:1046600003261A00D2B252009640B5430E7916F0D6
:1046700003061A00D2B252009640354305604A68DC
:1046800012F4403F8FD000220092364A156855F44C
:1046900080451560126812F480420092009A324DF3
:1046A0001A00920855F822600F2713F00302D2B2C5
:1046B00092009740BE432D4A904201D1002742E725
:1046C0002B4A904201D101273DE72A4A904201D16D
:1046D000022738E7284A904201D1032733E7274AC7
:1046E000904201D104272EE7254A904201D10527A7
:1046F00029E7244A904201D1062724E7224A904222
:1047000001D107271FE7214A90427FF417AF0827FE
:1047100019E7F1BC7047006989B2084201D0012055
:1047200000E00020C0B27047D2B2002A02D089B2A5
:10473000816102E089B209048161704742690B001E
:104740009BB2134089B2914351EA034181617047A2
:1047500000240240083C01400C3C0140043C014064
:10476000003C01404438024008380140000002404B
:104770000004024000080240000C02400010024009
:104780000014024000180240001C024000200240B9
:104790002DE9F0439FB000BF65A6269CDFF8B48AE0
:1047A0008DF83B40029100240B944FF0FF370446F4
:1047B00091461D460AE019F8011B0298A0470028FF
:1047C000029000F0A1800B98401C0B9099F800001B
:1047D00050B12528EFD100210022059106920791C2
:1047E000089209910A9203E00B98A5E041F00101BB
:1047F00019F8010F2028F9D023280CD02B2804D039
:104800002D2805D0302809D080E041F00201EFE7E3
:1048100041F00401ECE741F00801E9E741F0100143
:10482000E6E70D920AE00D98404505DA00EB8000BE
:1048300002EB4002303A0D9209F1010999F800208B
:10484000A2F130000A28EED399F800002E2818BFF4
:104850000C9726D119F8010F2A2808D1286828605A
:1048600009F1010950F8042B28600C9219E02D2859
:104870000CBF09F10109002000220C920BE040B9A5
:104880000C9A424505DA02EB820203EB4203303B0D
:104890000C9309F1010999F80030A3F130020A2ABA
:1048A000EDD3ADF83810304699F80010FEF75EFAF7
:1048B00008B119F8010B8DF83A009DF83A00682804
:1048C00005D199F8000068280CD1622106E06C2817
:1048D00004BF99F800006C2804D171218DF83A10BA
:1048E00009F1010910A804902A4619F8013B69460C
:1048F000204600F061F838B910AA6946204600F059
:104900008FF900287FF562AF384615E02A2888D154
:104910002A682A6052F8040B2A6000280D9003D5FB
:1049200040420D9041F0040109F101098CE70000BB
:10493000686A6C747A4C00001FB0BDE8F08362288E
:1049400020D0682811D06A2803D06C2827D071287D
:1049500025D10868C01D20F007000860D0E90023B9
:1049600008300860194610467047002A0A680A6035
:10497000106803D0121D0A6000B217E0121D0A6011
:1049800080B217E0002A0A680A60106803D0121D7E
:104990000A6040B20AE0121D0A60C0B20AE0002AB2
:1049A0000A680A60106803D0121D0A60C1177047B8
:1049B000121D0A600021704770B51C460D46B4F107
:1049C00025002E69114600F019811C3868D0001F9F
:1049D000022865D9133842D0093861D0801E16D01C
:1049E000401E1ED0401E02285AD9001F19D0401F59
:1049F00000F08180401E32D0401E00F0CB80C01EEF
:104A000000F0DA80801E2AD0C01E28D0FCE0686941
:104A1000421C6A610A680A6052F8043B0A60335417
:104A2000FCE095F83A000122FFF789FFC5E9000193
:104A3000002904D56869411C69612D220DE0288F89
:104A4000810704D56869411C69612B2205E0C00714
:104A500021D56869411C6961202232541BE095F818
:104A60003A000022FFF76BFFC5E9000195F8380016
:104A7000010710D5D5E90023002B08BF002A0AD072
:104A800044F02000782806D1686930213154401C58
:104A9000421C6A613454214668693044E86087E00A
:104AA0000868C01D20F007000860D0E90023083026
:104AB0000860C5E90023D5E90001C80F04D0686982
:104AC000411C69612D220DE0288F810704D568699A
:104AD000411C69612B2205E0C00704D56869411CAF
:104AE00069612022325468693044E86021462846D2
:104AF00000F0C4F992E005F13A02507820B14FF08D
:104B0000FF340FF6202062E01078622808D0682871
:104B100024D06A2812D06C282ED071280ED02BE019
:104B20000A680A6052F8040B0A6020B94FF0FF349B
:104B30000FF608204BE0E96A01706FE00A680A602E
:104B400052F8040B0A6020B94FF0FF340FF6EC1056
:104B50003DE0EA6AD317C0E900235FE00A680A6013
:104B600052F8040B0A6020B94FF0FF340FF6CC1056
:104B70002DE0E96A018051E00A680A6052F8040BEE
:104B80000A6020B94FF0FF340FF6B0101FE0E96A59
:104B9000016043E00A680A6052F8040B0A600021D1
:104BA00020F0000221F0FF33C5E90023EE607821F8
:104BB000284600F0BBF831E00868086050F8044B64
:104BC0000860EC603CB94FF0FF340FF6881002F03B
:104BD00059FD201A70BD2E6B002E04D52046FEF71D
:104BE00043F8044608E032460021204601F0F0FD7B
:104BF000002814BF041B3446AC610FE06869411CF7
:104C000069612522325409E06969481C68612522DE
:104C10007254210002D0431C6B613454002070BDDB
:104C20002DE9FC410F46064690467A6B7869396A51
:104C3000BC6A121AB869521A796A121AF869521AB9
:104C4000121A97F83800141B41070FD42020002CAB
:104C50008DF800000ADD254601236A4639463046B4
:104C600000F048FC00285DD16D1EF5D17B694246FD
:104C70003946304600F03EFC002853D130208DF8F4
:104C800000003D6A002D09DD01236A4639463046A1
:104C900000F030FC002845D16D1EF5D1BB69FA68E3
:104CA0003946304600F026FC00283BD130208DF8F4
:104CB00000007D6A002D08DD01236A463946304632
:104CC00000F018FC70BB6D1EF6D1F868B969FB697D
:104CD00042183946304600F00DFC18BB30208DF8E4
:104CE0000000BD6A002D08DD01236A4639463046C2
:104CF00000F000FCB0B96D1EF6D197F838004107FE
:104D00000DD52020002C8DF8000008DD01236A4617
:104D10003946304600F0EEFB20B9641EF6D1002083
:104D2000BDE8F6814FF0FF30BDE8F6812DE9FC4388
:104D300007466F293E6908BF082405D041F02000CE
:104D4000782814BF0A2410243C25D7E900236429BD
:104D500018BF69299046994605D1002B03D5D8F193
:104D6000000869EB4909B9F1000F08BFB8F1000F5D
:104D70001FD1386BE8B9082C4CD197F838000107DF
:104D800048D530203B2586F83B0043E000280ED56F
:104D900097F8380000F01400102808D17B6B79696F
:104DA000386A5B1A1B1A9A1A002AC8BF3A62BDE811
:104DB000F3838DF80010404649462246E317FEF77C
:104DC000F3FD3032D0B26D1E3A28019504DB9DF818
:104DD0000000A0F151018A1872554046494622460A
:104DE000E317FEF7E1FD80465FEA010908BFB8F16D
:104DF000000F03D0F86871198842DCD3082C09D160
:104E000097F83800010705D5705D302802D06D1E77
:104E100030207055C5F13C02BA617119F960386BE8
:104E20008242B3DA821A3A624FF6EF70398F01404C
:104E30003987BDE8F3832DE9D04306460F46144673
:104E40004FF00008DFF8109412E0E00707D5424663
:104E50004B463046394602F035FC06460F46404682
:104E6000494642464B4602F02DFC64108046894676
:104E7000002CEAD130463946BDE8D0832DE9F84F01
:104E800005468A464AF020048EB0D5E90089612C97
:104E900002AE09D0286B002848BF062003D408BF03
:104EA000672C01D101202863D5E900014A00521581
:104EB000521C0DD10B030BD0AAF1610103201A295A
:104EC000A86102D20FF2A86110E00FF2A8610DE014
:104ED0004A005215521C0ED10B030CD1AAF16101EC
:104EE00003201A29A86116D30FF29061E868032203
:104EF000FDF748FFC0E1CDE90C01DDE90C2323F00B
:104F00000043B3F5801F0DD20027002B08BF002AF5
:104F1000019703D111E00FF26061E7E701AA02F007
:104F2000A3FC0AE0CD48CE4900EB1350DDE90C2389
:104F300001900B40CB4910461943C5E90001612C93
:104F40000DD1E86830210170821CBAF1610FEA606E
:104F50000CBF7821582141706869801C6861D5E9CF
:104F60000001CDE90C01DDE90C2333F0004104BF61
:104F70000028002300F04881612C40F0A080286BBD
:104F8000494600284CBF4FF0210B00F1010B404671
:104F900000220023DDE90C8902F09EFC01990BF14F
:104FA000010738BF89F00049091F002F01918DF8D2
:104FB00008200DF1090040F33581A949009106460A
:104FC000404649460022002302F09EFC80F02981E1
:104FD0004800400D00F11C0211D0002A0FDD40F204
:104FE000FF739A4205DBA04909F00040014300200D
:104FF00011E0009B194041EA025140460BE028F0C5
:10500000000039F0004108BF00280FBF49461C22AC
:10501000494602F091FC8046894602F02BFDFF1FB5
:10502000002F044609DD02F043FD02460B464046D0
:10503000494602F04FFD80468946F01D072104E0F5
:1050400004F00F0200F8012D2411002C01DD491E8F
:10505000F6D5491E5CBF002200F8012DF9D5DCE031
:105060000020194602AA0A4400E05B1E12F801491A
:10507000491E8442F9D00F2804D10DF10900425C89
:10508000521C4254002904D50198001D02AE5B1C3D
:105090000190581E0CD43118AAF13A040A78303223
:1050A000D7B23A2FA8BFA218401E01F80129F5D5A2
:1050B000286B002840F1A780591E2963A3E00199BD
:1050C0006A4A47F29750414391FBF2F2019229F06C
:1050D0000046D2F1070204DD40463146FFF7ABFE41
:1050E0000AE0524200206249FFF7A5FE02460B4645
:1050F0004046314602F060FD8046662C286B06BFB4
:10510000019F0A3706273F18142FC8BF14273020E5
:105110008DF8080089460DF1090000E03046002FA7
:1051200034DD06464046494602F06AFE01460A461C
:1051300006F1080304200A26B2FBF6F606EB860EFB
:10514000A2EB4E02303203F8012C0A22B6FBF2F237
:1051500002EB820EA6EB4E063036401E03F8026DBF
:10516000E9D1083F002F03F10806D7DD084602F019
:105170005BFE02460B464046494602F0ABFC00226D
:105180003C4B02F09FFA80468946CBE70DF10901BE
:10519000401A0DF1090604E00199491E401E0191D3
:1051A000761C31783029F7D0662C02D10199491C40
:1051B00003E0652C0CBF012100212B6BCB1898421A
:1051C000B8BF431E002B1ED4834204DAF05C35289E
:1051D000A8BF392000DA30201946721E02EB010800
:1051E00000E05B1E18F80199491E8145F9D0392865
:1051F00002D1705C401C7054002904D50198401CF9
:1052000016465B1C0190019800B200901BB232461A
:105210005146284600F034F82EE0C61D002F3FF717
:10522000CFAE30460DF10901401A03465845C8BFBC
:105230005B46002B0DF109063FF53AAF8342BFF6FE
:105240000FAF0DF10900C15C07297FF709AF0F20EF
:1052500007E70000CBCCCC0C0000244002FCFFFF91
:10526000FFFF0F800000E03F0000F07FA0860100FC
:105270000000F03F84D797410FB0BDE8F08F0000E9
:105280002DE9F84783B006468A461746984600F04F
:1052900099F9B8F1000F406A356B90F8009002DC84
:1052A0004FF00108B6A74AF02000BDF9304066284B
:1052B00008BF641C15D0672840F0848014F1040FE7
:1052C000C0F28680AC4280F2838096F83800641C7D
:1052D000010702D4A845B8BF454620B22D1A48BFE1
:1052E00000250FFA84FAF068B169BAF1000F25DCE5
:1052F0004A1C30234354002D03DC96F83800010784
:1053000003D5F06800F80290521C15EB0A0FB8BFE5
:105310006C4220B2441941424445B8BFA046B26134
:1053200071620FFA88F5F561F068B3692A4639466B
:105330001844FDF727FD641BB462C4E022B2904517
:10534000084417DA42463946FDF71CFDB06940446F
:10535000B061AAEB0801002D716203DC96F83810E9
:105360000A0705D5F16801F80090F069401CF0616A
:10537000B562A8E03946FDF705FDB069002D50443F
:10538000A8EB040803DC96F838100A0703D5F16887
:1053900001F80090401CB0610FFA88F08542F36874
:1053A000B069B8BFA8460FFA88F207EB0A011844A3
:1053B000FDF7E8FCB1690FFA88F00144B161281AE1
:1053C000706280E0BAF1610F14D14FF0700A16E0FC
:1053D000A84504DA96F838100A0758BF45466D1EEE
:1053E00048BF0025BAF1670F14BF4FF0450A4FF0D0
:1053F000650A04E0BAF1410F08BF4FF0500AB169E5
:10540000F368481CB061002D17F8012B5A5403DCD7
:1054100096F838100A071BD5F168431CB36101F8F0
:105420000090002D14DDA8F101080FFA88F039462C
:105430008542F768B8BFA8460FFA88F2F818FDF75A
:10544000A1FCB0690FFA88F108446D1AB061756269
:10545000F068B1690844002C80F800A003D42B2226
:105460004270811C03E02D2141706442811C0020A8
:105470006A460AE023460A2493FBF4F404EB84050D
:10548000A3EB450302F8013B401C24B2002CF1DCE5
:10549000012806DC4AF02002652A04BF302201F808
:1054A000012B48B9302001F8010B07E0401E1DF820
:1054B0000030303301F8013B0028F7DCF268B069B6
:1054C0001044091AF16196F8380000F01400102811
:1054D0000DD17269B169706A8A18F1698218B06A6F
:1054E0008A188218706B8242BCBF821A326204B082
:1054F000BDE8F087F8B505460E4617461C46002065
:1055000074B117F8011BB068A847B06030B1F06AF9
:10551000401CF0620020641EF3D1F2BD4FF0FF305A
:10552000F2BD00007072696E74665F733A20256E7A
:1055300020646973616C6C6F776564007072696E6A
:1055400074663A2062616420256E20617267756D11
:10555000656E74007072696E74665F733A20626182
:105560006420257320617267756D656E740000009C
:105570006E616E004E414E00696E6600494E4600F7
:1055800030000000613807E005E0A0F161011A2950
:1055900001D20120704741381A288041C00F70475E
:1055A000A0F10901052901D3202801D1012070476C
:1055B00000207047A0F141011A2938BF2030704700
:1055C00001487047014870477000002038000020F3
:1055D00003460846C1680269491C521E002A02613E
:1055E000C16003D400680122002118474FF0FF304A
:1055F0007047034608461146C268521E11F1010F5A
:10560000C26002D000680022184770472DE9F84FA9
:1056100088B04FF0FF36009137461B68129CDFF8C8
:10562000045C01938DF81F400023039302920FF650
:105630000C480FF60049834602E00298411C029193
:1056400002990878FDF7DEFAB0B10398401C039088
:10565000012200980021D8478246FDF7D3FA00289E
:10566000F3D10398401E1AF1010F0390E5D0009882
:1056700000225146D847E0E7DDF808A09AF800007C
:1056800028B9B84200DA384609B0BDE8F08F2528BD
:105690000BD10AF10100029001782A2903BF401CB6
:1056A000029010F8011D002111E00398401C0390A6
:1056B000012200980021D8479AF800108842BCD0F7
:1056C000024669465846FFF794FF0020D9E78DF857
:1056D0001C10002105910AE00598A84205DA00EBAC
:1056E000800301EB430130390591501C0290029A6E
:1056F0001178A1F130000A28EED3069648461178B9
:10570000FDF734FB20B10298401C0290401E007847
:105710008DF81D009DF81D00682805D102990878B4
:1057200068280CD1622206E06C2802BF0299087832
:105730006C2804D17122491C8DF81D200291029819
:1057400001784046FDF712FBA8B90398401C03906E
:10575000012200980021D8478246FDF753FA00281D
:10576000F3D10398401E1AF1010F039003D0009863
:1057700000225146D8476946584600F018F80028DC
:1057800009DD002F9DF81E0048BF002700283FF4C8
:1057900054AF7F1C51E72CB110F1230F08BF3046E6
:1057A0003FF472AF002F7FF56EAF07466BE770B521
:1057B00005460C460020A368A0771E78253E6AD0D7
:1057C0001C3E23D0361F022E20D9133E1AD0F61EBF
:1057D0007AD0B61F1AD0B61E12D0761E12D0761E00
:1057E000022E13D9361F0DD0761F13D0761E012E30
:1057F00008D9361F4DD0B61E04D0F61E02D070BD9B
:10580000002263E02846BDE8704058E12846BDE824
:10581000704067E2207F002847D1607F622808D06F
:1058200068281CD06A280ED06C2821D071280AD094
:105830001EE06168616051F8040B616000281DD0B2
:10584000E168017031E06168616051F8040B6160EA
:10585000002813D0E268D317C0E9002325E061686F
:10586000616051F8040B616040B1E16801801CE0A7
:105870006168616051F8040B616038B90FF6C410BB
:1058800001F000FF4FF0FF34201A70BDE1680160A5
:105890000BE001221AE0E068401CE0600122206871
:1058A0000021A8470646252E01D1012070BD3246B1
:1058B00021462846FFF79DFE16F1010F02D14FF059
:1058C000FF3070BD002070BD4FF0FF322846BDE8AC
:1058D000704021E0C9B208E003789942A4BF90F873
:1058E00002C08C4514DAC01CD21E032A09D34378A7
:1058F0002D2BF1D010F801CB8C4518BF521EF4D1DE
:1059000006E03AB110F8013B8B4218BF521EF8D1A5
:1059100001207047002070472DE9F04F1446002603
:10592000002C83B080460D464FF0000B25D5A868AB
:10593000411CA960084601785E2903BF401CA8608D
:1059400010F801ADB246AF6838785D280CBF781CFE
:1059500038465D21FDF70AFA002800F0A080C11B3F
:105960000091A8600098032807DB821E2D21781C77
:1059700000F02EFF08B14FF0010B6869002804DC2D
:10598000002C14BF6FF0004001202861287F70B9FF
:105990006868686050F8049B6860B9F1000F06D130
:1059A0004FF0FF344348784400F585700FE0287FBE
:1059B000B0B9E87FA0B16968696051F8040B69600B
:1059C000B0F1004F07D34FF0FF340FF6940001F011
:1059D00059FE201A70E0A969884288BF0846A8616C
:1059E000CDF808B0CDF804A0DDF800B02969491E53
:1059F0002961E868401C0029E86057D42868012222
:105A00000021C04782461AF1010F32D0002C0FDD71
:105A1000FDF7F8F868BB287F40B9A86940B309F8DA
:105A200001AB0121A977A869401EA8610226DDE724
:105A3000F1D50298002801980DD100285A46514608
:105A4000384604D100F0C4FE0028E4D111E000F093
:105A5000BFFE70B9DFE700285A465146384604D1E8
:105A6000FFF738FF0028D6D103E0FFF733FFF0E758
:105A70000126524629464046FFF7BBFD0CB1022ED7
:105A800009D0022E10D0F00702D41AF1010F06D16E
:105A90004FF0FF3010E0287F30B9A86908B9002026
:105AA0000AE0002089F80000012005E04FF0FF3AED
:105AB000DFE700BFFC59000003B0BDE8F08F2DE91F
:105AC000F8450D4688B0804668690028D8BF6FF059
:105AD00000402861EA464046FFF77AFD2B2818BFB0
